{
  "abi": [
    {
      "anonymous": false,
      "inputs": [
        {
          "indexed": false,
          "internalType": "uint256",
          "name": "tradeId",
          "type": "uint256"
        },
        {
          "indexed": false,
          "internalType": "address",
          "name": "buyer",
          "type": "address"
        },
        {
          "indexed": false,
          "internalType": "address",
          "name": "seller",
          "type": "address"
        },
        {
          "indexed": false,
          "internalType": "uint256",
          "name": "energyAmount",
          "type": "uint256"
        }
      ],
      "name": "TradeCompleted",
      "type": "event"
    },
    {
      "anonymous": false,
      "inputs": [
        {
          "indexed": false,
          "internalType": "uint256",
          "name": "tradeId",
          "type": "uint256"
        },
        {
          "indexed": false,
          "internalType": "address",
          "name": "buyer",
          "type": "address"
        },
        {
          "indexed": false,
          "internalType": "address",
          "name": "seller",
          "type": "address"
        },
        {
          "indexed": false,
          "internalType": "uint256",
          "name": "energyAmount",
          "type": "uint256"
        },
        {
          "indexed": false,
          "internalType": "uint256",
          "name": "price",
          "type": "uint256"
        },
        {
          "indexed": false,
          "internalType": "uint256",
          "name": "status",
          "type": "uint256"
        }
      ],
      "name": "TradeCreated",
      "type": "event"
    },
    {
      "anonymous": false,
      "inputs": [
        {
          "indexed": false,
          "internalType": "address",
          "name": "userAddress",
          "type": "address"
        }
      ],
      "name": "userAdded",
      "type": "event"
    },
    {
      "anonymous": false,
      "inputs": [
        {
          "indexed": false,
          "internalType": "address",
          "name": "userAddress",
          "type": "address"
        },
        {
          "indexed": false,
          "internalType": "bool",
          "name": "isExists",
          "type": "bool"
        }
      ],
      "name": "userRegistered",
      "type": "event"
    },
    {
      "inputs": [
        {
          "internalType": "uint256",
          "name": "_tradeId",
          "type": "uint256"
        }
      ],
      "name": "acceptTrade",
      "outputs": [],
      "stateMutability": "payable",
      "type": "function"
    },
    {
      "inputs": [],
      "name": "getNoOfUser",
      "outputs": [
        {
          "internalType": "uint256",
          "name": "",
          "type": "uint256"
        }
      ],
      "stateMutability": "view",
      "type": "function"
    },
    {
      "inputs": [],
      "name": "getallTrades",
      "outputs": [
        {
          "components": [
            {
              "internalType": "uint256",
              "name": "tradeId",
              "type": "uint256"
            },
            {
              "internalType": "address",
              "name": "buyer",
              "type": "address"
            },
            {
              "internalType": "address",
              "name": "seller",
              "type": "address"
            },
            {
              "internalType": "uint256",
              "name": "energyAmount",
              "type": "uint256"
            },
            {
              "internalType": "uint256",
              "name": "price",
              "type": "uint256"
            },
            {
              "internalType": "uint256",
              "name": "status",
              "type": "uint256"
            }
          ],
          "internalType": "struct SmartGrid.Trade[]",
          "name": "",
          "type": "tuple[]"
        }
      ],
      "stateMutability": "view",
      "type": "function"
    },
    {
      "inputs": [
        {
          "internalType": "uint256",
          "name": "_energyAmount",
          "type": "uint256"
        }
      ],
      "name": "produceEnergy",
      "outputs": [],
      "stateMutability": "nonpayable",
      "type": "function"
    },
    {
      "inputs": [
        {
          "internalType": "uint256",
          "name": "_energyAmount",
          "type": "uint256"
        },
        {
          "internalType": "uint256",
          "name": "_price",
          "type": "uint256"
        }
      ],
      "name": "putTrade",
      "outputs": [],
      "stateMutability": "nonpayable",
      "type": "function"
    },
    {
      "inputs": [
        {
          "internalType": "address",
          "name": "userAddress",
          "type": "address"
        }
      ],
      "name": "registerUser",
      "outputs": [],
      "stateMutability": "nonpayable",
      "type": "function"
    },
    {
      "inputs": [
        {
          "internalType": "address",
          "name": "_seller",
          "type": "address"
        },
        {
          "internalType": "uint256",
          "name": "energyAmount",
          "type": "uint256"
        },
        {
          "internalType": "uint256",
          "name": "price",
          "type": "uint256"
        }
      ],
      "name": "requestTrade",
      "outputs": [],
      "stateMutability": "nonpayable",
      "type": "function"
    },
    {
      "inputs": [
        {
          "internalType": "address",
          "name": "_user",
          "type": "address"
        },
        {
          "internalType": "uint256",
          "name": "_credits",
          "type": "uint256"
        }
      ],
      "name": "rewardCarbonCredits",
      "outputs": [],
      "stateMutability": "nonpayable",
      "type": "function"
    },
    {
      "inputs": [],
      "name": "totalUsers",
      "outputs": [
        {
          "internalType": "uint256",
          "name": "",
          "type": "uint256"
        }
      ],
      "stateMutability": "view",
      "type": "function"
    },
    {
      "inputs": [
        {
          "internalType": "uint256",
          "name": "",
          "type": "uint256"
        }
      ],
      "name": "trades",
      "outputs": [
        {
          "internalType": "uint256",
          "name": "tradeId",
          "type": "uint256"
        },
        {
          "internalType": "address",
          "name": "buyer",
          "type": "address"
        },
        {
          "internalType": "address",
          "name": "seller",
          "type": "address"
        },
        {
          "internalType": "uint256",
          "name": "energyAmount",
          "type": "uint256"
        },
        {
          "internalType": "uint256",
          "name": "price",
          "type": "uint256"
        },
        {
          "internalType": "uint256",
          "name": "status",
          "type": "uint256"
        }
      ],
      "stateMutability": "view",
      "type": "function"
    },
    {
      "inputs": [
        {
          "internalType": "address",
          "name": "",
          "type": "address"
        }
      ],
      "name": "users",
      "outputs": [
        {
          "internalType": "uint256",
          "name": "energyBalance",
          "type": "uint256"
        },
        {
          "internalType": "uint256",
          "name": "carbonCredits",
          "type": "uint256"
        },
        {
          "internalType": "bool",
          "name": "isUser",
          "type": "bool"
        }
      ],
      "stateMutability": "view",
      "type": "function"
    }
  ],
  "devdoc": {
    "kind": "dev",
    "methods": {},
    "title": "Smart Grid System with Energy Trading and Carbon Credits",
    "version": 1
  },
  "evm": {
    "assembly": "    /* \"SmartGrid.sol\":143:4752  contract SmartGrid {... */\n  mstore(0x40, 0x80)\n    /* \"SmartGrid.sol\":830:831  0 */\n  0x00\n    /* \"SmartGrid.sol\":802:831  uint256 public totalUsers = 0 */\n  0x02\n  sstore\n    /* \"SmartGrid.sol\":143:4752  contract SmartGrid {... */\n  callvalue\n  dup1\n  iszero\n  tag_1\n  jumpi\n  0x00\n  dup1\n  revert\ntag_1:\n  pop\n  dataSize(sub_0)\n  dup1\n  dataOffset(sub_0)\n  0x00\n  codecopy\n  0x00\n  return\nstop\n\nsub_0: assembly {\n        /* \"SmartGrid.sol\":143:4752  contract SmartGrid {... */\n      mstore(0x40, 0x80)\n      jumpi(tag_1, lt(calldatasize, 0x04))\n      shr(0xe0, calldataload(0x00))\n      dup1\n      0x41466826\n      gt\n      tag_13\n      jumpi\n      dup1\n      0xa87430ba\n      gt\n      tag_14\n      jumpi\n      dup1\n      0xa87430ba\n      eq\n      tag_10\n      jumpi\n      dup1\n      0xbff1f9e1\n      eq\n      tag_11\n      jumpi\n      dup1\n      0xecb9fec3\n      eq\n      tag_12\n      jumpi\n      0x00\n      dup1\n      revert\n    tag_14:\n      dup1\n      0x41466826\n      eq\n      tag_7\n      jumpi\n      dup1\n      0x54baee6e\n      eq\n      tag_8\n      jumpi\n      dup1\n      0x91228018\n      eq\n      tag_9\n      jumpi\n      0x00\n      dup1\n      revert\n    tag_13:\n      dup1\n      0x2199d5cd\n      gt\n      tag_15\n      jumpi\n      dup1\n      0x2199d5cd\n      eq\n      tag_4\n      jumpi\n      dup1\n      0x24d76e88\n      eq\n      tag_5\n      jumpi\n      dup1\n      0x3a412f6d\n      eq\n      tag_6\n      jumpi\n      0x00\n      dup1\n      revert\n    tag_15:\n      dup1\n      0x0b6d83e2\n      eq\n      tag_2\n      jumpi\n      dup1\n      0x1e6c598e\n      eq\n      tag_3\n      jumpi\n    tag_1:\n      0x00\n      dup1\n      revert\n        /* \"SmartGrid.sol\":2273:2408  function produceEnergy(uint256 _energyAmount) external onlyProducer {... */\n    tag_2:\n      callvalue\n      dup1\n      iszero\n      tag_16\n      jumpi\n      0x00\n      dup1\n      revert\n    tag_16:\n      pop\n      tag_17\n      tag_18\n      calldatasize\n      0x04\n      tag_19\n      jump\t// in\n    tag_18:\n      tag_20\n      jump\t// in\n    tag_17:\n      stop\n        /* \"SmartGrid.sol\":729:750  Trade[] public trades */\n    tag_3:\n      callvalue\n      dup1\n      iszero\n      tag_21\n      jumpi\n      0x00\n      dup1\n      revert\n    tag_21:\n      pop\n      tag_22\n      tag_23\n      calldatasize\n      0x04\n      tag_19\n      jump\t// in\n    tag_23:\n      tag_24\n      jump\t// in\n    tag_22:\n      0x40\n      dup1\n      mload\n        /* \"#utility.yul\":486:511   */\n      swap7\n      dup8\n      mstore\n      sub(shl(0xa0, 0x01), 0x01)\n        /* \"#utility.yul\":608:623   */\n      swap6\n      dup7\n      and\n        /* \"#utility.yul\":603:605   */\n      0x20\n        /* \"#utility.yul\":588:606   */\n      dup9\n      add\n        /* \"#utility.yul\":581:624   */\n      mstore\n        /* \"#utility.yul\":660:675   */\n      swap4\n      swap1\n      swap5\n      and\n        /* \"#utility.yul\":640:658   */\n      swap3\n      dup6\n      add\n        /* \"#utility.yul\":633:676   */\n      swap3\n      swap1\n      swap3\n      mstore\n        /* \"#utility.yul\":707:709   */\n      0x60\n        /* \"#utility.yul\":692:710   */\n      dup5\n      add\n        /* \"#utility.yul\":685:719   */\n      mstore\n        /* \"#utility.yul\":750:753   */\n      0x80\n        /* \"#utility.yul\":735:754   */\n      dup4\n      add\n        /* \"#utility.yul\":728:763   */\n      mstore\n        /* \"#utility.yul\":794:797   */\n      0xa0\n        /* \"#utility.yul\":779:798   */\n      dup3\n      add\n        /* \"#utility.yul\":772:807   */\n      mstore\n        /* \"#utility.yul\":473:476   */\n      0xc0\n        /* \"#utility.yul\":458:477   */\n      add\n        /* \"SmartGrid.sol\":729:750  Trade[] public trades */\n    tag_25:\n      mload(0x40)\n      dup1\n      swap2\n      sub\n      swap1\n      return\n        /* \"SmartGrid.sol\":1640:2105  function registerUser(address userAddress) external {... */\n    tag_4:\n      callvalue\n      dup1\n      iszero\n      tag_27\n      jumpi\n      0x00\n      dup1\n      revert\n    tag_27:\n      pop\n      tag_17\n      tag_29\n      calldatasize\n      0x04\n      tag_30\n      jump\t// in\n    tag_29:\n      tag_31\n      jump\t// in\n        /* \"SmartGrid.sol\":2468:2561  function getallTrades() public view returns (Trade[] memory) {... */\n    tag_5:\n      callvalue\n      dup1\n      iszero\n      tag_32\n      jumpi\n      0x00\n      dup1\n      revert\n    tag_32:\n      pop\n      tag_33\n      tag_34\n      jump\t// in\n    tag_33:\n      mload(0x40)\n      tag_25\n      swap2\n      swap1\n      tag_36\n      jump\t// in\n        /* \"SmartGrid.sol\":3185:3726  function requestTrade(address _seller, uint256 energyAmount, uint256 price) external ... */\n    tag_6:\n      callvalue\n      dup1\n      iszero\n      tag_37\n      jumpi\n      0x00\n      dup1\n      revert\n    tag_37:\n      pop\n      tag_17\n      tag_39\n      calldatasize\n      0x04\n      tag_40\n      jump\t// in\n    tag_39:\n      tag_41\n      jump\t// in\n        /* \"SmartGrid.sol\":2147:2236  function getNoOfUser() public view returns (uint256) {... */\n    tag_7:\n      callvalue\n      dup1\n      iszero\n      tag_42\n      jumpi\n      0x00\n      dup1\n      revert\n    tag_42:\n      pop\n        /* \"SmartGrid.sol\":2218:2228  totalUsers */\n      sload(0x02)\n        /* \"SmartGrid.sol\":2147:2236  function getNoOfUser() public view returns (uint256) {... */\n    tag_43:\n      mload(0x40)\n        /* \"#utility.yul\":2891:2916   */\n      swap1\n      dup2\n      mstore\n        /* \"#utility.yul\":2879:2881   */\n      0x20\n        /* \"#utility.yul\":2864:2882   */\n      add\n        /* \"SmartGrid.sol\":2147:2236  function getNoOfUser() public view returns (uint256) {... */\n      tag_25\n        /* \"#utility.yul\":2745:2922   */\n      jump\n        /* \"SmartGrid.sol\":2609:3141  function putTrade(uint256 _energyAmount, uint256 _price) external ... */\n    tag_8:\n      callvalue\n      dup1\n      iszero\n      tag_47\n      jumpi\n      0x00\n      dup1\n      revert\n    tag_47:\n      pop\n      tag_17\n      tag_49\n      calldatasize\n      0x04\n      tag_50\n      jump\t// in\n    tag_49:\n      tag_51\n      jump\t// in\n        /* \"SmartGrid.sol\":4540:4749  function rewardCarbonCredits(address _user, uint256 _credits) external {... */\n    tag_9:\n      callvalue\n      dup1\n      iszero\n      tag_52\n      jumpi\n      0x00\n      dup1\n      revert\n    tag_52:\n      pop\n      tag_17\n      tag_54\n      calldatasize\n      0x04\n      tag_55\n      jump\t// in\n    tag_54:\n      tag_56\n      jump\t// in\n        /* \"SmartGrid.sol\":685:722  mapping(address => User) public users */\n    tag_10:\n      callvalue\n      dup1\n      iszero\n      tag_57\n      jumpi\n      0x00\n      dup1\n      revert\n    tag_57:\n      pop\n      tag_58\n      tag_59\n      calldatasize\n      0x04\n      tag_30\n      jump\t// in\n    tag_59:\n      0x00\n      0x20\n      dup2\n      swap1\n      mstore\n      swap1\n      dup2\n      mstore\n      0x40\n      swap1\n      keccak256\n      dup1\n      sload\n      0x01\n      dup3\n      add\n      sload\n      0x02\n      swap1\n      swap3\n      add\n      sload\n      swap1\n      swap2\n      swap1\n      0xff\n      and\n      dup4\n      jump\n    tag_58:\n      0x40\n      dup1\n      mload\n        /* \"#utility.yul\":3635:3660   */\n      swap4\n      dup5\n      mstore\n        /* \"#utility.yul\":3691:3693   */\n      0x20\n        /* \"#utility.yul\":3676:3694   */\n      dup5\n      add\n        /* \"#utility.yul\":3669:3703   */\n      swap3\n      swap1\n      swap3\n      mstore\n        /* \"#utility.yul\":3746:3760   */\n      iszero\n        /* \"#utility.yul\":3739:3761   */\n      iszero\n        /* \"#utility.yul\":3719:3737   */\n      swap1\n      dup3\n      add\n        /* \"#utility.yul\":3712:3762   */\n      mstore\n        /* \"#utility.yul\":3623:3625   */\n      0x60\n        /* \"#utility.yul\":3608:3626   */\n      add\n        /* \"SmartGrid.sol\":685:722  mapping(address => User) public users */\n      tag_25\n        /* \"#utility.yul\":3439:3768   */\n      jump\n        /* \"SmartGrid.sol\":802:831  uint256 public totalUsers = 0 */\n    tag_11:\n      callvalue\n      dup1\n      iszero\n      tag_63\n      jumpi\n      0x00\n      dup1\n      revert\n    tag_63:\n      pop\n      tag_43\n      sload(0x02)\n      dup2\n      jump\n        /* \"SmartGrid.sol\":3768:4502  function acceptTrade(uint256 _tradeId) external payable onlyRegisteredUser {... */\n    tag_12:\n      tag_17\n      tag_68\n      calldatasize\n      0x04\n      tag_19\n      jump\t// in\n    tag_68:\n      tag_69\n      jump\t// in\n        /* \"SmartGrid.sol\":2273:2408  function produceEnergy(uint256 _energyAmount) external onlyProducer {... */\n    tag_20:\n        /* \"SmartGrid.sol\":1375:1385  msg.sender */\n      caller\n        /* \"SmartGrid.sol\":1369:1374  users */\n      0x00\n        /* \"SmartGrid.sol\":1369:1386  users[msg.sender] */\n      swap1\n      dup2\n      mstore\n      0x20\n      dup2\n      swap1\n      mstore\n      0x40\n      swap1\n      keccak256\n        /* \"SmartGrid.sol\":1369:1393  users[msg.sender].isUser */\n      0x02\n      add\n      sload\n      0xff\n      and\n        /* \"SmartGrid.sol\":1361:1412  require(users[msg.sender].isUser, \"Not authorized\") */\n      tag_71\n      jumpi\n      mload(0x40)\n      shl(0xe5, 0x461bcd)\n      dup2\n      mstore\n        /* \"#utility.yul\":3975:3977   */\n      0x20\n        /* \"SmartGrid.sol\":1361:1412  require(users[msg.sender].isUser, \"Not authorized\") */\n      0x04\n      dup3\n      add\n        /* \"#utility.yul\":3957:3978   */\n      mstore\n        /* \"#utility.yul\":4014:4016   */\n      0x0e\n        /* \"#utility.yul\":3994:4012   */\n      0x24\n      dup3\n      add\n        /* \"#utility.yul\":3987:4017   */\n      mstore\n      shl(0x92, 0x139bdd08185d5d1a1bdc9a5e9959)\n        /* \"#utility.yul\":4033:4051   */\n      0x44\n      dup3\n      add\n        /* \"#utility.yul\":4026:4070   */\n      mstore\n        /* \"#utility.yul\":4087:4105   */\n      0x64\n      add\n        /* \"SmartGrid.sol\":1361:1412  require(users[msg.sender].isUser, \"Not authorized\") */\n    tag_72:\n      mload(0x40)\n      dup1\n      swap2\n      sub\n      swap1\n      revert\n    tag_71:\n        /* \"SmartGrid.sol\":2358:2368  msg.sender */\n      caller\n        /* \"SmartGrid.sol\":2352:2357  users */\n      0x00\n        /* \"SmartGrid.sol\":2352:2369  users[msg.sender] */\n      swap1\n      dup2\n      mstore\n      0x20\n      dup2\n      swap1\n      mstore\n      0x40\n      dup2\n      keccak256\n        /* \"SmartGrid.sol\":2352:2400  users[msg.sender].energyBalance += _energyAmount */\n      dup1\n      sload\n        /* \"SmartGrid.sol\":2387:2400  _energyAmount */\n      dup4\n      swap3\n        /* \"SmartGrid.sol\":2352:2357  users */\n      swap1\n        /* \"SmartGrid.sol\":2352:2400  users[msg.sender].energyBalance += _energyAmount */\n      tag_75\n      swap1\n        /* \"SmartGrid.sol\":2387:2400  _energyAmount */\n      dup5\n      swap1\n        /* \"SmartGrid.sol\":2352:2400  users[msg.sender].energyBalance += _energyAmount */\n      tag_76\n      jump\t// in\n    tag_75:\n      swap1\n      swap2\n      sstore\n      pop\n      pop\n      pop\n        /* \"SmartGrid.sol\":2273:2408  function produceEnergy(uint256 _energyAmount) external onlyProducer {... */\n      jump\t// out\n        /* \"SmartGrid.sol\":729:750  Trade[] public trades */\n    tag_24:\n      0x01\n      dup2\n      dup2\n      sload\n      dup2\n      lt\n      tag_77\n      jumpi\n      0x00\n      dup1\n      revert\n    tag_77:\n      0x00\n      swap2\n      dup3\n      mstore\n      0x20\n      swap1\n      swap2\n      keccak256\n      0x06\n      swap1\n      swap2\n      mul\n      add\n      dup1\n      sload\n      0x01\n      dup3\n      add\n      sload\n      0x02\n      dup4\n      add\n      sload\n      0x03\n      dup5\n      add\n      sload\n      0x04\n      dup6\n      add\n      sload\n      0x05\n      swap1\n      swap6\n      add\n      sload\n      swap4\n      swap6\n      pop\n      sub(shl(0xa0, 0x01), 0x01)\n      swap3\n      dup4\n      and\n      swap5\n      swap2\n      swap1\n      swap3\n      and\n      swap3\n      dup7\n      jump\t// out\n        /* \"SmartGrid.sol\":1640:2105  function registerUser(address userAddress) external {... */\n    tag_31:\n        /* \"SmartGrid.sol\":1718:1728  msg.sender */\n      caller\n        /* \"SmartGrid.sol\":1712:1717  users */\n      0x00\n        /* \"SmartGrid.sol\":1712:1729  users[msg.sender] */\n      swap1\n      dup2\n      mstore\n      0x20\n      dup2\n      swap1\n      mstore\n      0x40\n      swap1\n      keccak256\n        /* \"SmartGrid.sol\":1712:1736  users[msg.sender].isUser */\n      0x02\n      add\n      sload\n      0xff\n      and\n        /* \"SmartGrid.sol\":1711:1736  !users[msg.sender].isUser */\n      iszero\n        /* \"SmartGrid.sol\":1703:1760  require(!users[msg.sender].isUser, \"User already exists\") */\n      tag_80\n      jumpi\n      mload(0x40)\n      shl(0xe5, 0x461bcd)\n      dup2\n      mstore\n        /* \"#utility.yul\":4580:4582   */\n      0x20\n        /* \"SmartGrid.sol\":1703:1760  require(!users[msg.sender].isUser, \"User already exists\") */\n      0x04\n      dup3\n      add\n        /* \"#utility.yul\":4562:4583   */\n      mstore\n        /* \"#utility.yul\":4619:4621   */\n      0x13\n        /* \"#utility.yul\":4599:4617   */\n      0x24\n      dup3\n      add\n        /* \"#utility.yul\":4592:4622   */\n      mstore\n        /* \"#utility.yul\":4658:4679   */\n      0x5573657220616c72656164792065786973747300000000000000000000000000\n        /* \"#utility.yul\":4638:4656   */\n      0x44\n      dup3\n      add\n        /* \"#utility.yul\":4631:4680   */\n      mstore\n        /* \"#utility.yul\":4697:4715   */\n      0x64\n      add\n        /* \"SmartGrid.sol\":1703:1760  require(!users[msg.sender].isUser, \"User already exists\") */\n      tag_72\n        /* \"#utility.yul\":4378:4721   */\n      jump\n        /* \"SmartGrid.sol\":1703:1760  require(!users[msg.sender].isUser, \"User already exists\") */\n    tag_80:\n        /* \"SmartGrid.sol\":1848:1858  msg.sender */\n      caller\n        /* \"SmartGrid.sol\":1876:1877  0 */\n      0x00\n        /* \"SmartGrid.sol\":1842:1859  users[msg.sender] */\n      swap1\n      dup2\n      mstore\n      0x20\n      dup2\n      swap1\n      mstore\n      0x40\n      dup2\n      keccak256\n        /* \"SmartGrid.sol\":1842:1877  users[msg.sender].energyBalance = 0 */\n      dup2\n      dup2\n      sstore\n        /* \"SmartGrid.sol\":1888:1919  users[msg.sender].carbonCredits */\n      0x01\n      dup1\n      dup3\n      add\n        /* \"SmartGrid.sol\":1888:1923  users[msg.sender].carbonCredits = 0 */\n      dup4\n      swap1\n      sstore\n        /* \"SmartGrid.sol\":1934:1958  users[msg.sender].isUser */\n      0x02\n      swap2\n      dup3\n      add\n        /* \"SmartGrid.sol\":1934:1965  users[msg.sender].isUser = true */\n      dup1\n      sload\n      not(0xff)\n      and\n      swap1\n      swap2\n      or\n      swap1\n      sstore\n        /* \"SmartGrid.sol\":2047:2059  totalUsers++ */\n      dup1\n      sload\n      swap2\n      tag_83\n      dup4\n      tag_84\n      jump\t// in\n    tag_83:\n      swap1\n      swap2\n      sstore\n      pop\n      pop\n        /* \"SmartGrid.sol\":2075:2097  userAdded(userAddress) */\n      mload(0x40)\n      sub(shl(0xa0, 0x01), 0x01)\n        /* \"#utility.yul\":5030:5085   */\n      dup3\n      and\n        /* \"#utility.yul\":5012:5086   */\n      dup2\n      mstore\n        /* \"SmartGrid.sol\":2075:2097  userAdded(userAddress) */\n      0x6bda722b0c3246f6ab28656c881bcc965fcfa5819f23788ac625429a6fcae7a4\n      swap1\n        /* \"#utility.yul\":5000:5002   */\n      0x20\n        /* \"#utility.yul\":4985:5003   */\n      add\n        /* \"SmartGrid.sol\":2075:2097  userAdded(userAddress) */\n      mload(0x40)\n      dup1\n      swap2\n      sub\n      swap1\n      log1\n        /* \"SmartGrid.sol\":1640:2105  function registerUser(address userAddress) external {... */\n      pop\n      jump\t// out\n        /* \"SmartGrid.sol\":2468:2561  function getallTrades() public view returns (Trade[] memory) {... */\n    tag_34:\n        /* \"SmartGrid.sol\":2513:2527  Trade[] memory */\n      0x60\n        /* \"SmartGrid.sol\":2547:2553  trades */\n      0x01\n        /* \"SmartGrid.sol\":2540:2553  return trades */\n      dup1\n      sload\n      dup1\n      0x20\n      mul\n      0x20\n      add\n      mload(0x40)\n      swap1\n      dup2\n      add\n      0x40\n      mstore\n      dup1\n      swap3\n      swap2\n      swap1\n      dup2\n      dup2\n      mstore\n      0x20\n      add\n      0x00\n      swap1\n    tag_88:\n      dup3\n      dup3\n      lt\n      iszero\n      tag_89\n      jumpi\n      0x00\n      dup5\n      dup2\n      mstore\n      0x20\n      swap1\n      dup2\n      swap1\n      keccak256\n      0x40\n      dup1\n      mload\n      0xc0\n      dup2\n      add\n      dup3\n      mstore\n      0x06\n      dup7\n      mul\n      swap1\n      swap3\n      add\n      dup1\n      sload\n      dup4\n      mstore\n      0x01\n      dup1\n      dup3\n      add\n      sload\n      sub(shl(0xa0, 0x01), 0x01)\n      swap1\n      dup2\n      and\n      dup6\n      dup8\n      add\n      mstore\n      0x02\n      dup4\n      add\n      sload\n      and\n      swap3\n      dup5\n      add\n      swap3\n      swap1\n      swap3\n      mstore\n      0x03\n      dup2\n      add\n      sload\n      0x60\n      dup5\n      add\n      mstore\n      0x04\n      dup2\n      add\n      sload\n      0x80\n      dup5\n      add\n      mstore\n      0x05\n      add\n      sload\n      0xa0\n      dup4\n      add\n      mstore\n      swap1\n      dup4\n      mstore\n      swap1\n      swap3\n      add\n      swap2\n      add\n      jump(tag_88)\n    tag_89:\n      pop\n      pop\n      pop\n      pop\n      swap1\n      pop\n        /* \"SmartGrid.sol\":2468:2561  function getallTrades() public view returns (Trade[] memory) {... */\n      swap1\n      jump\t// out\n        /* \"SmartGrid.sol\":3185:3726  function requestTrade(address _seller, uint256 energyAmount, uint256 price) external ... */\n    tag_41:\n        /* \"SmartGrid.sol\":1256:1266  msg.sender */\n      caller\n        /* \"SmartGrid.sol\":1250:1255  users */\n      0x00\n        /* \"SmartGrid.sol\":1250:1267  users[msg.sender] */\n      swap1\n      dup2\n      mstore\n      0x20\n      dup2\n      swap1\n      mstore\n      0x40\n      swap1\n      keccak256\n        /* \"SmartGrid.sol\":1250:1274  users[msg.sender].isUser */\n      0x02\n      add\n      sload\n      0xff\n      and\n        /* \"SmartGrid.sol\":1242:1298  require(users[msg.sender].isUser, \"User not registered\") */\n      tag_92\n      jumpi\n      mload(0x40)\n      shl(0xe5, 0x461bcd)\n      dup2\n      mstore\n        /* \"#utility.yul\":5299:5301   */\n      0x20\n        /* \"SmartGrid.sol\":1242:1298  require(users[msg.sender].isUser, \"User not registered\") */\n      0x04\n      dup3\n      add\n        /* \"#utility.yul\":5281:5302   */\n      mstore\n        /* \"#utility.yul\":5338:5340   */\n      0x13\n        /* \"#utility.yul\":5318:5336   */\n      0x24\n      dup3\n      add\n        /* \"#utility.yul\":5311:5341   */\n      mstore\n        /* \"#utility.yul\":5377:5398   */\n      0x55736572206e6f74207265676973746572656400000000000000000000000000\n        /* \"#utility.yul\":5357:5375   */\n      0x44\n      dup3\n      add\n        /* \"#utility.yul\":5350:5399   */\n      mstore\n        /* \"#utility.yul\":5416:5434   */\n      0x64\n      add\n        /* \"SmartGrid.sol\":1242:1298  require(users[msg.sender].isUser, \"User not registered\") */\n      tag_72\n        /* \"#utility.yul\":5097:5440   */\n      jump\n        /* \"SmartGrid.sol\":1242:1298  require(users[msg.sender].isUser, \"User not registered\") */\n    tag_92:\n        /* \"SmartGrid.sol\":3326:3336  msg.sender */\n      caller\n        /* \"SmartGrid.sol\":1517:1522  users */\n      0x00\n        /* \"SmartGrid.sol\":1517:1529  users[_user] */\n      dup2\n      dup2\n      mstore\n      0x20\n      dup2\n      swap1\n      mstore\n      0x40\n      swap1\n      keccak256\n        /* \"SmartGrid.sol\":1517:1543  users[_user].energyBalance */\n      sload\n        /* \"SmartGrid.sol\":3338:3350  energyAmount */\n      dup4\n      swap1\n        /* \"SmartGrid.sol\":1517:1554  users[_user].energyBalance >= _amount */\n      dup2\n      gt\n      iszero\n        /* \"SmartGrid.sol\":1509:1586  require(users[_user].energyBalance >= _amount, \"Insufficient energy balance\") */\n      tag_96\n      jumpi\n      mload(0x40)\n      shl(0xe5, 0x461bcd)\n      dup2\n      mstore\n        /* \"#utility.yul\":5647:5649   */\n      0x20\n        /* \"SmartGrid.sol\":1509:1586  require(users[_user].energyBalance >= _amount, \"Insufficient energy balance\") */\n      0x04\n      dup3\n      add\n        /* \"#utility.yul\":5629:5650   */\n      mstore\n        /* \"#utility.yul\":5686:5688   */\n      0x1b\n        /* \"#utility.yul\":5666:5684   */\n      0x24\n      dup3\n      add\n        /* \"#utility.yul\":5659:5689   */\n      mstore\n        /* \"#utility.yul\":5725:5754   */\n      0x496e73756666696369656e7420656e657267792062616c616e63650000000000\n        /* \"#utility.yul\":5705:5723   */\n      0x44\n      dup3\n      add\n        /* \"#utility.yul\":5698:5755   */\n      mstore\n        /* \"#utility.yul\":5772:5790   */\n      0x64\n      add\n        /* \"SmartGrid.sol\":1509:1586  require(users[_user].energyBalance >= _amount, \"Insufficient energy balance\") */\n      tag_72\n        /* \"#utility.yul\":5445:5796   */\n      jump\n        /* \"SmartGrid.sol\":1509:1586  require(users[_user].energyBalance >= _amount, \"Insufficient energy balance\") */\n    tag_96:\n      sub(shl(0xa0, 0x01), 0x01)\n        /* \"SmartGrid.sol\":3368:3382  users[_seller] */\n      dup6\n      dup2\n      and\n        /* \"SmartGrid.sol\":3368:3373  users */\n      0x00\n        /* \"SmartGrid.sol\":3368:3382  users[_seller] */\n      dup2\n      dup2\n      mstore\n      0x20\n      dup2\n      dup2\n      mstore\n      0x40\n      dup1\n      dup4\n      keccak256\n        /* \"SmartGrid.sol\":3398:3625  Trade({... */\n      dup2\n      mload\n      0xc0\n      dup2\n      add\n      dup4\n      mstore\n        /* \"SmartGrid.sol\":3368:3392  users[_seller].TradeList */\n      0x03\n      swap2\n      dup3\n      add\n        /* \"SmartGrid.sol\":3428:3459  users[_seller].TradeList.length */\n      dup1\n      sload\n        /* \"SmartGrid.sol\":3398:3625  Trade({... */\n      dup1\n      dup4\n      mstore\n        /* \"SmartGrid.sol\":3481:3491  msg.sender */\n      caller\n        /* \"SmartGrid.sol\":3398:3625  Trade({... */\n      dup4\n      dup8\n      add\n      swap1\n      dup2\n      mstore\n      swap5\n      dup4\n      add\n      swap8\n      dup9\n      mstore\n      0x60\n      dup4\n      add\n      dup14\n      dup2\n      mstore\n      0x80\n      dup5\n      add\n      dup14\n      dup2\n      mstore\n        /* \"SmartGrid.sol\":3612:3613  1 */\n      0x01\n        /* \"SmartGrid.sol\":3398:3625  Trade({... */\n      0xa0\n      dup7\n      add\n      dup2\n      dup2\n      mstore\n        /* \"SmartGrid.sol\":3368:3626  users[_seller].TradeList.push(Trade({... */\n      dup2\n      dup6\n      add\n      dup7\n      sstore\n      swap5\n      dup11\n      mstore\n      swap8\n      swap1\n      swap9\n      keccak256\n      swap4\n      mload\n      0x06\n      swap1\n      swap3\n      mul\n      swap1\n      swap4\n      add\n      swap1\n      dup2\n      sstore\n      swap4\n      mload\n      dup5\n      dup7\n      add\n      dup1\n      sload\n      not(0xffffffffffffffffffffffffffffffffffffffff)\n      swap1\n      dup2\n      and\n      swap3\n      dup12\n      and\n      swap3\n      swap1\n      swap3\n      or\n      swap1\n      sstore\n      swap7\n      mload\n      0x02\n      dup6\n      add\n      dup1\n      sload\n      swap1\n      swap9\n      and\n      swap9\n      and\n      swap8\n      swap1\n      swap8\n      or\n      swap1\n      swap6\n      sstore\n      swap4\n      mload\n      swap4\n      dup2\n      add\n      swap4\n      swap1\n      swap4\n      sstore\n      swap1\n      mload\n      0x04\n      dup4\n      add\n      sstore\n      swap2\n      mload\n      0x05\n      swap1\n      swap2\n      add\n      sstore\n        /* \"SmartGrid.sol\":3655:3668  trades.length */\n      dup1\n      sload\n        /* \"SmartGrid.sol\":3642:3718  TradeCreated(trades.length - 1, msg.sender, _seller, energyAmount, price, 1) */\n      0xb49c9d0668685521cfe9022716f47715021b432aa2a7a938789c78c370ebace3\n      swap2\n        /* \"SmartGrid.sol\":3655:3672  trades.length - 1 */\n      tag_101\n      swap2\n      tag_102\n      jump\t// in\n    tag_101:\n        /* \"SmartGrid.sol\":3642:3718  TradeCreated(trades.length - 1, msg.sender, _seller, energyAmount, price, 1) */\n      0x40\n      dup1\n      mload\n        /* \"#utility.yul\":486:511   */\n      swap2\n      dup3\n      mstore\n        /* \"SmartGrid.sol\":3674:3684  msg.sender */\n      caller\n        /* \"#utility.yul\":603:605   */\n      0x20\n        /* \"#utility.yul\":588:606   */\n      dup4\n      add\n        /* \"#utility.yul\":581:624   */\n      mstore\n      sub(shl(0xa0, 0x01), 0x01)\n        /* \"#utility.yul\":660:675   */\n      dup9\n      and\n        /* \"#utility.yul\":640:658   */\n      swap1\n      dup3\n      add\n        /* \"#utility.yul\":633:676   */\n      mstore\n        /* \"#utility.yul\":707:709   */\n      0x60\n        /* \"#utility.yul\":692:710   */\n      dup2\n      add\n        /* \"#utility.yul\":685:719   */\n      dup7\n      swap1\n      mstore\n        /* \"#utility.yul\":750:753   */\n      0x80\n        /* \"#utility.yul\":735:754   */\n      dup2\n      add\n        /* \"#utility.yul\":728:763   */\n      dup6\n      swap1\n      mstore\n        /* \"SmartGrid.sol\":3716:3717  1 */\n      0x01\n        /* \"#utility.yul\":794:797   */\n      0xa0\n        /* \"#utility.yul\":779:798   */\n      dup3\n      add\n        /* \"#utility.yul\":772:807   */\n      mstore\n        /* \"#utility.yul\":473:476   */\n      0xc0\n        /* \"#utility.yul\":458:477   */\n      add\n        /* \"SmartGrid.sol\":3642:3718  TradeCreated(trades.length - 1, msg.sender, _seller, energyAmount, price, 1) */\n      mload(0x40)\n      dup1\n      swap2\n      sub\n      swap1\n      log1\n        /* \"SmartGrid.sol\":1309:1310  _ */\n      pop\n      pop\n        /* \"SmartGrid.sol\":3185:3726  function requestTrade(address _seller, uint256 energyAmount, uint256 price) external ... */\n      pop\n      pop\n      pop\n      jump\t// out\n        /* \"SmartGrid.sol\":2609:3141  function putTrade(uint256 _energyAmount, uint256 _price) external ... */\n    tag_51:\n        /* \"SmartGrid.sol\":1375:1385  msg.sender */\n      caller\n        /* \"SmartGrid.sol\":1369:1374  users */\n      0x00\n        /* \"SmartGrid.sol\":1369:1386  users[msg.sender] */\n      swap1\n      dup2\n      mstore\n      0x20\n      dup2\n      swap1\n      mstore\n      0x40\n      swap1\n      keccak256\n        /* \"SmartGrid.sol\":1369:1393  users[msg.sender].isUser */\n      0x02\n      add\n      sload\n      0xff\n      and\n        /* \"SmartGrid.sol\":1361:1412  require(users[msg.sender].isUser, \"Not authorized\") */\n      tag_107\n      jumpi\n      mload(0x40)\n      shl(0xe5, 0x461bcd)\n      dup2\n      mstore\n        /* \"#utility.yul\":3975:3977   */\n      0x20\n        /* \"SmartGrid.sol\":1361:1412  require(users[msg.sender].isUser, \"Not authorized\") */\n      0x04\n      dup3\n      add\n        /* \"#utility.yul\":3957:3978   */\n      mstore\n        /* \"#utility.yul\":4014:4016   */\n      0x0e\n        /* \"#utility.yul\":3994:4012   */\n      0x24\n      dup3\n      add\n        /* \"#utility.yul\":3987:4017   */\n      mstore\n      shl(0x92, 0x139bdd08185d5d1a1bdc9a5e9959)\n        /* \"#utility.yul\":4033:4051   */\n      0x44\n      dup3\n      add\n        /* \"#utility.yul\":4026:4070   */\n      mstore\n        /* \"#utility.yul\":4087:4105   */\n      0x64\n      add\n        /* \"SmartGrid.sol\":1361:1412  require(users[msg.sender].isUser, \"Not authorized\") */\n      tag_72\n        /* \"#utility.yul\":3773:4111   */\n      jump\n        /* \"SmartGrid.sol\":1361:1412  require(users[msg.sender].isUser, \"Not authorized\") */\n    tag_107:\n        /* \"SmartGrid.sol\":2725:2735  msg.sender */\n      caller\n        /* \"SmartGrid.sol\":1517:1522  users */\n      0x00\n        /* \"SmartGrid.sol\":1517:1529  users[_user] */\n      dup2\n      dup2\n      mstore\n      0x20\n      dup2\n      swap1\n      mstore\n      0x40\n      swap1\n      keccak256\n        /* \"SmartGrid.sol\":1517:1543  users[_user].energyBalance */\n      sload\n        /* \"SmartGrid.sol\":2737:2750  _energyAmount */\n      dup4\n      swap1\n        /* \"SmartGrid.sol\":1517:1554  users[_user].energyBalance >= _amount */\n      dup2\n      gt\n      iszero\n        /* \"SmartGrid.sol\":1509:1586  require(users[_user].energyBalance >= _amount, \"Insufficient energy balance\") */\n      tag_110\n      jumpi\n      mload(0x40)\n      shl(0xe5, 0x461bcd)\n      dup2\n      mstore\n        /* \"#utility.yul\":5647:5649   */\n      0x20\n        /* \"SmartGrid.sol\":1509:1586  require(users[_user].energyBalance >= _amount, \"Insufficient energy balance\") */\n      0x04\n      dup3\n      add\n        /* \"#utility.yul\":5629:5650   */\n      mstore\n        /* \"#utility.yul\":5686:5688   */\n      0x1b\n        /* \"#utility.yul\":5666:5684   */\n      0x24\n      dup3\n      add\n        /* \"#utility.yul\":5659:5689   */\n      mstore\n        /* \"#utility.yul\":5725:5754   */\n      0x496e73756666696369656e7420656e657267792062616c616e63650000000000\n        /* \"#utility.yul\":5705:5723   */\n      0x44\n      dup3\n      add\n        /* \"#utility.yul\":5698:5755   */\n      mstore\n        /* \"#utility.yul\":5772:5790   */\n      0x64\n      add\n        /* \"SmartGrid.sol\":1509:1586  require(users[_user].energyBalance >= _amount, \"Insufficient energy balance\") */\n      tag_72\n        /* \"#utility.yul\":5445:5796   */\n      jump\n        /* \"SmartGrid.sol\":1509:1586  require(users[_user].energyBalance >= _amount, \"Insufficient energy balance\") */\n    tag_110:\n        /* \"SmartGrid.sol\":2781:3035  Trade({... */\n      0x40\n      dup1\n      mload\n      0xc0\n      dup2\n      add\n      dup3\n      mstore\n        /* \"SmartGrid.sol\":2769:2775  trades */\n      0x01\n        /* \"SmartGrid.sol\":2811:2824  trades.length */\n      dup1\n      sload\n        /* \"SmartGrid.sol\":2781:3035  Trade({... */\n      dup1\n      dup4\n      mstore\n      0x00\n      0x20\n      dup5\n      add\n      dup2\n      dup2\n      mstore\n        /* \"SmartGrid.sol\":2895:2905  msg.sender */\n      caller\n        /* \"SmartGrid.sol\":2781:3035  Trade({... */\n      swap6\n      dup6\n      add\n      swap6\n      dup7\n      mstore\n      0x60\n      dup6\n      add\n      dup11\n      dup2\n      mstore\n      0x80\n      dup7\n      add\n      dup11\n      dup2\n      mstore\n      0xa0\n      dup8\n      add\n      dup5\n      dup2\n      mstore\n        /* \"SmartGrid.sol\":2769:3036  trades.push(Trade({... */\n      dup6\n      dup8\n      add\n      dup8\n      sstore\n      swap4\n      dup7\n      swap1\n      mstore\n      swap6\n      mload\n      0xb10e2d527612073b26eecdfd717e6a320cf44b4afac2b0732d9fcbe2b7fa0cf6\n      0x06\n      swap1\n      swap6\n      mul\n      swap5\n      dup6\n      add\n      sstore\n      swap1\n      mload\n      0xb10e2d527612073b26eecdfd717e6a320cf44b4afac2b0732d9fcbe2b7fa0cf7\n      dup5\n      add\n      dup1\n      sload\n      not(0xffffffffffffffffffffffffffffffffffffffff)\n      swap1\n      dup2\n      and\n      sub(shl(0xa0, 0x01), 0x01)\n      swap4\n      dup5\n      and\n      or\n      swap1\n      swap2\n      sstore\n      swap7\n      mload\n      0xb10e2d527612073b26eecdfd717e6a320cf44b4afac2b0732d9fcbe2b7fa0cf8\n      dup6\n      add\n      dup1\n      sload\n      swap1\n      swap9\n      and\n      swap2\n      and\n      or\n      swap1\n      swap6\n      sstore\n      swap4\n      mload\n      0xb10e2d527612073b26eecdfd717e6a320cf44b4afac2b0732d9fcbe2b7fa0cf9\n      dup3\n      add\n      sstore\n      swap2\n      mload\n      0xb10e2d527612073b26eecdfd717e6a320cf44b4afac2b0732d9fcbe2b7fa0cfa\n      dup4\n      add\n      sstore\n      swap2\n      mload\n      0xb10e2d527612073b26eecdfd717e6a320cf44b4afac2b0732d9fcbe2b7fa0cfb\n      swap1\n      swap2\n      add\n      sstore\n        /* \"SmartGrid.sol\":3065:3078  trades.length */\n      dup1\n      sload\n        /* \"SmartGrid.sol\":3052:3133  TradeCreated(trades.length - 1, address(0), msg.sender, _energyAmount, _price, 0) */\n      0xb49c9d0668685521cfe9022716f47715021b432aa2a7a938789c78c370ebace3\n      swap2\n        /* \"SmartGrid.sol\":3065:3082  trades.length - 1 */\n      tag_114\n      swap2\n      tag_102\n      jump\t// in\n    tag_114:\n        /* \"SmartGrid.sol\":3052:3133  TradeCreated(trades.length - 1, address(0), msg.sender, _energyAmount, _price, 0) */\n      0x40\n      dup1\n      mload\n        /* \"#utility.yul\":486:511   */\n      swap2\n      dup3\n      mstore\n        /* \"SmartGrid.sol\":3092:3093  0 */\n      0x00\n        /* \"#utility.yul\":603:605   */\n      0x20\n        /* \"#utility.yul\":588:606   */\n      dup4\n      add\n        /* \"#utility.yul\":581:624   */\n      dup2\n      swap1\n      mstore\n        /* \"SmartGrid.sol\":3096:3106  msg.sender */\n      caller\n        /* \"#utility.yul\":640:658   */\n      dup4\n      dup4\n      add\n        /* \"#utility.yul\":633:676   */\n      mstore\n        /* \"#utility.yul\":707:709   */\n      0x60\n        /* \"#utility.yul\":692:710   */\n      dup4\n      add\n        /* \"#utility.yul\":685:719   */\n      dup9\n      swap1\n      mstore\n        /* \"#utility.yul\":750:753   */\n      0x80\n        /* \"#utility.yul\":735:754   */\n      dup4\n      add\n        /* \"#utility.yul\":728:763   */\n      dup8\n      swap1\n      mstore\n        /* \"#utility.yul\":794:797   */\n      0xa0\n        /* \"#utility.yul\":779:798   */\n      dup4\n      add\n        /* \"#utility.yul\":772:807   */\n      mstore\n        /* \"SmartGrid.sol\":3052:3133  TradeCreated(trades.length - 1, address(0), msg.sender, _energyAmount, _price, 0) */\n      mload\n      swap1\n      dup2\n      swap1\n      sub\n        /* \"#utility.yul\":473:476   */\n      0xc0\n        /* \"SmartGrid.sol\":3052:3133  TradeCreated(trades.length - 1, address(0), msg.sender, _energyAmount, _price, 0) */\n      add\n      swap1\n      log1\n        /* \"SmartGrid.sol\":1423:1424  _ */\n      pop\n      pop\n        /* \"SmartGrid.sol\":2609:3141  function putTrade(uint256 _energyAmount, uint256 _price) external ... */\n      pop\n      pop\n      jump\t// out\n        /* \"SmartGrid.sol\":4540:4749  function rewardCarbonCredits(address _user, uint256 _credits) external {... */\n    tag_56:\n      sub(shl(0xa0, 0x01), 0x01)\n        /* \"SmartGrid.sol\":4630:4642  users[_user] */\n      dup3\n      and\n        /* \"SmartGrid.sol\":4630:4635  users */\n      0x00\n        /* \"SmartGrid.sol\":4630:4642  users[_user] */\n      swap1\n      dup2\n      mstore\n      0x20\n      dup2\n      swap1\n      mstore\n      0x40\n      swap1\n      keccak256\n        /* \"SmartGrid.sol\":4630:4649  users[_user].isUser */\n      0x02\n      add\n      sload\n      0xff\n      and\n        /* \"SmartGrid.sol\":4622:4692  require(users[_user].isUser, \"Only producers can earn carbon credits\") */\n      tag_118\n      jumpi\n      mload(0x40)\n      shl(0xe5, 0x461bcd)\n      dup2\n      mstore\n        /* \"#utility.yul\":7390:7392   */\n      0x20\n        /* \"SmartGrid.sol\":4622:4692  require(users[_user].isUser, \"Only producers can earn carbon credits\") */\n      0x04\n      dup3\n      add\n        /* \"#utility.yul\":7372:7393   */\n      mstore\n        /* \"#utility.yul\":7429:7431   */\n      0x26\n        /* \"#utility.yul\":7409:7427   */\n      0x24\n      dup3\n      add\n        /* \"#utility.yul\":7402:7432   */\n      mstore\n        /* \"#utility.yul\":7468:7502   */\n      0x4f6e6c792070726f6475636572732063616e206561726e20636172626f6e2063\n        /* \"#utility.yul\":7448:7466   */\n      0x44\n      dup3\n      add\n        /* \"#utility.yul\":7441:7503   */\n      mstore\n        /* \"#utility.yul\":7539:7547   */\n      0x7265646974730000000000000000000000000000000000000000000000000000\n        /* \"#utility.yul\":7519:7537   */\n      0x64\n      dup3\n      add\n        /* \"#utility.yul\":7512:7548   */\n      mstore\n        /* \"#utility.yul\":7565:7584   */\n      0x84\n      add\n        /* \"SmartGrid.sol\":4622:4692  require(users[_user].isUser, \"Only producers can earn carbon credits\") */\n      tag_72\n        /* \"#utility.yul\":7188:7590   */\n      jump\n        /* \"SmartGrid.sol\":4622:4692  require(users[_user].isUser, \"Only producers can earn carbon credits\") */\n    tag_118:\n      sub(shl(0xa0, 0x01), 0x01)\n        /* \"SmartGrid.sol\":4703:4715  users[_user] */\n      dup3\n      and\n        /* \"SmartGrid.sol\":4703:4708  users */\n      0x00\n        /* \"SmartGrid.sol\":4703:4715  users[_user] */\n      swap1\n      dup2\n      mstore\n      0x20\n      dup2\n      swap1\n      mstore\n      0x40\n      dup2\n      keccak256\n        /* \"SmartGrid.sol\":4703:4729  users[_user].carbonCredits */\n      0x01\n      add\n        /* \"SmartGrid.sol\":4703:4741  users[_user].carbonCredits += _credits */\n      dup1\n      sload\n        /* \"SmartGrid.sol\":4733:4741  _credits */\n      dup4\n      swap3\n        /* \"SmartGrid.sol\":4703:4708  users */\n      swap1\n        /* \"SmartGrid.sol\":4703:4741  users[_user].carbonCredits += _credits */\n      tag_121\n      swap1\n        /* \"SmartGrid.sol\":4733:4741  _credits */\n      dup5\n      swap1\n        /* \"SmartGrid.sol\":4703:4741  users[_user].carbonCredits += _credits */\n      tag_76\n      jump\t// in\n    tag_121:\n      swap1\n      swap2\n      sstore\n      pop\n      pop\n      pop\n      pop\n        /* \"SmartGrid.sol\":4540:4749  function rewardCarbonCredits(address _user, uint256 _credits) external {... */\n      jump\t// out\n        /* \"SmartGrid.sol\":3768:4502  function acceptTrade(uint256 _tradeId) external payable onlyRegisteredUser {... */\n    tag_69:\n        /* \"SmartGrid.sol\":1256:1266  msg.sender */\n      caller\n        /* \"SmartGrid.sol\":1250:1255  users */\n      0x00\n        /* \"SmartGrid.sol\":1250:1267  users[msg.sender] */\n      swap1\n      dup2\n      mstore\n      0x20\n      dup2\n      swap1\n      mstore\n      0x40\n      swap1\n      keccak256\n        /* \"SmartGrid.sol\":1250:1274  users[msg.sender].isUser */\n      0x02\n      add\n      sload\n      0xff\n      and\n        /* \"SmartGrid.sol\":1242:1298  require(users[msg.sender].isUser, \"User not registered\") */\n      tag_123\n      jumpi\n      mload(0x40)\n      shl(0xe5, 0x461bcd)\n      dup2\n      mstore\n        /* \"#utility.yul\":5299:5301   */\n      0x20\n        /* \"SmartGrid.sol\":1242:1298  require(users[msg.sender].isUser, \"User not registered\") */\n      0x04\n      dup3\n      add\n        /* \"#utility.yul\":5281:5302   */\n      mstore\n        /* \"#utility.yul\":5338:5340   */\n      0x13\n        /* \"#utility.yul\":5318:5336   */\n      0x24\n      dup3\n      add\n        /* \"#utility.yul\":5311:5341   */\n      mstore\n        /* \"#utility.yul\":5377:5398   */\n      0x55736572206e6f74207265676973746572656400000000000000000000000000\n        /* \"#utility.yul\":5357:5375   */\n      0x44\n      dup3\n      add\n        /* \"#utility.yul\":5350:5399   */\n      mstore\n        /* \"#utility.yul\":5416:5434   */\n      0x64\n      add\n        /* \"SmartGrid.sol\":1242:1298  require(users[msg.sender].isUser, \"User not registered\") */\n      tag_72\n        /* \"#utility.yul\":5097:5440   */\n      jump\n        /* \"SmartGrid.sol\":1242:1298  require(users[msg.sender].isUser, \"User not registered\") */\n    tag_123:\n        /* \"SmartGrid.sol\":3854:3873  Trade storage trade */\n      0x00\n        /* \"SmartGrid.sol\":3876:3882  trades */\n      0x01\n        /* \"SmartGrid.sol\":3883:3891  _tradeId */\n      dup3\n        /* \"SmartGrid.sol\":3876:3892  trades[_tradeId] */\n      dup2\n      sload\n      dup2\n      lt\n      tag_127\n      jumpi\n      tag_127\n      tag_128\n      jump\t// in\n    tag_127:\n      swap1\n      0x00\n      mstore\n      keccak256(0x00, 0x20)\n      swap1\n      0x06\n      mul\n      add\n        /* \"SmartGrid.sol\":3854:3892  Trade storage trade = trades[_tradeId] */\n      swap1\n      pop\n        /* \"SmartGrid.sol\":3911:3916  trade */\n      dup1\n        /* \"SmartGrid.sol\":3911:3923  trade.status */\n      0x05\n      add\n      sload\n        /* \"SmartGrid.sol\":3927:3928  1 */\n      0x01\n        /* \"SmartGrid.sol\":3911:3928  trade.status == 1 */\n      eq\n        /* \"SmartGrid.sol\":3903:3959  require(trade.status == 1, \"Trade not in correct state\") */\n      tag_130\n      jumpi\n      mload(0x40)\n      shl(0xe5, 0x461bcd)\n      dup2\n      mstore\n        /* \"#utility.yul\":7929:7931   */\n      0x20\n        /* \"SmartGrid.sol\":3903:3959  require(trade.status == 1, \"Trade not in correct state\") */\n      0x04\n      dup3\n      add\n        /* \"#utility.yul\":7911:7932   */\n      mstore\n        /* \"#utility.yul\":7968:7970   */\n      0x1a\n        /* \"#utility.yul\":7948:7966   */\n      0x24\n      dup3\n      add\n        /* \"#utility.yul\":7941:7971   */\n      mstore\n        /* \"#utility.yul\":8007:8035   */\n      0x5472616465206e6f7420696e20636f7272656374207374617465000000000000\n        /* \"#utility.yul\":7987:8005   */\n      0x44\n      dup3\n      add\n        /* \"#utility.yul\":7980:8036   */\n      mstore\n        /* \"#utility.yul\":8053:8071   */\n      0x64\n      add\n        /* \"SmartGrid.sol\":3903:3959  require(trade.status == 1, \"Trade not in correct state\") */\n      tag_72\n        /* \"#utility.yul\":7727:8077   */\n      jump\n        /* \"SmartGrid.sol\":3903:3959  require(trade.status == 1, \"Trade not in correct state\") */\n    tag_130:\n        /* \"SmartGrid.sol\":4023:4034  trade.buyer */\n      0x01\n      dup2\n      add\n      sload\n      sub(shl(0xa0, 0x01), 0x01)\n      and\n        /* \"SmartGrid.sol\":4038:4048  msg.sender */\n      caller\n        /* \"SmartGrid.sol\":4023:4048  trade.buyer == msg.sender */\n      eq\n        /* \"SmartGrid.sol\":4015:4086  require(trade.buyer == msg.sender, \"Not authorized: Must be the buyer\") */\n      tag_133\n      jumpi\n      mload(0x40)\n      shl(0xe5, 0x461bcd)\n      dup2\n      mstore\n        /* \"#utility.yul\":8284:8286   */\n      0x20\n        /* \"SmartGrid.sol\":4015:4086  require(trade.buyer == msg.sender, \"Not authorized: Must be the buyer\") */\n      0x04\n      dup3\n      add\n        /* \"#utility.yul\":8266:8287   */\n      mstore\n        /* \"#utility.yul\":8323:8325   */\n      0x21\n        /* \"#utility.yul\":8303:8321   */\n      0x24\n      dup3\n      add\n        /* \"#utility.yul\":8296:8326   */\n      mstore\n        /* \"#utility.yul\":8362:8396   */\n      0x4e6f7420617574686f72697a65643a204d757374206265207468652062757965\n        /* \"#utility.yul\":8342:8360   */\n      0x44\n      dup3\n      add\n        /* \"#utility.yul\":8335:8397   */\n      mstore\n      shl(0xf9, 0x39)\n        /* \"#utility.yul\":8413:8431   */\n      0x64\n      dup3\n      add\n        /* \"#utility.yul\":8406:8437   */\n      mstore\n        /* \"#utility.yul\":8454:8473   */\n      0x84\n      add\n        /* \"SmartGrid.sol\":4015:4086  require(trade.buyer == msg.sender, \"Not authorized: Must be the buyer\") */\n      tag_72\n        /* \"#utility.yul\":8082:8479   */\n      jump\n        /* \"SmartGrid.sol\":4015:4086  require(trade.buyer == msg.sender, \"Not authorized: Must be the buyer\") */\n    tag_133:\n        /* \"SmartGrid.sol\":4118:4123  trade */\n      dup1\n        /* \"SmartGrid.sol\":4118:4129  trade.price */\n      0x04\n      add\n      sload\n        /* \"SmartGrid.sol\":4105:4114  msg.value */\n      callvalue\n        /* \"SmartGrid.sol\":4105:4129  msg.value == trade.price */\n      eq\n        /* \"SmartGrid.sol\":4097:4158  require(msg.value == trade.price, \"Incorrect payment amount\") */\n      tag_136\n      jumpi\n      mload(0x40)\n      shl(0xe5, 0x461bcd)\n      dup2\n      mstore\n        /* \"#utility.yul\":8686:8688   */\n      0x20\n        /* \"SmartGrid.sol\":4097:4158  require(msg.value == trade.price, \"Incorrect payment amount\") */\n      0x04\n      dup3\n      add\n        /* \"#utility.yul\":8668:8689   */\n      mstore\n        /* \"#utility.yul\":8725:8727   */\n      0x18\n        /* \"#utility.yul\":8705:8723   */\n      0x24\n      dup3\n      add\n        /* \"#utility.yul\":8698:8728   */\n      mstore\n        /* \"#utility.yul\":8764:8790   */\n      0x496e636f7272656374207061796d656e7420616d6f756e740000000000000000\n        /* \"#utility.yul\":8744:8762   */\n      0x44\n      dup3\n      add\n        /* \"#utility.yul\":8737:8791   */\n      mstore\n        /* \"#utility.yul\":8808:8826   */\n      0x64\n      add\n        /* \"SmartGrid.sol\":4097:4158  require(msg.value == trade.price, \"Incorrect payment amount\") */\n      tag_72\n        /* \"#utility.yul\":8484:8832   */\n      jump\n        /* \"SmartGrid.sol\":4097:4158  require(msg.value == trade.price, \"Incorrect payment amount\") */\n    tag_136:\n        /* \"SmartGrid.sol\":4216:4234  trade.energyAmount */\n      0x03\n      dup2\n      add\n      sload\n        /* \"SmartGrid.sol\":4185:4197  trade.seller */\n      0x02\n      dup3\n      add\n      sload\n      sub(shl(0xa0, 0x01), 0x01)\n      and\n        /* \"SmartGrid.sol\":4179:4184  users */\n      0x00\n        /* \"SmartGrid.sol\":4179:4198  users[trade.seller] */\n      swap1\n      dup2\n      mstore\n      0x20\n      dup2\n      swap1\n      mstore\n      0x40\n      dup2\n      keccak256\n        /* \"SmartGrid.sol\":4179:4234  users[trade.seller].energyBalance -= trade.energyAmount */\n      dup1\n      sload\n        /* \"SmartGrid.sol\":4179:4198  users[trade.seller] */\n      swap1\n      swap2\n        /* \"SmartGrid.sol\":4179:4184  users */\n      swap1\n        /* \"SmartGrid.sol\":4179:4234  users[trade.seller].energyBalance -= trade.energyAmount */\n      tag_139\n      swap1\n        /* \"SmartGrid.sol\":4216:4234  trade.energyAmount */\n      dup5\n      swap1\n        /* \"SmartGrid.sol\":4179:4234  users[trade.seller].energyBalance -= trade.energyAmount */\n      tag_102\n      jump\t// in\n    tag_139:\n      swap1\n      swap2\n      sstore\n      pop\n      pop\n        /* \"SmartGrid.sol\":4281:4299  trade.energyAmount */\n      0x03\n      dup2\n      add\n      sload\n        /* \"SmartGrid.sol\":4251:4262  trade.buyer */\n      0x01\n      dup3\n      add\n      sload\n      sub(shl(0xa0, 0x01), 0x01)\n      and\n        /* \"SmartGrid.sol\":4245:4250  users */\n      0x00\n        /* \"SmartGrid.sol\":4245:4263  users[trade.buyer] */\n      swap1\n      dup2\n      mstore\n      0x20\n      dup2\n      swap1\n      mstore\n      0x40\n      dup2\n      keccak256\n        /* \"SmartGrid.sol\":4245:4299  users[trade.buyer].energyBalance += trade.energyAmount */\n      dup1\n      sload\n        /* \"SmartGrid.sol\":4245:4263  users[trade.buyer] */\n      swap1\n      swap2\n        /* \"SmartGrid.sol\":4245:4250  users */\n      swap1\n        /* \"SmartGrid.sol\":4245:4299  users[trade.buyer].energyBalance += trade.energyAmount */\n      tag_140\n      swap1\n        /* \"SmartGrid.sol\":4281:4299  trade.energyAmount */\n      dup5\n      swap1\n        /* \"SmartGrid.sol\":4245:4299  users[trade.buyer].energyBalance += trade.energyAmount */\n      tag_76\n      jump\t// in\n    tag_140:\n      swap1\n      swap2\n      sstore\n      pop\n      pop\n        /* \"SmartGrid.sol\":4318:4330  trade.seller */\n      0x02\n      dup2\n      add\n      sload\n        /* \"SmartGrid.sol\":4310:4351  payable(trade.seller).transfer(msg.value) */\n      mload(0x40)\n      sub(shl(0xa0, 0x01), 0x01)\n        /* \"SmartGrid.sol\":4318:4330  trade.seller */\n      swap1\n      swap2\n      and\n      swap1\n        /* \"SmartGrid.sol\":4341:4350  msg.value */\n      callvalue\n        /* \"SmartGrid.sol\":4310:4351  payable(trade.seller).transfer(msg.value) */\n      dup1\n      iszero\n      0x08fc\n      mul\n      swap2\n        /* \"SmartGrid.sol\":4318:4330  trade.seller */\n      0x00\n        /* \"SmartGrid.sol\":4310:4351  payable(trade.seller).transfer(msg.value) */\n      dup2\n        /* \"SmartGrid.sol\":4318:4330  trade.seller */\n      dup2\n        /* \"SmartGrid.sol\":4310:4351  payable(trade.seller).transfer(msg.value) */\n      dup2\n        /* \"SmartGrid.sol\":4341:4350  msg.value */\n      dup6\n        /* \"SmartGrid.sol\":4318:4330  trade.seller */\n      dup9\n        /* \"SmartGrid.sol\":4310:4351  payable(trade.seller).transfer(msg.value) */\n      dup9\n      call\n      swap4\n      pop\n      pop\n      pop\n      pop\n      iszero\n      dup1\n      iszero\n      tag_142\n      jumpi\n      returndatasize\n      0x00\n      dup1\n      returndatacopy\n      revert(0x00, returndatasize)\n    tag_142:\n      pop\n        /* \"SmartGrid.sol\":4379:4380  2 */\n      0x02\n        /* \"SmartGrid.sol\":4364:4376  trade.status */\n      0x05\n      dup3\n      add\n        /* \"SmartGrid.sol\":4364:4380  trade.status = 2 */\n      dup2\n      swap1\n      sstore\n        /* \"SmartGrid.sol\":4448:4459  trade.buyer */\n      0x01\n      dup3\n      add\n      sload\n        /* \"SmartGrid.sol\":4461:4473  trade.seller */\n      swap1\n      dup3\n      add\n      sload\n        /* \"SmartGrid.sol\":4475:4493  trade.energyAmount */\n      0x03\n      dup4\n      add\n      sload\n        /* \"SmartGrid.sol\":4423:4494  TradeCompleted(_tradeId, trade.buyer, trade.seller, trade.energyAmount) */\n      0x40\n      dup1\n      mload\n        /* \"#utility.yul\":9068:9093   */\n      dup7\n      dup2\n      mstore\n      sub(shl(0xa0, 0x01), 0x01)\n        /* \"SmartGrid.sol\":4448:4459  trade.buyer */\n      swap5\n      dup6\n      and\n        /* \"#utility.yul\":9185:9187   */\n      0x20\n        /* \"#utility.yul\":9170:9188   */\n      dup3\n      add\n        /* \"#utility.yul\":9163:9206   */\n      mstore\n        /* \"SmartGrid.sol\":4461:4473  trade.seller */\n      swap4\n      swap1\n      swap3\n      and\n        /* \"#utility.yul\":9222:9240   */\n      dup4\n      dup4\n      add\n        /* \"#utility.yul\":9215:9258   */\n      mstore\n        /* \"#utility.yul\":9289:9291   */\n      0x60\n        /* \"#utility.yul\":9274:9292   */\n      dup4\n      add\n        /* \"#utility.yul\":9267:9301   */\n      mstore\n        /* \"SmartGrid.sol\":4423:4494  TradeCompleted(_tradeId, trade.buyer, trade.seller, trade.energyAmount) */\n      mload\n      0xc5e52b7d7d074d930adb4855afb064491d2a14f05e80e13dc04fa0d54d19b95c\n      swap2\n      dup2\n      swap1\n      sub\n        /* \"#utility.yul\":9055:9058   */\n      0x80\n        /* \"SmartGrid.sol\":4423:4494  TradeCompleted(_tradeId, trade.buyer, trade.seller, trade.energyAmount) */\n      add\n      swap1\n      log1\n        /* \"SmartGrid.sol\":3843:4502  {... */\n      pop\n        /* \"SmartGrid.sol\":3768:4502  function acceptTrade(uint256 _tradeId) external payable onlyRegisteredUser {... */\n      pop\n      jump\t// out\n        /* \"#utility.yul\":14:194   */\n    tag_19:\n        /* \"#utility.yul\":73:79   */\n      0x00\n        /* \"#utility.yul\":126:128   */\n      0x20\n        /* \"#utility.yul\":114:123   */\n      dup3\n        /* \"#utility.yul\":105:112   */\n      dup5\n        /* \"#utility.yul\":101:124   */\n      sub\n        /* \"#utility.yul\":97:129   */\n      slt\n        /* \"#utility.yul\":94:146   */\n      iszero\n      tag_149\n      jumpi\n        /* \"#utility.yul\":142:143   */\n      0x00\n        /* \"#utility.yul\":139:140   */\n      dup1\n        /* \"#utility.yul\":132:144   */\n      revert\n        /* \"#utility.yul\":94:146   */\n    tag_149:\n      pop\n        /* \"#utility.yul\":165:188   */\n      calldataload\n      swap2\n        /* \"#utility.yul\":14:194   */\n      swap1\n      pop\n      jump\t// out\n        /* \"#utility.yul\":818:1014   */\n    tag_145:\n        /* \"#utility.yul\":886:906   */\n      dup1\n      calldataload\n      sub(shl(0xa0, 0x01), 0x01)\n        /* \"#utility.yul\":935:989   */\n      dup2\n      and\n        /* \"#utility.yul\":925:990   */\n      dup2\n      eq\n        /* \"#utility.yul\":915:1008   */\n      tag_152\n      jumpi\n        /* \"#utility.yul\":1004:1005   */\n      0x00\n        /* \"#utility.yul\":1001:1002   */\n      dup1\n        /* \"#utility.yul\":994:1006   */\n      revert\n        /* \"#utility.yul\":915:1008   */\n    tag_152:\n        /* \"#utility.yul\":818:1014   */\n      swap2\n      swap1\n      pop\n      jump\t// out\n        /* \"#utility.yul\":1019:1205   */\n    tag_30:\n        /* \"#utility.yul\":1078:1084   */\n      0x00\n        /* \"#utility.yul\":1131:1133   */\n      0x20\n        /* \"#utility.yul\":1119:1128   */\n      dup3\n        /* \"#utility.yul\":1110:1117   */\n      dup5\n        /* \"#utility.yul\":1106:1129   */\n      sub\n        /* \"#utility.yul\":1102:1134   */\n      slt\n        /* \"#utility.yul\":1099:1151   */\n      iszero\n      tag_154\n      jumpi\n        /* \"#utility.yul\":1147:1148   */\n      0x00\n        /* \"#utility.yul\":1144:1145   */\n      dup1\n        /* \"#utility.yul\":1137:1149   */\n      revert\n        /* \"#utility.yul\":1099:1151   */\n    tag_154:\n        /* \"#utility.yul\":1170:1199   */\n      tag_155\n        /* \"#utility.yul\":1189:1198   */\n      dup3\n        /* \"#utility.yul\":1170:1199   */\n      tag_145\n      jump\t// in\n    tag_155:\n        /* \"#utility.yul\":1160:1199   */\n      swap4\n        /* \"#utility.yul\":1019:1205   */\n      swap3\n      pop\n      pop\n      pop\n      jump\t// out\n        /* \"#utility.yul\":1210:2413   */\n    tag_36:\n        /* \"#utility.yul\":1423:1425   */\n      0x20\n        /* \"#utility.yul\":1475:1496   */\n      dup1\n      dup3\n      mstore\n        /* \"#utility.yul\":1545:1558   */\n      dup3\n      mload\n        /* \"#utility.yul\":1448:1466   */\n      dup3\n      dup3\n      add\n        /* \"#utility.yul\":1567:1589   */\n      dup2\n      swap1\n      mstore\n        /* \"#utility.yul\":1394:1398   */\n      0x00\n      swap2\n        /* \"#utility.yul\":1423:1425   */\n      swap1\n        /* \"#utility.yul\":1608:1610   */\n      0x40\n      swap1\n        /* \"#utility.yul\":1626:1644   */\n      dup2\n      dup6\n      add\n      swap1\n        /* \"#utility.yul\":1667:1682   */\n      dup7\n      dup5\n      add\n        /* \"#utility.yul\":1394:1398   */\n      dup6\n        /* \"#utility.yul\":1710:2387   */\n    tag_157:\n        /* \"#utility.yul\":1724:1730   */\n      dup3\n        /* \"#utility.yul\":1721:1722   */\n      dup2\n        /* \"#utility.yul\":1718:1731   */\n      lt\n        /* \"#utility.yul\":1710:2387   */\n      iszero\n      tag_159\n      jumpi\n        /* \"#utility.yul\":1783:1796   */\n      dup2\n      mload\n        /* \"#utility.yul\":1821:1830   */\n      dup1\n      mload\n        /* \"#utility.yul\":1809:1831   */\n      dup6\n      mstore\n        /* \"#utility.yul\":1870:1881   */\n      dup7\n      dup2\n      add\n        /* \"#utility.yul\":1864:1882   */\n      mload\n      sub(shl(0xa0, 0x01), 0x01)\n        /* \"#utility.yul\":1981:2002   */\n      swap1\n      dup2\n      and\n        /* \"#utility.yul\":1967:1979   */\n      dup9\n      dup8\n      add\n        /* \"#utility.yul\":1960:2003   */\n      mstore\n        /* \"#utility.yul\":2047:2058   */\n      dup7\n      dup3\n      add\n        /* \"#utility.yul\":2041:2059   */\n      mload\n        /* \"#utility.yul\":2037:2064   */\n      and\n        /* \"#utility.yul\":2023:2035   */\n      dup7\n      dup7\n      add\n        /* \"#utility.yul\":2016:2065   */\n      mstore\n        /* \"#utility.yul\":2088:2092   */\n      0x60\n        /* \"#utility.yul\":2132:2143   */\n      dup1\n      dup3\n      add\n        /* \"#utility.yul\":2126:2144   */\n      mload\n        /* \"#utility.yul\":2112:2124   */\n      swap1\n      dup7\n      add\n        /* \"#utility.yul\":2105:2145   */\n      mstore\n        /* \"#utility.yul\":2168:2172   */\n      0x80\n        /* \"#utility.yul\":2212:2223   */\n      dup1\n      dup3\n      add\n        /* \"#utility.yul\":2206:2224   */\n      mload\n        /* \"#utility.yul\":2192:2204   */\n      swap1\n      dup7\n      add\n        /* \"#utility.yul\":2185:2225   */\n      mstore\n        /* \"#utility.yul\":2248:2252   */\n      0xa0\n        /* \"#utility.yul\":2292:2303   */\n      swap1\n      dup2\n      add\n        /* \"#utility.yul\":2286:2304   */\n      mload\n        /* \"#utility.yul\":2272:2284   */\n      swap1\n      dup6\n      add\n        /* \"#utility.yul\":2265:2305   */\n      mstore\n        /* \"#utility.yul\":2334:2338   */\n      0xc0\n        /* \"#utility.yul\":2325:2339   */\n      swap1\n      swap4\n      add\n      swap3\n        /* \"#utility.yul\":2362:2377   */\n      swap1\n      dup6\n      add\n      swap1\n        /* \"#utility.yul\":1746:1747   */\n      0x01\n        /* \"#utility.yul\":1739:1748   */\n      add\n        /* \"#utility.yul\":1710:2387   */\n      jump(tag_157)\n    tag_159:\n      pop\n        /* \"#utility.yul\":2404:2407   */\n      swap2\n      swap8\n        /* \"#utility.yul\":1210:2413   */\n      swap7\n      pop\n      pop\n      pop\n      pop\n      pop\n      pop\n      pop\n      jump\t// out\n        /* \"#utility.yul\":2418:2740   */\n    tag_40:\n        /* \"#utility.yul\":2495:2501   */\n      0x00\n        /* \"#utility.yul\":2503:2509   */\n      dup1\n        /* \"#utility.yul\":2511:2517   */\n      0x00\n        /* \"#utility.yul\":2564:2566   */\n      0x60\n        /* \"#utility.yul\":2552:2561   */\n      dup5\n        /* \"#utility.yul\":2543:2550   */\n      dup7\n        /* \"#utility.yul\":2539:2562   */\n      sub\n        /* \"#utility.yul\":2535:2567   */\n      slt\n        /* \"#utility.yul\":2532:2584   */\n      iszero\n      tag_161\n      jumpi\n        /* \"#utility.yul\":2580:2581   */\n      0x00\n        /* \"#utility.yul\":2577:2578   */\n      dup1\n        /* \"#utility.yul\":2570:2582   */\n      revert\n        /* \"#utility.yul\":2532:2584   */\n    tag_161:\n        /* \"#utility.yul\":2603:2632   */\n      tag_162\n        /* \"#utility.yul\":2622:2631   */\n      dup5\n        /* \"#utility.yul\":2603:2632   */\n      tag_145\n      jump\t// in\n    tag_162:\n        /* \"#utility.yul\":2593:2632   */\n      swap6\n        /* \"#utility.yul\":2679:2681   */\n      0x20\n        /* \"#utility.yul\":2664:2682   */\n      dup6\n      add\n        /* \"#utility.yul\":2651:2683   */\n      calldataload\n      swap6\n      pop\n        /* \"#utility.yul\":2730:2732   */\n      0x40\n        /* \"#utility.yul\":2715:2733   */\n      swap1\n      swap5\n      add\n        /* \"#utility.yul\":2702:2734   */\n      calldataload\n      swap4\n        /* \"#utility.yul\":2418:2740   */\n      swap3\n      pop\n      pop\n      pop\n      jump\t// out\n        /* \"#utility.yul\":2927:3175   */\n    tag_50:\n        /* \"#utility.yul\":2995:3001   */\n      0x00\n        /* \"#utility.yul\":3003:3009   */\n      dup1\n        /* \"#utility.yul\":3056:3058   */\n      0x40\n        /* \"#utility.yul\":3044:3053   */\n      dup4\n        /* \"#utility.yul\":3035:3042   */\n      dup6\n        /* \"#utility.yul\":3031:3054   */\n      sub\n        /* \"#utility.yul\":3027:3059   */\n      slt\n        /* \"#utility.yul\":3024:3076   */\n      iszero\n      tag_165\n      jumpi\n        /* \"#utility.yul\":3072:3073   */\n      0x00\n        /* \"#utility.yul\":3069:3070   */\n      dup1\n        /* \"#utility.yul\":3062:3074   */\n      revert\n        /* \"#utility.yul\":3024:3076   */\n    tag_165:\n      pop\n      pop\n        /* \"#utility.yul\":3095:3118   */\n      dup1\n      calldataload\n      swap3\n        /* \"#utility.yul\":3165:3167   */\n      0x20\n        /* \"#utility.yul\":3150:3168   */\n      swap1\n      swap2\n      add\n        /* \"#utility.yul\":3137:3169   */\n      calldataload\n      swap2\n      pop\n        /* \"#utility.yul\":2927:3175   */\n      jump\t// out\n        /* \"#utility.yul\":3180:3434   */\n    tag_55:\n        /* \"#utility.yul\":3248:3254   */\n      0x00\n        /* \"#utility.yul\":3256:3262   */\n      dup1\n        /* \"#utility.yul\":3309:3311   */\n      0x40\n        /* \"#utility.yul\":3297:3306   */\n      dup4\n        /* \"#utility.yul\":3288:3295   */\n      dup6\n        /* \"#utility.yul\":3284:3307   */\n      sub\n        /* \"#utility.yul\":3280:3312   */\n      slt\n        /* \"#utility.yul\":3277:3329   */\n      iszero\n      tag_167\n      jumpi\n        /* \"#utility.yul\":3325:3326   */\n      0x00\n        /* \"#utility.yul\":3322:3323   */\n      dup1\n        /* \"#utility.yul\":3315:3327   */\n      revert\n        /* \"#utility.yul\":3277:3329   */\n    tag_167:\n        /* \"#utility.yul\":3348:3377   */\n      tag_168\n        /* \"#utility.yul\":3367:3376   */\n      dup4\n        /* \"#utility.yul\":3348:3377   */\n      tag_145\n      jump\t// in\n    tag_168:\n        /* \"#utility.yul\":3338:3377   */\n      swap5\n        /* \"#utility.yul\":3424:3426   */\n      0x20\n        /* \"#utility.yul\":3409:3427   */\n      swap4\n      swap1\n      swap4\n      add\n        /* \"#utility.yul\":3396:3428   */\n      calldataload\n      swap4\n      pop\n      pop\n      pop\n        /* \"#utility.yul\":3180:3434   */\n      jump\t// out\n        /* \"#utility.yul\":4116:4243   */\n    tag_146:\n        /* \"#utility.yul\":4177:4187   */\n      0x4e487b71\n        /* \"#utility.yul\":4172:4175   */\n      0xe0\n        /* \"#utility.yul\":4168:4188   */\n      shl\n        /* \"#utility.yul\":4165:4166   */\n      0x00\n        /* \"#utility.yul\":4158:4189   */\n      mstore\n        /* \"#utility.yul\":4208:4212   */\n      0x11\n        /* \"#utility.yul\":4205:4206   */\n      0x04\n        /* \"#utility.yul\":4198:4213   */\n      mstore\n        /* \"#utility.yul\":4232:4236   */\n      0x24\n        /* \"#utility.yul\":4229:4230   */\n      0x00\n        /* \"#utility.yul\":4222:4237   */\n      revert\n        /* \"#utility.yul\":4248:4373   */\n    tag_76:\n        /* \"#utility.yul\":4313:4322   */\n      dup1\n      dup3\n      add\n        /* \"#utility.yul\":4334:4344   */\n      dup1\n      dup3\n      gt\n        /* \"#utility.yul\":4331:4367   */\n      iszero\n      tag_174\n      jumpi\n        /* \"#utility.yul\":4347:4365   */\n      tag_174\n      tag_146\n      jump\t// in\n    tag_174:\n        /* \"#utility.yul\":4248:4373   */\n      swap3\n      swap2\n      pop\n      pop\n      jump\t// out\n        /* \"#utility.yul\":4726:4861   */\n    tag_84:\n        /* \"#utility.yul\":4765:4768   */\n      0x00\n        /* \"#utility.yul\":4786:4803   */\n      0x01\n      dup3\n      add\n        /* \"#utility.yul\":4783:4826   */\n      tag_178\n      jumpi\n        /* \"#utility.yul\":4806:4824   */\n      tag_178\n      tag_146\n      jump\t// in\n    tag_178:\n      pop\n        /* \"#utility.yul\":4853:4854   */\n      0x01\n        /* \"#utility.yul\":4842:4855   */\n      add\n      swap1\n        /* \"#utility.yul\":4726:4861   */\n      jump\t// out\n        /* \"#utility.yul\":5801:5929   */\n    tag_102:\n        /* \"#utility.yul\":5868:5877   */\n      dup2\n      dup2\n      sub\n        /* \"#utility.yul\":5889:5900   */\n      dup2\n      dup2\n      gt\n        /* \"#utility.yul\":5886:5923   */\n      iszero\n      tag_174\n      jumpi\n        /* \"#utility.yul\":5903:5921   */\n      tag_174\n      tag_146\n      jump\t// in\n        /* \"#utility.yul\":7595:7722   */\n    tag_128:\n        /* \"#utility.yul\":7656:7666   */\n      0x4e487b71\n        /* \"#utility.yul\":7651:7654   */\n      0xe0\n        /* \"#utility.yul\":7647:7667   */\n      shl\n        /* \"#utility.yul\":7644:7645   */\n      0x00\n        /* \"#utility.yul\":7637:7668   */\n      mstore\n        /* \"#utility.yul\":7687:7691   */\n      0x32\n        /* \"#utility.yul\":7684:7685   */\n      0x04\n        /* \"#utility.yul\":7677:7692   */\n      mstore\n        /* \"#utility.yul\":7711:7715   */\n      0x24\n        /* \"#utility.yul\":7708:7709   */\n      0x00\n        /* \"#utility.yul\":7701:7716   */\n      revert\n\n    auxdata: 0xa26469706673582212203a3f813e7f9a97816054dfd11a6fdaebea811b07f41471a78eaf939d4ac3517264736f6c63430008190033\n}\n",
    "bytecode": {
      "linkReferences": {},
      "object": "60806040525f6002553480156012575f80fd5b50610e6d806100205f395ff3fe6080604052600436106100b8575f3560e01c80634146682611610071578063a87430ba1161004c578063a87430ba146101f5578063bff1f9e11461024f578063ecb9fec314610264575f80fd5b8063414668261461019957806354baee6e146101b757806391228018146101d6575f80fd5b80632199d5cd116100a15780632199d5cd1461013a57806324d76e88146101595780633a412f6d1461017a575f80fd5b80630b6d83e2146100bc5780631e6c598e146100dd575b5f80fd5b3480156100c7575f80fd5b506100db6100d6366004610c7e565b610277565b005b3480156100e8575f80fd5b506100fc6100f7366004610c7e565b6102f4565b604080519687526001600160a01b03958616602088015293909416928501929092526060840152608083015260a082015260c0015b60405180910390f35b348015610145575f80fd5b506100db610154366004610cb0565b610345565b348015610164575f80fd5b5061016d610420565b6040516101319190610cd0565b348015610185575f80fd5b506100db610194366004610d53565b6104bf565b3480156101a4575f80fd5b506002545b604051908152602001610131565b3480156101c2575f80fd5b506100db6101d1366004610d83565b6106ac565b3480156101e1575f80fd5b506100db6101f0366004610da3565b61091e565b348015610200575f80fd5b5061023261020f366004610cb0565b5f6020819052908152604090208054600182015460029092015490919060ff1683565b604080519384526020840192909252151590820152606001610131565b34801561025a575f80fd5b506101a960025481565b6100db610272366004610c7e565b6109e1565b335f9081526020819052604090206002015460ff166102ce5760405162461bcd60e51b815260206004820152600e60248201526d139bdd08185d5d1a1bdc9a5e995960921b60448201526064015b60405180910390fd5b335f90815260208190526040812080548392906102ec908490610ddf565b909155505050565b60018181548110610303575f80fd5b5f9182526020909120600690910201805460018201546002830154600384015460048501546005909501549395506001600160a01b0392831694919092169286565b335f9081526020819052604090206002015460ff16156103a75760405162461bcd60e51b815260206004820152601360248201527f5573657220616c7265616479206578697374730000000000000000000000000060448201526064016102c5565b335f90815260208190526040812081815560018082018390556002918201805460ff191690911790558054916103dc83610df8565b90915550506040516001600160a01b03821681527f6bda722b0c3246f6ab28656c881bcc965fcfa5819f23788ac625429a6fcae7a49060200160405180910390a150565b60606001805480602002602001604051908101604052809291908181526020015f905b828210156104b6575f8481526020908190206040805160c08101825260068602909201805483526001808201546001600160a01b03908116858701526002830154169284019290925260038101546060840152600481015460808401526005015460a08301529083529092019101610443565b50505050905090565b335f9081526020819052604090206002015460ff166105205760405162461bcd60e51b815260206004820152601360248201527f55736572206e6f7420726567697374657265640000000000000000000000000060448201526064016102c5565b335f8181526020819052604090205483908111156105805760405162461bcd60e51b815260206004820152601b60248201527f496e73756666696369656e7420656e657267792062616c616e6365000000000060448201526064016102c5565b6001600160a01b038581165f81815260208181526040808320815160c0810183526003918201805480835233838701908152948301978852606083018d8152608084018d8152600160a086018181528185018655948a5297909820935160069092029093019081559351848601805473ffffffffffffffffffffffffffffffffffffffff19908116928b16929092179055965160028501805490981698169790971790955593519381019390935590516004830155915160059091015580547fb49c9d0668685521cfe9022716f47715021b432aa2a7a938789c78c370ebace39161066a91610e10565b604080519182523360208301526001600160a01b038816908201526060810186905260808101859052600160a082015260c00160405180910390a15050505050565b335f9081526020819052604090206002015460ff166106fe5760405162461bcd60e51b815260206004820152600e60248201526d139bdd08185d5d1a1bdc9a5e995960921b60448201526064016102c5565b335f81815260208190526040902054839081111561075e5760405162461bcd60e51b815260206004820152601b60248201527f496e73756666696369656e7420656e657267792062616c616e6365000000000060448201526064016102c5565b6040805160c081018252600180548083525f6020840181815233958501958652606085018a8152608086018a815260a0870184815285870187559386905295517fb10e2d527612073b26eecdfd717e6a320cf44b4afac2b0732d9fcbe2b7fa0cf660069095029485015590517fb10e2d527612073b26eecdfd717e6a320cf44b4afac2b0732d9fcbe2b7fa0cf78401805473ffffffffffffffffffffffffffffffffffffffff199081166001600160a01b039384161790915596517fb10e2d527612073b26eecdfd717e6a320cf44b4afac2b0732d9fcbe2b7fa0cf88501805490981691161790955593517fb10e2d527612073b26eecdfd717e6a320cf44b4afac2b0732d9fcbe2b7fa0cf982015591517fb10e2d527612073b26eecdfd717e6a320cf44b4afac2b0732d9fcbe2b7fa0cfa83015591517fb10e2d527612073b26eecdfd717e6a320cf44b4afac2b0732d9fcbe2b7fa0cfb9091015580547fb49c9d0668685521cfe9022716f47715021b432aa2a7a938789c78c370ebace3916108e791610e10565b604080519182525f602083018190523383830152606083018890526080830187905260a0830152519081900360c00190a150505050565b6001600160a01b0382165f9081526020819052604090206002015460ff166109ae5760405162461bcd60e51b815260206004820152602660248201527f4f6e6c792070726f6475636572732063616e206561726e20636172626f6e206360448201527f726564697473000000000000000000000000000000000000000000000000000060648201526084016102c5565b6001600160a01b0382165f90815260208190526040812060010180548392906109d8908490610ddf565b90915550505050565b335f9081526020819052604090206002015460ff16610a425760405162461bcd60e51b815260206004820152601360248201527f55736572206e6f7420726567697374657265640000000000000000000000000060448201526064016102c5565b5f60018281548110610a5657610a56610e23565b905f5260205f20906006020190508060050154600114610ab85760405162461bcd60e51b815260206004820152601a60248201527f5472616465206e6f7420696e20636f727265637420737461746500000000000060448201526064016102c5565b60018101546001600160a01b03163314610b1e5760405162461bcd60e51b815260206004820152602160248201527f4e6f7420617574686f72697a65643a204d7573742062652074686520627579656044820152603960f91b60648201526084016102c5565b80600401543414610b715760405162461bcd60e51b815260206004820152601860248201527f496e636f7272656374207061796d656e7420616d6f756e74000000000000000060448201526064016102c5565b600381015460028201546001600160a01b03165f9081526020819052604081208054909190610ba1908490610e10565b9091555050600381015460018201546001600160a01b03165f9081526020819052604081208054909190610bd6908490610ddf565b909155505060028101546040516001600160a01b03909116903480156108fc02915f818181858888f19350505050158015610c13573d5f803e3d5ffd5b506002600582018190556001820154908201546003830154604080518681526001600160a01b03948516602082015293909216838301526060830152517fc5e52b7d7d074d930adb4855afb064491d2a14f05e80e13dc04fa0d54d19b95c9181900360800190a15050565b5f60208284031215610c8e575f80fd5b5035919050565b80356001600160a01b0381168114610cab575f80fd5b919050565b5f60208284031215610cc0575f80fd5b610cc982610c95565b9392505050565b602080825282518282018190525f919060409081850190868401855b82811015610d4657815180518552868101516001600160a01b0390811688870152868201511686860152606080820151908601526080808201519086015260a0908101519085015260c09093019290850190600101610cec565b5091979650505050505050565b5f805f60608486031215610d65575f80fd5b610d6e84610c95565b95602085013595506040909401359392505050565b5f8060408385031215610d94575f80fd5b50508035926020909101359150565b5f8060408385031215610db4575f80fd5b610dbd83610c95565b946020939093013593505050565b634e487b7160e01b5f52601160045260245ffd5b80820180821115610df257610df2610dcb565b92915050565b5f60018201610e0957610e09610dcb565b5060010190565b81810381811115610df257610df2610dcb565b634e487b7160e01b5f52603260045260245ffdfea26469706673582212203a3f813e7f9a97816054dfd11a6fdaebea811b07f41471a78eaf939d4ac3517264736f6c63430008190033",
      "opcodes": "PUSH1 0x80 PUSH1 0x40 MSTORE PUSH0 PUSH1 0x2 SSTORE CALLVALUE DUP1 ISZERO PUSH1 0x12 JUMPI PUSH0 DUP1 REVERT JUMPDEST POP PUSH2 0xE6D DUP1 PUSH2 0x20 PUSH0 CODECOPY PUSH0 RETURN INVALID PUSH1 0x80 PUSH1 0x40 MSTORE PUSH1 0x4 CALLDATASIZE LT PUSH2 0xB8 JUMPI PUSH0 CALLDATALOAD PUSH1 0xE0 SHR DUP1 PUSH4 0x41466826 GT PUSH2 0x71 JUMPI DUP1 PUSH4 0xA87430BA GT PUSH2 0x4C JUMPI DUP1 PUSH4 0xA87430BA EQ PUSH2 0x1F5 JUMPI DUP1 PUSH4 0xBFF1F9E1 EQ PUSH2 0x24F JUMPI DUP1 PUSH4 0xECB9FEC3 EQ PUSH2 0x264 JUMPI PUSH0 DUP1 REVERT JUMPDEST DUP1 PUSH4 0x41466826 EQ PUSH2 0x199 JUMPI DUP1 PUSH4 0x54BAEE6E EQ PUSH2 0x1B7 JUMPI DUP1 PUSH4 0x91228018 EQ PUSH2 0x1D6 JUMPI PUSH0 DUP1 REVERT JUMPDEST DUP1 PUSH4 0x2199D5CD GT PUSH2 0xA1 JUMPI DUP1 PUSH4 0x2199D5CD EQ PUSH2 0x13A JUMPI DUP1 PUSH4 0x24D76E88 EQ PUSH2 0x159 JUMPI DUP1 PUSH4 0x3A412F6D EQ PUSH2 0x17A JUMPI PUSH0 DUP1 REVERT JUMPDEST DUP1 PUSH4 0xB6D83E2 EQ PUSH2 0xBC JUMPI DUP1 PUSH4 0x1E6C598E EQ PUSH2 0xDD JUMPI JUMPDEST PUSH0 DUP1 REVERT JUMPDEST CALLVALUE DUP1 ISZERO PUSH2 0xC7 JUMPI PUSH0 DUP1 REVERT JUMPDEST POP PUSH2 0xDB PUSH2 0xD6 CALLDATASIZE PUSH1 0x4 PUSH2 0xC7E JUMP JUMPDEST PUSH2 0x277 JUMP JUMPDEST STOP JUMPDEST CALLVALUE DUP1 ISZERO PUSH2 0xE8 JUMPI PUSH0 DUP1 REVERT JUMPDEST POP PUSH2 0xFC PUSH2 0xF7 CALLDATASIZE PUSH1 0x4 PUSH2 0xC7E JUMP JUMPDEST PUSH2 0x2F4 JUMP JUMPDEST PUSH1 0x40 DUP1 MLOAD SWAP7 DUP8 MSTORE PUSH1 0x1 PUSH1 0x1 PUSH1 0xA0 SHL SUB SWAP6 DUP7 AND PUSH1 0x20 DUP9 ADD MSTORE SWAP4 SWAP1 SWAP5 AND SWAP3 DUP6 ADD SWAP3 SWAP1 SWAP3 MSTORE PUSH1 0x60 DUP5 ADD MSTORE PUSH1 0x80 DUP4 ADD MSTORE PUSH1 0xA0 DUP3 ADD MSTORE PUSH1 0xC0 ADD JUMPDEST PUSH1 0x40 MLOAD DUP1 SWAP2 SUB SWAP1 RETURN JUMPDEST CALLVALUE DUP1 ISZERO PUSH2 0x145 JUMPI PUSH0 DUP1 REVERT JUMPDEST POP PUSH2 0xDB PUSH2 0x154 CALLDATASIZE PUSH1 0x4 PUSH2 0xCB0 JUMP JUMPDEST PUSH2 0x345 JUMP JUMPDEST CALLVALUE DUP1 ISZERO PUSH2 0x164 JUMPI PUSH0 DUP1 REVERT JUMPDEST POP PUSH2 0x16D PUSH2 0x420 JUMP JUMPDEST PUSH1 0x40 MLOAD PUSH2 0x131 SWAP2 SWAP1 PUSH2 0xCD0 JUMP JUMPDEST CALLVALUE DUP1 ISZERO PUSH2 0x185 JUMPI PUSH0 DUP1 REVERT JUMPDEST POP PUSH2 0xDB PUSH2 0x194 CALLDATASIZE PUSH1 0x4 PUSH2 0xD53 JUMP JUMPDEST PUSH2 0x4BF JUMP JUMPDEST CALLVALUE DUP1 ISZERO PUSH2 0x1A4 JUMPI PUSH0 DUP1 REVERT JUMPDEST POP PUSH1 0x2 SLOAD JUMPDEST PUSH1 0x40 MLOAD SWAP1 DUP2 MSTORE PUSH1 0x20 ADD PUSH2 0x131 JUMP JUMPDEST CALLVALUE DUP1 ISZERO PUSH2 0x1C2 JUMPI PUSH0 DUP1 REVERT JUMPDEST POP PUSH2 0xDB PUSH2 0x1D1 CALLDATASIZE PUSH1 0x4 PUSH2 0xD83 JUMP JUMPDEST PUSH2 0x6AC JUMP JUMPDEST CALLVALUE DUP1 ISZERO PUSH2 0x1E1 JUMPI PUSH0 DUP1 REVERT JUMPDEST POP PUSH2 0xDB PUSH2 0x1F0 CALLDATASIZE PUSH1 0x4 PUSH2 0xDA3 JUMP JUMPDEST PUSH2 0x91E JUMP JUMPDEST CALLVALUE DUP1 ISZERO PUSH2 0x200 JUMPI PUSH0 DUP1 REVERT JUMPDEST POP PUSH2 0x232 PUSH2 0x20F CALLDATASIZE PUSH1 0x4 PUSH2 0xCB0 JUMP JUMPDEST PUSH0 PUSH1 0x20 DUP2 SWAP1 MSTORE SWAP1 DUP2 MSTORE PUSH1 0x40 SWAP1 KECCAK256 DUP1 SLOAD PUSH1 0x1 DUP3 ADD SLOAD PUSH1 0x2 SWAP1 SWAP3 ADD SLOAD SWAP1 SWAP2 SWAP1 PUSH1 0xFF AND DUP4 JUMP JUMPDEST PUSH1 0x40 DUP1 MLOAD SWAP4 DUP5 MSTORE PUSH1 0x20 DUP5 ADD SWAP3 SWAP1 SWAP3 MSTORE ISZERO ISZERO SWAP1 DUP3 ADD MSTORE PUSH1 0x60 ADD PUSH2 0x131 JUMP JUMPDEST CALLVALUE DUP1 ISZERO PUSH2 0x25A JUMPI PUSH0 DUP1 REVERT JUMPDEST POP PUSH2 0x1A9 PUSH1 0x2 SLOAD DUP2 JUMP JUMPDEST PUSH2 0xDB PUSH2 0x272 CALLDATASIZE PUSH1 0x4 PUSH2 0xC7E JUMP JUMPDEST PUSH2 0x9E1 JUMP JUMPDEST CALLER PUSH0 SWAP1 DUP2 MSTORE PUSH1 0x20 DUP2 SWAP1 MSTORE PUSH1 0x40 SWAP1 KECCAK256 PUSH1 0x2 ADD SLOAD PUSH1 0xFF AND PUSH2 0x2CE JUMPI PUSH1 0x40 MLOAD PUSH3 0x461BCD PUSH1 0xE5 SHL DUP2 MSTORE PUSH1 0x20 PUSH1 0x4 DUP3 ADD MSTORE PUSH1 0xE PUSH1 0x24 DUP3 ADD MSTORE PUSH14 0x139BDD08185D5D1A1BDC9A5E9959 PUSH1 0x92 SHL PUSH1 0x44 DUP3 ADD MSTORE PUSH1 0x64 ADD JUMPDEST PUSH1 0x40 MLOAD DUP1 SWAP2 SUB SWAP1 REVERT JUMPDEST CALLER PUSH0 SWAP1 DUP2 MSTORE PUSH1 0x20 DUP2 SWAP1 MSTORE PUSH1 0x40 DUP2 KECCAK256 DUP1 SLOAD DUP4 SWAP3 SWAP1 PUSH2 0x2EC SWAP1 DUP5 SWAP1 PUSH2 0xDDF JUMP JUMPDEST SWAP1 SWAP2 SSTORE POP POP POP JUMP JUMPDEST PUSH1 0x1 DUP2 DUP2 SLOAD DUP2 LT PUSH2 0x303 JUMPI PUSH0 DUP1 REVERT JUMPDEST PUSH0 SWAP2 DUP3 MSTORE PUSH1 0x20 SWAP1 SWAP2 KECCAK256 PUSH1 0x6 SWAP1 SWAP2 MUL ADD DUP1 SLOAD PUSH1 0x1 DUP3 ADD SLOAD PUSH1 0x2 DUP4 ADD SLOAD PUSH1 0x3 DUP5 ADD SLOAD PUSH1 0x4 DUP6 ADD SLOAD PUSH1 0x5 SWAP1 SWAP6 ADD SLOAD SWAP4 SWAP6 POP PUSH1 0x1 PUSH1 0x1 PUSH1 0xA0 SHL SUB SWAP3 DUP4 AND SWAP5 SWAP2 SWAP1 SWAP3 AND SWAP3 DUP7 JUMP JUMPDEST CALLER PUSH0 SWAP1 DUP2 MSTORE PUSH1 0x20 DUP2 SWAP1 MSTORE PUSH1 0x40 SWAP1 KECCAK256 PUSH1 0x2 ADD SLOAD PUSH1 0xFF AND ISZERO PUSH2 0x3A7 JUMPI PUSH1 0x40 MLOAD PUSH3 0x461BCD PUSH1 0xE5 SHL DUP2 MSTORE PUSH1 0x20 PUSH1 0x4 DUP3 ADD MSTORE PUSH1 0x13 PUSH1 0x24 DUP3 ADD MSTORE PUSH32 0x5573657220616C72656164792065786973747300000000000000000000000000 PUSH1 0x44 DUP3 ADD MSTORE PUSH1 0x64 ADD PUSH2 0x2C5 JUMP JUMPDEST CALLER PUSH0 SWAP1 DUP2 MSTORE PUSH1 0x20 DUP2 SWAP1 MSTORE PUSH1 0x40 DUP2 KECCAK256 DUP2 DUP2 SSTORE PUSH1 0x1 DUP1 DUP3 ADD DUP4 SWAP1 SSTORE PUSH1 0x2 SWAP2 DUP3 ADD DUP1 SLOAD PUSH1 0xFF NOT AND SWAP1 SWAP2 OR SWAP1 SSTORE DUP1 SLOAD SWAP2 PUSH2 0x3DC DUP4 PUSH2 0xDF8 JUMP JUMPDEST SWAP1 SWAP2 SSTORE POP POP PUSH1 0x40 MLOAD PUSH1 0x1 PUSH1 0x1 PUSH1 0xA0 SHL SUB DUP3 AND DUP2 MSTORE PUSH32 0x6BDA722B0C3246F6AB28656C881BCC965FCFA5819F23788AC625429A6FCAE7A4 SWAP1 PUSH1 0x20 ADD PUSH1 0x40 MLOAD DUP1 SWAP2 SUB SWAP1 LOG1 POP JUMP JUMPDEST PUSH1 0x60 PUSH1 0x1 DUP1 SLOAD DUP1 PUSH1 0x20 MUL PUSH1 0x20 ADD PUSH1 0x40 MLOAD SWAP1 DUP2 ADD PUSH1 0x40 MSTORE DUP1 SWAP3 SWAP2 SWAP1 DUP2 DUP2 MSTORE PUSH1 0x20 ADD PUSH0 SWAP1 JUMPDEST DUP3 DUP3 LT ISZERO PUSH2 0x4B6 JUMPI PUSH0 DUP5 DUP2 MSTORE PUSH1 0x20 SWAP1 DUP2 SWAP1 KECCAK256 PUSH1 0x40 DUP1 MLOAD PUSH1 0xC0 DUP2 ADD DUP3 MSTORE PUSH1 0x6 DUP7 MUL SWAP1 SWAP3 ADD DUP1 SLOAD DUP4 MSTORE PUSH1 0x1 DUP1 DUP3 ADD SLOAD PUSH1 0x1 PUSH1 0x1 PUSH1 0xA0 SHL SUB SWAP1 DUP2 AND DUP6 DUP8 ADD MSTORE PUSH1 0x2 DUP4 ADD SLOAD AND SWAP3 DUP5 ADD SWAP3 SWAP1 SWAP3 MSTORE PUSH1 0x3 DUP2 ADD SLOAD PUSH1 0x60 DUP5 ADD MSTORE PUSH1 0x4 DUP2 ADD SLOAD PUSH1 0x80 DUP5 ADD MSTORE PUSH1 0x5 ADD SLOAD PUSH1 0xA0 DUP4 ADD MSTORE SWAP1 DUP4 MSTORE SWAP1 SWAP3 ADD SWAP2 ADD PUSH2 0x443 JUMP JUMPDEST POP POP POP POP SWAP1 POP SWAP1 JUMP JUMPDEST CALLER PUSH0 SWAP1 DUP2 MSTORE PUSH1 0x20 DUP2 SWAP1 MSTORE PUSH1 0x40 SWAP1 KECCAK256 PUSH1 0x2 ADD SLOAD PUSH1 0xFF AND PUSH2 0x520 JUMPI PUSH1 0x40 MLOAD PUSH3 0x461BCD PUSH1 0xE5 SHL DUP2 MSTORE PUSH1 0x20 PUSH1 0x4 DUP3 ADD MSTORE PUSH1 0x13 PUSH1 0x24 DUP3 ADD MSTORE PUSH32 0x55736572206E6F74207265676973746572656400000000000000000000000000 PUSH1 0x44 DUP3 ADD MSTORE PUSH1 0x64 ADD PUSH2 0x2C5 JUMP JUMPDEST CALLER PUSH0 DUP2 DUP2 MSTORE PUSH1 0x20 DUP2 SWAP1 MSTORE PUSH1 0x40 SWAP1 KECCAK256 SLOAD DUP4 SWAP1 DUP2 GT ISZERO PUSH2 0x580 JUMPI PUSH1 0x40 MLOAD PUSH3 0x461BCD PUSH1 0xE5 SHL DUP2 MSTORE PUSH1 0x20 PUSH1 0x4 DUP3 ADD MSTORE PUSH1 0x1B PUSH1 0x24 DUP3 ADD MSTORE PUSH32 0x496E73756666696369656E7420656E657267792062616C616E63650000000000 PUSH1 0x44 DUP3 ADD MSTORE PUSH1 0x64 ADD PUSH2 0x2C5 JUMP JUMPDEST PUSH1 0x1 PUSH1 0x1 PUSH1 0xA0 SHL SUB DUP6 DUP2 AND PUSH0 DUP2 DUP2 MSTORE PUSH1 0x20 DUP2 DUP2 MSTORE PUSH1 0x40 DUP1 DUP4 KECCAK256 DUP2 MLOAD PUSH1 0xC0 DUP2 ADD DUP4 MSTORE PUSH1 0x3 SWAP2 DUP3 ADD DUP1 SLOAD DUP1 DUP4 MSTORE CALLER DUP4 DUP8 ADD SWAP1 DUP2 MSTORE SWAP5 DUP4 ADD SWAP8 DUP9 MSTORE PUSH1 0x60 DUP4 ADD DUP14 DUP2 MSTORE PUSH1 0x80 DUP5 ADD DUP14 DUP2 MSTORE PUSH1 0x1 PUSH1 0xA0 DUP7 ADD DUP2 DUP2 MSTORE DUP2 DUP6 ADD DUP7 SSTORE SWAP5 DUP11 MSTORE SWAP8 SWAP1 SWAP9 KECCAK256 SWAP4 MLOAD PUSH1 0x6 SWAP1 SWAP3 MUL SWAP1 SWAP4 ADD SWAP1 DUP2 SSTORE SWAP4 MLOAD DUP5 DUP7 ADD DUP1 SLOAD PUSH20 0xFFFFFFFFFFFFFFFFFFFFFFFFFFFFFFFFFFFFFFFF NOT SWAP1 DUP2 AND SWAP3 DUP12 AND SWAP3 SWAP1 SWAP3 OR SWAP1 SSTORE SWAP7 MLOAD PUSH1 0x2 DUP6 ADD DUP1 SLOAD SWAP1 SWAP9 AND SWAP9 AND SWAP8 SWAP1 SWAP8 OR SWAP1 SWAP6 SSTORE SWAP4 MLOAD SWAP4 DUP2 ADD SWAP4 SWAP1 SWAP4 SSTORE SWAP1 MLOAD PUSH1 0x4 DUP4 ADD SSTORE SWAP2 MLOAD PUSH1 0x5 SWAP1 SWAP2 ADD SSTORE DUP1 SLOAD PUSH32 0xB49C9D0668685521CFE9022716F47715021B432AA2A7A938789C78C370EBACE3 SWAP2 PUSH2 0x66A SWAP2 PUSH2 0xE10 JUMP JUMPDEST PUSH1 0x40 DUP1 MLOAD SWAP2 DUP3 MSTORE CALLER PUSH1 0x20 DUP4 ADD MSTORE PUSH1 0x1 PUSH1 0x1 PUSH1 0xA0 SHL SUB DUP9 AND SWAP1 DUP3 ADD MSTORE PUSH1 0x60 DUP2 ADD DUP7 SWAP1 MSTORE PUSH1 0x80 DUP2 ADD DUP6 SWAP1 MSTORE PUSH1 0x1 PUSH1 0xA0 DUP3 ADD MSTORE PUSH1 0xC0 ADD PUSH1 0x40 MLOAD DUP1 SWAP2 SUB SWAP1 LOG1 POP POP POP POP POP JUMP JUMPDEST CALLER PUSH0 SWAP1 DUP2 MSTORE PUSH1 0x20 DUP2 SWAP1 MSTORE PUSH1 0x40 SWAP1 KECCAK256 PUSH1 0x2 ADD SLOAD PUSH1 0xFF AND PUSH2 0x6FE JUMPI PUSH1 0x40 MLOAD PUSH3 0x461BCD PUSH1 0xE5 SHL DUP2 MSTORE PUSH1 0x20 PUSH1 0x4 DUP3 ADD MSTORE PUSH1 0xE PUSH1 0x24 DUP3 ADD MSTORE PUSH14 0x139BDD08185D5D1A1BDC9A5E9959 PUSH1 0x92 SHL PUSH1 0x44 DUP3 ADD MSTORE PUSH1 0x64 ADD PUSH2 0x2C5 JUMP JUMPDEST CALLER PUSH0 DUP2 DUP2 MSTORE PUSH1 0x20 DUP2 SWAP1 MSTORE PUSH1 0x40 SWAP1 KECCAK256 SLOAD DUP4 SWAP1 DUP2 GT ISZERO PUSH2 0x75E JUMPI PUSH1 0x40 MLOAD PUSH3 0x461BCD PUSH1 0xE5 SHL DUP2 MSTORE PUSH1 0x20 PUSH1 0x4 DUP3 ADD MSTORE PUSH1 0x1B PUSH1 0x24 DUP3 ADD MSTORE PUSH32 0x496E73756666696369656E7420656E657267792062616C616E63650000000000 PUSH1 0x44 DUP3 ADD MSTORE PUSH1 0x64 ADD PUSH2 0x2C5 JUMP JUMPDEST PUSH1 0x40 DUP1 MLOAD PUSH1 0xC0 DUP2 ADD DUP3 MSTORE PUSH1 0x1 DUP1 SLOAD DUP1 DUP4 MSTORE PUSH0 PUSH1 0x20 DUP5 ADD DUP2 DUP2 MSTORE CALLER SWAP6 DUP6 ADD SWAP6 DUP7 MSTORE PUSH1 0x60 DUP6 ADD DUP11 DUP2 MSTORE PUSH1 0x80 DUP7 ADD DUP11 DUP2 MSTORE PUSH1 0xA0 DUP8 ADD DUP5 DUP2 MSTORE DUP6 DUP8 ADD DUP8 SSTORE SWAP4 DUP7 SWAP1 MSTORE SWAP6 MLOAD PUSH32 0xB10E2D527612073B26EECDFD717E6A320CF44B4AFAC2B0732D9FCBE2B7FA0CF6 PUSH1 0x6 SWAP1 SWAP6 MUL SWAP5 DUP6 ADD SSTORE SWAP1 MLOAD PUSH32 0xB10E2D527612073B26EECDFD717E6A320CF44B4AFAC2B0732D9FCBE2B7FA0CF7 DUP5 ADD DUP1 SLOAD PUSH20 0xFFFFFFFFFFFFFFFFFFFFFFFFFFFFFFFFFFFFFFFF NOT SWAP1 DUP2 AND PUSH1 0x1 PUSH1 0x1 PUSH1 0xA0 SHL SUB SWAP4 DUP5 AND OR SWAP1 SWAP2 SSTORE SWAP7 MLOAD PUSH32 0xB10E2D527612073B26EECDFD717E6A320CF44B4AFAC2B0732D9FCBE2B7FA0CF8 DUP6 ADD DUP1 SLOAD SWAP1 SWAP9 AND SWAP2 AND OR SWAP1 SWAP6 SSTORE SWAP4 MLOAD PUSH32 0xB10E2D527612073B26EECDFD717E6A320CF44B4AFAC2B0732D9FCBE2B7FA0CF9 DUP3 ADD SSTORE SWAP2 MLOAD PUSH32 0xB10E2D527612073B26EECDFD717E6A320CF44B4AFAC2B0732D9FCBE2B7FA0CFA DUP4 ADD SSTORE SWAP2 MLOAD PUSH32 0xB10E2D527612073B26EECDFD717E6A320CF44B4AFAC2B0732D9FCBE2B7FA0CFB SWAP1 SWAP2 ADD SSTORE DUP1 SLOAD PUSH32 0xB49C9D0668685521CFE9022716F47715021B432AA2A7A938789C78C370EBACE3 SWAP2 PUSH2 0x8E7 SWAP2 PUSH2 0xE10 JUMP JUMPDEST PUSH1 0x40 DUP1 MLOAD SWAP2 DUP3 MSTORE PUSH0 PUSH1 0x20 DUP4 ADD DUP2 SWAP1 MSTORE CALLER DUP4 DUP4 ADD MSTORE PUSH1 0x60 DUP4 ADD DUP9 SWAP1 MSTORE PUSH1 0x80 DUP4 ADD DUP8 SWAP1 MSTORE PUSH1 0xA0 DUP4 ADD MSTORE MLOAD SWAP1 DUP2 SWAP1 SUB PUSH1 0xC0 ADD SWAP1 LOG1 POP POP POP POP JUMP JUMPDEST PUSH1 0x1 PUSH1 0x1 PUSH1 0xA0 SHL SUB DUP3 AND PUSH0 SWAP1 DUP2 MSTORE PUSH1 0x20 DUP2 SWAP1 MSTORE PUSH1 0x40 SWAP1 KECCAK256 PUSH1 0x2 ADD SLOAD PUSH1 0xFF AND PUSH2 0x9AE JUMPI PUSH1 0x40 MLOAD PUSH3 0x461BCD PUSH1 0xE5 SHL DUP2 MSTORE PUSH1 0x20 PUSH1 0x4 DUP3 ADD MSTORE PUSH1 0x26 PUSH1 0x24 DUP3 ADD MSTORE PUSH32 0x4F6E6C792070726F6475636572732063616E206561726E20636172626F6E2063 PUSH1 0x44 DUP3 ADD MSTORE PUSH32 0x7265646974730000000000000000000000000000000000000000000000000000 PUSH1 0x64 DUP3 ADD MSTORE PUSH1 0x84 ADD PUSH2 0x2C5 JUMP JUMPDEST PUSH1 0x1 PUSH1 0x1 PUSH1 0xA0 SHL SUB DUP3 AND PUSH0 SWAP1 DUP2 MSTORE PUSH1 0x20 DUP2 SWAP1 MSTORE PUSH1 0x40 DUP2 KECCAK256 PUSH1 0x1 ADD DUP1 SLOAD DUP4 SWAP3 SWAP1 PUSH2 0x9D8 SWAP1 DUP5 SWAP1 PUSH2 0xDDF JUMP JUMPDEST SWAP1 SWAP2 SSTORE POP POP POP POP JUMP JUMPDEST CALLER PUSH0 SWAP1 DUP2 MSTORE PUSH1 0x20 DUP2 SWAP1 MSTORE PUSH1 0x40 SWAP1 KECCAK256 PUSH1 0x2 ADD SLOAD PUSH1 0xFF AND PUSH2 0xA42 JUMPI PUSH1 0x40 MLOAD PUSH3 0x461BCD PUSH1 0xE5 SHL DUP2 MSTORE PUSH1 0x20 PUSH1 0x4 DUP3 ADD MSTORE PUSH1 0x13 PUSH1 0x24 DUP3 ADD MSTORE PUSH32 0x55736572206E6F74207265676973746572656400000000000000000000000000 PUSH1 0x44 DUP3 ADD MSTORE PUSH1 0x64 ADD PUSH2 0x2C5 JUMP JUMPDEST PUSH0 PUSH1 0x1 DUP3 DUP2 SLOAD DUP2 LT PUSH2 0xA56 JUMPI PUSH2 0xA56 PUSH2 0xE23 JUMP JUMPDEST SWAP1 PUSH0 MSTORE PUSH1 0x20 PUSH0 KECCAK256 SWAP1 PUSH1 0x6 MUL ADD SWAP1 POP DUP1 PUSH1 0x5 ADD SLOAD PUSH1 0x1 EQ PUSH2 0xAB8 JUMPI PUSH1 0x40 MLOAD PUSH3 0x461BCD PUSH1 0xE5 SHL DUP2 MSTORE PUSH1 0x20 PUSH1 0x4 DUP3 ADD MSTORE PUSH1 0x1A PUSH1 0x24 DUP3 ADD MSTORE PUSH32 0x5472616465206E6F7420696E20636F7272656374207374617465000000000000 PUSH1 0x44 DUP3 ADD MSTORE PUSH1 0x64 ADD PUSH2 0x2C5 JUMP JUMPDEST PUSH1 0x1 DUP2 ADD SLOAD PUSH1 0x1 PUSH1 0x1 PUSH1 0xA0 SHL SUB AND CALLER EQ PUSH2 0xB1E JUMPI PUSH1 0x40 MLOAD PUSH3 0x461BCD PUSH1 0xE5 SHL DUP2 MSTORE PUSH1 0x20 PUSH1 0x4 DUP3 ADD MSTORE PUSH1 0x21 PUSH1 0x24 DUP3 ADD MSTORE PUSH32 0x4E6F7420617574686F72697A65643A204D757374206265207468652062757965 PUSH1 0x44 DUP3 ADD MSTORE PUSH1 0x39 PUSH1 0xF9 SHL PUSH1 0x64 DUP3 ADD MSTORE PUSH1 0x84 ADD PUSH2 0x2C5 JUMP JUMPDEST DUP1 PUSH1 0x4 ADD SLOAD CALLVALUE EQ PUSH2 0xB71 JUMPI PUSH1 0x40 MLOAD PUSH3 0x461BCD PUSH1 0xE5 SHL DUP2 MSTORE PUSH1 0x20 PUSH1 0x4 DUP3 ADD MSTORE PUSH1 0x18 PUSH1 0x24 DUP3 ADD MSTORE PUSH32 0x496E636F7272656374207061796D656E7420616D6F756E740000000000000000 PUSH1 0x44 DUP3 ADD MSTORE PUSH1 0x64 ADD PUSH2 0x2C5 JUMP JUMPDEST PUSH1 0x3 DUP2 ADD SLOAD PUSH1 0x2 DUP3 ADD SLOAD PUSH1 0x1 PUSH1 0x1 PUSH1 0xA0 SHL SUB AND PUSH0 SWAP1 DUP2 MSTORE PUSH1 0x20 DUP2 SWAP1 MSTORE PUSH1 0x40 DUP2 KECCAK256 DUP1 SLOAD SWAP1 SWAP2 SWAP1 PUSH2 0xBA1 SWAP1 DUP5 SWAP1 PUSH2 0xE10 JUMP JUMPDEST SWAP1 SWAP2 SSTORE POP POP PUSH1 0x3 DUP2 ADD SLOAD PUSH1 0x1 DUP3 ADD SLOAD PUSH1 0x1 PUSH1 0x1 PUSH1 0xA0 SHL SUB AND PUSH0 SWAP1 DUP2 MSTORE PUSH1 0x20 DUP2 SWAP1 MSTORE PUSH1 0x40 DUP2 KECCAK256 DUP1 SLOAD SWAP1 SWAP2 SWAP1 PUSH2 0xBD6 SWAP1 DUP5 SWAP1 PUSH2 0xDDF JUMP JUMPDEST SWAP1 SWAP2 SSTORE POP POP PUSH1 0x2 DUP2 ADD SLOAD PUSH1 0x40 MLOAD PUSH1 0x1 PUSH1 0x1 PUSH1 0xA0 SHL SUB SWAP1 SWAP2 AND SWAP1 CALLVALUE DUP1 ISZERO PUSH2 0x8FC MUL SWAP2 PUSH0 DUP2 DUP2 DUP2 DUP6 DUP9 DUP9 CALL SWAP4 POP POP POP POP ISZERO DUP1 ISZERO PUSH2 0xC13 JUMPI RETURNDATASIZE PUSH0 DUP1 RETURNDATACOPY RETURNDATASIZE PUSH0 REVERT JUMPDEST POP PUSH1 0x2 PUSH1 0x5 DUP3 ADD DUP2 SWAP1 SSTORE PUSH1 0x1 DUP3 ADD SLOAD SWAP1 DUP3 ADD SLOAD PUSH1 0x3 DUP4 ADD SLOAD PUSH1 0x40 DUP1 MLOAD DUP7 DUP2 MSTORE PUSH1 0x1 PUSH1 0x1 PUSH1 0xA0 SHL SUB SWAP5 DUP6 AND PUSH1 0x20 DUP3 ADD MSTORE SWAP4 SWAP1 SWAP3 AND DUP4 DUP4 ADD MSTORE PUSH1 0x60 DUP4 ADD MSTORE MLOAD PUSH32 0xC5E52B7D7D074D930ADB4855AFB064491D2A14F05E80E13DC04FA0D54D19B95C SWAP2 DUP2 SWAP1 SUB PUSH1 0x80 ADD SWAP1 LOG1 POP POP JUMP JUMPDEST PUSH0 PUSH1 0x20 DUP3 DUP5 SUB SLT ISZERO PUSH2 0xC8E JUMPI PUSH0 DUP1 REVERT JUMPDEST POP CALLDATALOAD SWAP2 SWAP1 POP JUMP JUMPDEST DUP1 CALLDATALOAD PUSH1 0x1 PUSH1 0x1 PUSH1 0xA0 SHL SUB DUP2 AND DUP2 EQ PUSH2 0xCAB JUMPI PUSH0 DUP1 REVERT JUMPDEST SWAP2 SWAP1 POP JUMP JUMPDEST PUSH0 PUSH1 0x20 DUP3 DUP5 SUB SLT ISZERO PUSH2 0xCC0 JUMPI PUSH0 DUP1 REVERT JUMPDEST PUSH2 0xCC9 DUP3 PUSH2 0xC95 JUMP JUMPDEST SWAP4 SWAP3 POP POP POP JUMP JUMPDEST PUSH1 0x20 DUP1 DUP3 MSTORE DUP3 MLOAD DUP3 DUP3 ADD DUP2 SWAP1 MSTORE PUSH0 SWAP2 SWAP1 PUSH1 0x40 SWAP1 DUP2 DUP6 ADD SWAP1 DUP7 DUP5 ADD DUP6 JUMPDEST DUP3 DUP2 LT ISZERO PUSH2 0xD46 JUMPI DUP2 MLOAD DUP1 MLOAD DUP6 MSTORE DUP7 DUP2 ADD MLOAD PUSH1 0x1 PUSH1 0x1 PUSH1 0xA0 SHL SUB SWAP1 DUP2 AND DUP9 DUP8 ADD MSTORE DUP7 DUP3 ADD MLOAD AND DUP7 DUP7 ADD MSTORE PUSH1 0x60 DUP1 DUP3 ADD MLOAD SWAP1 DUP7 ADD MSTORE PUSH1 0x80 DUP1 DUP3 ADD MLOAD SWAP1 DUP7 ADD MSTORE PUSH1 0xA0 SWAP1 DUP2 ADD MLOAD SWAP1 DUP6 ADD MSTORE PUSH1 0xC0 SWAP1 SWAP4 ADD SWAP3 SWAP1 DUP6 ADD SWAP1 PUSH1 0x1 ADD PUSH2 0xCEC JUMP JUMPDEST POP SWAP2 SWAP8 SWAP7 POP POP POP POP POP POP POP JUMP JUMPDEST PUSH0 DUP1 PUSH0 PUSH1 0x60 DUP5 DUP7 SUB SLT ISZERO PUSH2 0xD65 JUMPI PUSH0 DUP1 REVERT JUMPDEST PUSH2 0xD6E DUP5 PUSH2 0xC95 JUMP JUMPDEST SWAP6 PUSH1 0x20 DUP6 ADD CALLDATALOAD SWAP6 POP PUSH1 0x40 SWAP1 SWAP5 ADD CALLDATALOAD SWAP4 SWAP3 POP POP POP JUMP JUMPDEST PUSH0 DUP1 PUSH1 0x40 DUP4 DUP6 SUB SLT ISZERO PUSH2 0xD94 JUMPI PUSH0 DUP1 REVERT JUMPDEST POP POP DUP1 CALLDATALOAD SWAP3 PUSH1 0x20 SWAP1 SWAP2 ADD CALLDATALOAD SWAP2 POP JUMP JUMPDEST PUSH0 DUP1 PUSH1 0x40 DUP4 DUP6 SUB SLT ISZERO PUSH2 0xDB4 JUMPI PUSH0 DUP1 REVERT JUMPDEST PUSH2 0xDBD DUP4 PUSH2 0xC95 JUMP JUMPDEST SWAP5 PUSH1 0x20 SWAP4 SWAP1 SWAP4 ADD CALLDATALOAD SWAP4 POP POP POP JUMP JUMPDEST PUSH4 0x4E487B71 PUSH1 0xE0 SHL PUSH0 MSTORE PUSH1 0x11 PUSH1 0x4 MSTORE PUSH1 0x24 PUSH0 REVERT JUMPDEST DUP1 DUP3 ADD DUP1 DUP3 GT ISZERO PUSH2 0xDF2 JUMPI PUSH2 0xDF2 PUSH2 0xDCB JUMP JUMPDEST SWAP3 SWAP2 POP POP JUMP JUMPDEST PUSH0 PUSH1 0x1 DUP3 ADD PUSH2 0xE09 JUMPI PUSH2 0xE09 PUSH2 0xDCB JUMP JUMPDEST POP PUSH1 0x1 ADD SWAP1 JUMP JUMPDEST DUP2 DUP2 SUB DUP2 DUP2 GT ISZERO PUSH2 0xDF2 JUMPI PUSH2 0xDF2 PUSH2 0xDCB JUMP JUMPDEST PUSH4 0x4E487B71 PUSH1 0xE0 SHL PUSH0 MSTORE PUSH1 0x32 PUSH1 0x4 MSTORE PUSH1 0x24 PUSH0 REVERT INVALID LOG2 PUSH5 0x6970667358 0x22 SLT KECCAK256 GASPRICE EXTCODEHASH DUP2 RETURNDATACOPY PUSH32 0x9A97816054DFD11A6FDAEBEA811B07F41471A78EAF939D4AC3517264736F6C63 NUMBER STOP ADDMOD NOT STOP CALLER "
    },
    "gasEstimates": {
      "creation": {
        "codeDepositCost": "738600",
        "executionCost": "5776",
        "totalCost": "744376"
      },
      "external": {
        "acceptTrade(uint256)": "infinite",
        "getNoOfUser()": "2303",
        "getallTrades()": "infinite",
        "produceEnergy(uint256)": "26817",
        "putTrade(uint256,uint256)": "153571",
        "registerUser(address)": "62214",
        "requestTrade(address,uint256,uint256)": "170968",
        "rewardCarbonCredits(address,uint256)": "27008",
        "totalUsers()": "2338",
        "trades(uint256)": "15340",
        "users(address)": "6828"
      }
    },
    "methodIdentifiers": {
      "acceptTrade(uint256)": "ecb9fec3",
      "getNoOfUser()": "41466826",
      "getallTrades()": "24d76e88",
      "produceEnergy(uint256)": "0b6d83e2",
      "putTrade(uint256,uint256)": "54baee6e",
      "registerUser(address)": "2199d5cd",
      "requestTrade(address,uint256,uint256)": "3a412f6d",
      "rewardCarbonCredits(address,uint256)": "91228018",
      "totalUsers()": "bff1f9e1",
      "trades(uint256)": "1e6c598e",
      "users(address)": "a87430ba"
    }
  },
  "storageLayout": {
    "storage": [
      {
        "astId": 31,
        "contract": "SmartGrid.sol:SmartGrid",
        "label": "users",
        "offset": 0,
        "slot": "0",
        "type": "t_mapping(t_address,t_struct(User)13_storage)"
      },
      {
        "astId": 35,
        "contract": "SmartGrid.sol:SmartGrid",
        "label": "trades",
        "offset": 0,
        "slot": "1",
        "type": "t_array(t_struct(Trade)26_storage)dyn_storage"
      },
      {
        "astId": 38,
        "contract": "SmartGrid.sol:SmartGrid",
        "label": "totalUsers",
        "offset": 0,
        "slot": "2",
        "type": "t_uint256"
      }
    ],
    "types": {
      "t_address": {
        "encoding": "inplace",
        "label": "address",
        "numberOfBytes": "20"
      },
      "t_array(t_struct(Trade)26_storage)dyn_storage": {
        "base": "t_struct(Trade)26_storage",
        "encoding": "dynamic_array",
        "label": "struct SmartGrid.Trade[]",
        "numberOfBytes": "32"
      },
      "t_bool": {
        "encoding": "inplace",
        "label": "bool",
        "numberOfBytes": "1"
      },
      "t_mapping(t_address,t_struct(User)13_storage)": {
        "encoding": "mapping",
        "key": "t_address",
        "label": "mapping(address => struct SmartGrid.User)",
        "numberOfBytes": "32",
        "value": "t_struct(User)13_storage"
      },
      "t_struct(Trade)26_storage": {
        "encoding": "inplace",
        "label": "struct SmartGrid.Trade",
        "members": [
          {
            "astId": 15,
            "contract": "SmartGrid.sol:SmartGrid",
            "label": "tradeId",
            "offset": 0,
            "slot": "0",
            "type": "t_uint256"
          },
          {
            "astId": 17,
            "contract": "SmartGrid.sol:SmartGrid",
            "label": "buyer",
            "offset": 0,
            "slot": "1",
            "type": "t_address"
          },
          {
            "astId": 19,
            "contract": "SmartGrid.sol:SmartGrid",
            "label": "seller",
            "offset": 0,
            "slot": "2",
            "type": "t_address"
          },
          {
            "astId": 21,
            "contract": "SmartGrid.sol:SmartGrid",
            "label": "energyAmount",
            "offset": 0,
            "slot": "3",
            "type": "t_uint256"
          },
          {
            "astId": 23,
            "contract": "SmartGrid.sol:SmartGrid",
            "label": "price",
            "offset": 0,
            "slot": "4",
            "type": "t_uint256"
          },
          {
            "astId": 25,
            "contract": "SmartGrid.sol:SmartGrid",
            "label": "status",
            "offset": 0,
            "slot": "5",
            "type": "t_uint256"
          }
        ],
        "numberOfBytes": "192"
      },
      "t_struct(User)13_storage": {
        "encoding": "inplace",
        "label": "struct SmartGrid.User",
        "members": [
          {
            "astId": 4,
            "contract": "SmartGrid.sol:SmartGrid",
            "label": "energyBalance",
            "offset": 0,
            "slot": "0",
            "type": "t_uint256"
          },
          {
            "astId": 6,
            "contract": "SmartGrid.sol:SmartGrid",
            "label": "carbonCredits",
            "offset": 0,
            "slot": "1",
            "type": "t_uint256"
          },
          {
            "astId": 8,
            "contract": "SmartGrid.sol:SmartGrid",
            "label": "isUser",
            "offset": 0,
            "slot": "2",
            "type": "t_bool"
          },
          {
            "astId": 12,
            "contract": "SmartGrid.sol:SmartGrid",
            "label": "TradeList",
            "offset": 0,
            "slot": "3",
            "type": "t_array(t_struct(Trade)26_storage)dyn_storage"
          }
        ],
        "numberOfBytes": "128"
      },
      "t_uint256": {
        "encoding": "inplace",
        "label": "uint256",
        "numberOfBytes": "32"
      }
    }
  },
  "userdoc": {
    "kind": "user",
    "methods": {},
    "version": 1
  }
}