{
  "abi": [
    {
      "inputs": [],
      "stateMutability": "nonpayable",
      "type": "constructor"
    },
    {
      "anonymous": false,
      "inputs": [
        {
          "indexed": false,
          "internalType": "uint256",
          "name": "newPrice",
          "type": "uint256"
        }
      ],
      "name": "CurrentPriceUpdated",
      "type": "event"
    },
    {
      "anonymous": false,
      "inputs": [
        {
          "indexed": false,
          "internalType": "address",
          "name": "buyer",
          "type": "address"
        },
        {
          "indexed": false,
          "internalType": "address",
          "name": "seller",
          "type": "address"
        },
        {
          "indexed": false,
          "internalType": "uint256",
          "name": "price",
          "type": "uint256"
        },
        {
          "indexed": false,
          "internalType": "uint256",
          "name": "quantity",
          "type": "uint256"
        }
      ],
      "name": "OrderMatched",
      "type": "event"
    },
    {
      "anonymous": false,
      "inputs": [
        {
          "indexed": false,
          "internalType": "address",
          "name": "user",
          "type": "address"
        },
        {
          "indexed": false,
          "internalType": "uint256",
          "name": "price",
          "type": "uint256"
        },
        {
          "indexed": false,
          "internalType": "uint256",
          "name": "quantity",
          "type": "uint256"
        },
        {
          "indexed": false,
          "internalType": "bool",
          "name": "isBuyOrder",
          "type": "bool"
        }
      ],
      "name": "OrderPlaced",
      "type": "event"
    },
    {
      "inputs": [
        {
          "internalType": "address",
          "name": "",
          "type": "address"
        }
      ],
      "name": "balances",
      "outputs": [
        {
          "internalType": "uint256",
          "name": "",
          "type": "uint256"
        }
      ],
      "stateMutability": "view",
      "type": "function"
    },
    {
      "inputs": [
        {
          "internalType": "uint256",
          "name": "",
          "type": "uint256"
        },
        {
          "internalType": "uint256",
          "name": "",
          "type": "uint256"
        }
      ],
      "name": "buyOrderBuckets",
      "outputs": [
        {
          "internalType": "address",
          "name": "user",
          "type": "address"
        },
        {
          "internalType": "uint256",
          "name": "quantity",
          "type": "uint256"
        },
        {
          "internalType": "uint256",
          "name": "timestamp",
          "type": "uint256"
        }
      ],
      "stateMutability": "view",
      "type": "function"
    },
    {
      "inputs": [],
      "name": "currentPrice",
      "outputs": [
        {
          "internalType": "uint256",
          "name": "",
          "type": "uint256"
        }
      ],
      "stateMutability": "view",
      "type": "function"
    },
    {
      "inputs": [
        {
          "internalType": "uint256",
          "name": "amount",
          "type": "uint256"
        }
      ],
      "name": "depositEnergy",
      "outputs": [],
      "stateMutability": "nonpayable",
      "type": "function"
    },
    {
      "inputs": [
        {
          "internalType": "uint256",
          "name": "price",
          "type": "uint256"
        }
      ],
      "name": "getBuyOrders",
      "outputs": [
        {
          "components": [
            {
              "internalType": "address",
              "name": "user",
              "type": "address"
            },
            {
              "internalType": "uint256",
              "name": "quantity",
              "type": "uint256"
            },
            {
              "internalType": "uint256",
              "name": "timestamp",
              "type": "uint256"
            }
          ],
          "internalType": "struct EnergyTrading.Order[]",
          "name": "",
          "type": "tuple[]"
        }
      ],
      "stateMutability": "view",
      "type": "function"
    },
    {
      "inputs": [],
      "name": "getCurrentPrice",
      "outputs": [
        {
          "internalType": "uint256",
          "name": "",
          "type": "uint256"
        }
      ],
      "stateMutability": "view",
      "type": "function"
    },
    {
      "inputs": [
        {
          "internalType": "uint256",
          "name": "price",
          "type": "uint256"
        }
      ],
      "name": "getSellOrders",
      "outputs": [
        {
          "components": [
            {
              "internalType": "address",
              "name": "user",
              "type": "address"
            },
            {
              "internalType": "uint256",
              "name": "quantity",
              "type": "uint256"
            },
            {
              "internalType": "uint256",
              "name": "timestamp",
              "type": "uint256"
            }
          ],
          "internalType": "struct EnergyTrading.Order[]",
          "name": "",
          "type": "tuple[]"
        }
      ],
      "stateMutability": "view",
      "type": "function"
    },
    {
      "inputs": [
        {
          "internalType": "uint256",
          "name": "price",
          "type": "uint256"
        },
        {
          "internalType": "uint256",
          "name": "quantity",
          "type": "uint256"
        },
        {
          "internalType": "bool",
          "name": "isBuyOrder",
          "type": "bool"
        }
      ],
      "name": "placeOrder",
      "outputs": [],
      "stateMutability": "nonpayable",
      "type": "function"
    },
    {
      "inputs": [
        {
          "internalType": "uint256",
          "name": "",
          "type": "uint256"
        },
        {
          "internalType": "uint256",
          "name": "",
          "type": "uint256"
        }
      ],
      "name": "sellOrderBuckets",
      "outputs": [
        {
          "internalType": "address",
          "name": "user",
          "type": "address"
        },
        {
          "internalType": "uint256",
          "name": "quantity",
          "type": "uint256"
        },
        {
          "internalType": "uint256",
          "name": "timestamp",
          "type": "uint256"
        }
      ],
      "stateMutability": "view",
      "type": "function"
    },
    {
      "inputs": [
        {
          "internalType": "uint256",
          "name": "amount",
          "type": "uint256"
        }
      ],
      "name": "withdrawEnergy",
      "outputs": [],
      "stateMutability": "nonpayable",
      "type": "function"
    }
  ],
  "devdoc": {
    "kind": "dev",
    "methods": {},
    "version": 1
  },
  "evm": {
    "assembly": "    /* \"Trading.sol\":60:4481  contract EnergyTrading {... */\n  mstore(0x40, 0x80)\n    /* \"Trading.sol\":837:910  constructor() {... */\n  callvalue\n  dup1\n  iszero\n  tag_1\n  jumpi\n  0x00\n  dup1\n  revert\ntag_1:\n  pop\n    /* \"Trading.sol\":877:878  0 */\n  0x00\n    /* \"Trading.sol\":862:874  currentPrice */\n  0x03\n    /* \"Trading.sol\":862:878  currentPrice = 0 */\n  sstore\n    /* \"Trading.sol\":60:4481  contract EnergyTrading {... */\n  dataSize(sub_0)\n  dup1\n  dataOffset(sub_0)\n  0x00\n  codecopy\n  0x00\n  return\nstop\n\nsub_0: assembly {\n        /* \"Trading.sol\":60:4481  contract EnergyTrading {... */\n      mstore(0x40, 0x80)\n      callvalue\n      dup1\n      iszero\n      tag_1\n      jumpi\n      0x00\n      dup1\n      revert\n    tag_1:\n      pop\n      jumpi(tag_2, lt(calldatasize, 0x04))\n      shr(0xe0, calldataload(0x00))\n      dup1\n      0x9d1b464a\n      gt\n      tag_13\n      jumpi\n      dup1\n      0xbd2d447d\n      gt\n      tag_14\n      jumpi\n      dup1\n      0xbd2d447d\n      eq\n      tag_10\n      jumpi\n      dup1\n      0xcf48e4f7\n      eq\n      tag_11\n      jumpi\n      dup1\n      0xeb91d37e\n      eq\n      tag_12\n      jumpi\n      0x00\n      dup1\n      revert\n    tag_14:\n      dup1\n      0x9d1b464a\n      eq\n      tag_8\n      jumpi\n      dup1\n      0xaecdb7f3\n      eq\n      tag_9\n      jumpi\n      0x00\n      dup1\n      revert\n    tag_13:\n      dup1\n      0x338faaa6\n      gt\n      tag_15\n      jumpi\n      dup1\n      0x338faaa6\n      eq\n      tag_5\n      jumpi\n      dup1\n      0x5362fe7b\n      eq\n      tag_6\n      jumpi\n      dup1\n      0x68564f53\n      eq\n      tag_7\n      jumpi\n      0x00\n      dup1\n      revert\n    tag_15:\n      dup1\n      0x1ba0e2ed\n      eq\n      tag_3\n      jumpi\n      dup1\n      0x27e235e3\n      eq\n      tag_4\n      jumpi\n    tag_2:\n      0x00\n      dup1\n      revert\n        /* \"Trading.sol\":319:369  mapping(uint256 => Order[]) public buyOrderBuckets */\n    tag_3:\n      tag_16\n      tag_17\n      calldatasize\n      0x04\n      tag_18\n      jump\t// in\n    tag_17:\n      tag_19\n      jump\t// in\n    tag_16:\n      0x40\n      dup1\n      mload\n      sub(shl(0xa0, 0x01), 0x01)\n        /* \"#utility.yul\":487:542   */\n      swap1\n      swap5\n      and\n        /* \"#utility.yul\":469:543   */\n      dup5\n      mstore\n        /* \"#utility.yul\":574:576   */\n      0x20\n        /* \"#utility.yul\":559:577   */\n      dup5\n      add\n        /* \"#utility.yul\":552:586   */\n      swap3\n      swap1\n      swap3\n      mstore\n        /* \"#utility.yul\":602:620   */\n      swap1\n      dup3\n      add\n        /* \"#utility.yul\":595:629   */\n      mstore\n        /* \"#utility.yul\":457:459   */\n      0x60\n        /* \"#utility.yul\":442:460   */\n      add\n        /* \"Trading.sol\":319:369  mapping(uint256 => Order[]) public buyOrderBuckets */\n    tag_20:\n      mload(0x40)\n      dup1\n      swap2\n      sub\n      swap1\n      return\n        /* \"Trading.sol\":436:479  mapping(address => uint256) public balances */\n    tag_4:\n      tag_22\n      tag_23\n      calldatasize\n      0x04\n      tag_24\n      jump\t// in\n    tag_23:\n      mstore(0x20, 0x02)\n      0x00\n      swap1\n      dup2\n      mstore\n      0x40\n      swap1\n      keccak256\n      sload\n      dup2\n      jump\n    tag_22:\n      mload(0x40)\n        /* \"#utility.yul\":1100:1125   */\n      swap1\n      dup2\n      mstore\n        /* \"#utility.yul\":1088:1090   */\n      0x20\n        /* \"#utility.yul\":1073:1091   */\n      add\n        /* \"Trading.sol\":436:479  mapping(address => uint256) public balances */\n      tag_20\n        /* \"#utility.yul\":954:1131   */\n      jump\n        /* \"Trading.sol\":4198:4324  function getSellOrders(uint256 price) external view returns (Order[] memory) {... */\n    tag_5:\n      tag_28\n      tag_29\n      calldatasize\n      0x04\n      tag_30\n      jump\t// in\n    tag_29:\n      tag_31\n      jump\t// in\n    tag_28:\n      mload(0x40)\n      tag_20\n      swap2\n      swap1\n      tag_33\n      jump\t// in\n        /* \"Trading.sol\":3590:3687  function depositEnergy(uint256 amount) external {... */\n    tag_6:\n      tag_34\n      tag_35\n      calldatasize\n      0x04\n      tag_30\n      jump\t// in\n    tag_35:\n      tag_36\n      jump\t// in\n    tag_34:\n      stop\n        /* \"Trading.sol\":376:427  mapping(uint256 => Order[]) public sellOrderBuckets */\n    tag_7:\n      tag_16\n      tag_38\n      calldatasize\n      0x04\n      tag_18\n      jump\t// in\n    tag_38:\n      tag_39\n      jump\t// in\n        /* \"Trading.sol\":513:540  uint256 public currentPrice */\n    tag_8:\n      tag_22\n      sload(0x03)\n      dup2\n      jump\n        /* \"Trading.sol\":3997:4121  function getBuyOrders(uint256 price) external view returns (Order[] memory) {... */\n    tag_9:\n      tag_28\n      tag_45\n      calldatasize\n      0x04\n      tag_30\n      jump\t// in\n    tag_45:\n      tag_46\n      jump\t// in\n        /* \"Trading.sol\":955:1792  function placeOrder(uint256 price, uint256 quantity, bool isBuyOrder) external {... */\n    tag_10:\n      tag_34\n      tag_49\n      calldatasize\n      0x04\n      tag_50\n      jump\t// in\n    tag_49:\n      tag_51\n      jump\t// in\n        /* \"Trading.sol\":3749:3921  function withdrawEnergy(uint256 amount) external {... */\n    tag_11:\n      tag_34\n      tag_53\n      calldatasize\n      0x04\n      tag_30\n      jump\t// in\n    tag_53:\n      tag_54\n      jump\t// in\n        /* \"Trading.sol\":4381:4478  function getCurrentPrice() external view returns (uint256) {... */\n    tag_12:\n        /* \"Trading.sol\":4458:4470  currentPrice */\n      sload(0x03)\n        /* \"Trading.sol\":4381:4478  function getCurrentPrice() external view returns (uint256) {... */\n      jump(tag_22)\n        /* \"Trading.sol\":319:369  mapping(uint256 => Order[]) public buyOrderBuckets */\n    tag_19:\n      mstore(0x20, 0x00)\n      dup2\n      0x00\n      mstore\n      keccak256(0x00, 0x40)\n      dup2\n      dup2\n      sload\n      dup2\n      lt\n      tag_58\n      jumpi\n      0x00\n      dup1\n      revert\n    tag_58:\n      0x00\n      swap2\n      dup3\n      mstore\n      0x20\n      swap1\n      swap2\n      keccak256\n      0x03\n      swap1\n      swap2\n      mul\n      add\n      dup1\n      sload\n      0x01\n      dup3\n      add\n      sload\n      0x02\n      swap1\n      swap3\n      add\n      sload\n      sub(shl(0xa0, 0x01), 0x01)\n      swap1\n      swap2\n      and\n      swap4\n      pop\n      swap1\n      swap2\n      pop\n      dup4\n      jump\t// out\n        /* \"Trading.sol\":4198:4324  function getSellOrders(uint256 price) external view returns (Order[] memory) {... */\n    tag_31:\n        /* \"Trading.sol\":4259:4273  Order[] memory */\n      0x60\n        /* \"Trading.sol\":4293:4309  sellOrderBuckets */\n      0x01\n        /* \"Trading.sol\":4293:4316  sellOrderBuckets[price] */\n      0x00\n        /* \"Trading.sol\":4310:4315  price */\n      dup4\n        /* \"Trading.sol\":4293:4316  sellOrderBuckets[price] */\n      dup2\n      mstore\n      0x20\n      add\n      swap1\n      dup2\n      mstore\n      0x20\n      add\n      0x00\n      keccak256\n        /* \"Trading.sol\":4286:4316  return sellOrderBuckets[price] */\n      dup1\n      sload\n      dup1\n      0x20\n      mul\n      0x20\n      add\n      mload(0x40)\n      swap1\n      dup2\n      add\n      0x40\n      mstore\n      dup1\n      swap3\n      swap2\n      swap1\n      dup2\n      dup2\n      mstore\n      0x20\n      add\n      0x00\n      swap1\n    tag_61:\n      dup3\n      dup3\n      lt\n      iszero\n      tag_62\n      jumpi\n      0x00\n      dup5\n      dup2\n      mstore\n      0x20\n      swap1\n      dup2\n      swap1\n      keccak256\n      0x40\n      dup1\n      mload\n      0x60\n      dup2\n      add\n      dup3\n      mstore\n      0x03\n      dup7\n      mul\n      swap1\n      swap3\n      add\n      dup1\n      sload\n      sub(shl(0xa0, 0x01), 0x01)\n      and\n      dup4\n      mstore\n      0x01\n      dup1\n      dup3\n      add\n      sload\n      dup5\n      dup7\n      add\n      mstore\n      0x02\n      swap1\n      swap2\n      add\n      sload\n      swap2\n      dup4\n      add\n      swap2\n      swap1\n      swap2\n      mstore\n      swap1\n      dup4\n      mstore\n      swap1\n      swap3\n      add\n      swap2\n      add\n      jump(tag_61)\n    tag_62:\n      pop\n      pop\n      pop\n      pop\n      swap1\n      pop\n        /* \"Trading.sol\":4198:4324  function getSellOrders(uint256 price) external view returns (Order[] memory) {... */\n      swap2\n      swap1\n      pop\n      jump\t// out\n        /* \"Trading.sol\":3590:3687  function depositEnergy(uint256 amount) external {... */\n    tag_36:\n        /* \"Trading.sol\":3658:3668  msg.sender */\n      caller\n        /* \"Trading.sol\":3649:3669  balances[msg.sender] */\n      0x00\n      swap1\n      dup2\n      mstore\n        /* \"Trading.sol\":3649:3657  balances */\n      0x02\n        /* \"Trading.sol\":3649:3669  balances[msg.sender] */\n      0x20\n      mstore\n      0x40\n      dup2\n      keccak256\n        /* \"Trading.sol\":3649:3679  balances[msg.sender] += amount */\n      dup1\n      sload\n        /* \"Trading.sol\":3673:3679  amount */\n      dup4\n      swap3\n        /* \"Trading.sol\":3649:3669  balances[msg.sender] */\n      swap1\n        /* \"Trading.sol\":3649:3679  balances[msg.sender] += amount */\n      tag_65\n      swap1\n        /* \"Trading.sol\":3673:3679  amount */\n      dup5\n      swap1\n        /* \"Trading.sol\":3649:3679  balances[msg.sender] += amount */\n      tag_66\n      jump\t// in\n    tag_65:\n      swap1\n      swap2\n      sstore\n      pop\n      pop\n      pop\n        /* \"Trading.sol\":3590:3687  function depositEnergy(uint256 amount) external {... */\n      jump\t// out\n        /* \"Trading.sol\":376:427  mapping(uint256 => Order[]) public sellOrderBuckets */\n    tag_39:\n      mstore(0x20, 0x01)\n      dup2\n      0x00\n      mstore\n      keccak256(0x00, 0x40)\n      dup2\n      dup2\n      sload\n      dup2\n      lt\n      tag_58\n      jumpi\n      0x00\n      dup1\n      revert\n        /* \"Trading.sol\":3997:4121  function getBuyOrders(uint256 price) external view returns (Order[] memory) {... */\n    tag_46:\n        /* \"Trading.sol\":4091:4106  buyOrderBuckets */\n      0x00\n        /* \"Trading.sol\":4091:4113  buyOrderBuckets[price] */\n      dup2\n      dup2\n      mstore\n      0x20\n      dup2\n      dup2\n      mstore\n      0x40\n      dup1\n      dup4\n      keccak256\n        /* \"Trading.sol\":4084:4113  return buyOrderBuckets[price] */\n      dup1\n      sload\n      dup3\n      mload\n      dup2\n      dup6\n      mul\n      dup2\n      add\n      dup6\n      add\n      swap1\n      swap4\n      mstore\n      dup1\n      dup4\n      mstore\n        /* \"Trading.sol\":4057:4071  Order[] memory */\n      0x60\n      swap5\n        /* \"Trading.sol\":4084:4113  return buyOrderBuckets[price] */\n      swap3\n      swap4\n        /* \"Trading.sol\":4091:4113  buyOrderBuckets[price] */\n      swap2\n      swap3\n        /* \"Trading.sol\":4084:4113  return buyOrderBuckets[price] */\n      swap1\n      swap2\n      dup5\n      add\n      dup3\n      iszero\n      tag_62\n      jumpi\n      0x00\n      dup5\n      dup2\n      mstore\n      0x20\n      swap1\n      dup2\n      swap1\n      keccak256\n      0x40\n      dup1\n      mload\n      0x60\n      dup2\n      add\n      dup3\n      mstore\n      0x03\n      dup7\n      mul\n      swap1\n      swap3\n      add\n      dup1\n      sload\n      sub(shl(0xa0, 0x01), 0x01)\n      and\n      dup4\n      mstore\n      0x01\n      dup1\n      dup3\n      add\n      sload\n      dup5\n      dup7\n      add\n      mstore\n      0x02\n      swap1\n      swap2\n      add\n      sload\n      swap2\n      dup4\n      add\n      swap2\n      swap1\n      swap2\n      mstore\n      swap1\n      dup4\n      mstore\n      swap1\n      swap3\n      add\n      swap2\n      add\n      jump(tag_61)\n        /* \"Trading.sol\":955:1792  function placeOrder(uint256 price, uint256 quantity, bool isBuyOrder) external {... */\n    tag_51:\n        /* \"Trading.sol\":1061:1062  0 */\n      0x00\n        /* \"Trading.sol\":1053:1058  price */\n      dup4\n        /* \"Trading.sol\":1053:1062  price > 0 */\n      gt\n        /* \"Trading.sol\":1053:1078  price > 0 && quantity > 0 */\n      dup1\n      iszero\n      tag_74\n      jumpi\n      pop\n        /* \"Trading.sol\":1077:1078  0 */\n      0x00\n        /* \"Trading.sol\":1066:1074  quantity */\n      dup3\n        /* \"Trading.sol\":1066:1078  quantity > 0 */\n      gt\n        /* \"Trading.sol\":1053:1078  price > 0 && quantity > 0 */\n    tag_74:\n        /* \"Trading.sol\":1045:1096  require(price > 0 && quantity > 0, \"Invalid order\") */\n      tag_75\n      jumpi\n      mload(0x40)\n      shl(0xe5, 0x461bcd)\n      dup2\n      mstore\n        /* \"#utility.yul\":3090:3092   */\n      0x20\n        /* \"Trading.sol\":1045:1096  require(price > 0 && quantity > 0, \"Invalid order\") */\n      0x04\n      dup3\n      add\n        /* \"#utility.yul\":3072:3093   */\n      mstore\n        /* \"#utility.yul\":3129:3131   */\n      0x0d\n        /* \"#utility.yul\":3109:3127   */\n      0x24\n      dup3\n      add\n        /* \"#utility.yul\":3102:3132   */\n      mstore\n        /* \"#utility.yul\":3168:3183   */\n      0x496e76616c6964206f7264657200000000000000000000000000000000000000\n        /* \"#utility.yul\":3148:3166   */\n      0x44\n      dup3\n      add\n        /* \"#utility.yul\":3141:3184   */\n      mstore\n        /* \"#utility.yul\":3201:3219   */\n      0x64\n      add\n        /* \"Trading.sol\":1045:1096  require(price > 0 && quantity > 0, \"Invalid order\") */\n    tag_76:\n      mload(0x40)\n      dup1\n      swap2\n      sub\n      swap1\n      revert\n    tag_75:\n        /* \"Trading.sol\":1113:1123  isBuyOrder */\n      dup1\n        /* \"Trading.sol\":1109:1649  if (isBuyOrder) {... */\n      iszero\n      tag_78\n      jumpi\n        /* \"Trading.sol\":1157:1169  currentPrice */\n      sload(0x03)\n        /* \"Trading.sol\":1148:1153  price */\n      dup4\n        /* \"Trading.sol\":1148:1169  price >= currentPrice */\n      lt\n      iszero\n        /* \"Trading.sol\":1140:1237  require(price >= currentPrice, \"Buy price must be greater than or equal to current market price\") */\n      tag_79\n      jumpi\n      mload(0x40)\n      shl(0xe5, 0x461bcd)\n      dup2\n      mstore\n        /* \"#utility.yul\":3432:3434   */\n      0x20\n        /* \"Trading.sol\":1140:1237  require(price >= currentPrice, \"Buy price must be greater than or equal to current market price\") */\n      0x04\n      dup3\n      add\n        /* \"#utility.yul\":3414:3435   */\n      mstore\n        /* \"#utility.yul\":3471:3473   */\n      0x3f\n        /* \"#utility.yul\":3451:3469   */\n      0x24\n      dup3\n      add\n        /* \"#utility.yul\":3444:3474   */\n      mstore\n        /* \"#utility.yul\":3510:3544   */\n      0x427579207072696365206d7573742062652067726561746572207468616e206f\n        /* \"#utility.yul\":3490:3508   */\n      0x44\n      dup3\n      add\n        /* \"#utility.yul\":3483:3545   */\n      mstore\n        /* \"#utility.yul\":3581:3614   */\n      0x7220657175616c20746f2063757272656e74206d61726b657420707269636500\n        /* \"#utility.yul\":3561:3579   */\n      0x64\n      dup3\n      add\n        /* \"#utility.yul\":3554:3615   */\n      mstore\n        /* \"#utility.yul\":3632:3651   */\n      0x84\n      add\n        /* \"Trading.sol\":1140:1237  require(price >= currentPrice, \"Buy price must be greater than or equal to current market price\") */\n      tag_76\n        /* \"#utility.yul\":3230:3657   */\n      jump\n        /* \"Trading.sol\":1140:1237  require(price >= currentPrice, \"Buy price must be greater than or equal to current market price\") */\n    tag_79:\n        /* \"Trading.sol\":1252:1267  buyOrderBuckets */\n      0x00\n        /* \"Trading.sol\":1252:1274  buyOrderBuckets[price] */\n      dup4\n      dup2\n      mstore\n      0x20\n      dup2\n      dup2\n      mstore\n      0x40\n      dup1\n      dup4\n      keccak256\n        /* \"Trading.sol\":1280:1324  Order(msg.sender, quantity, block.timestamp) */\n      dup2\n      mload\n      0x60\n      dup2\n      add\n      dup4\n      mstore\n        /* \"Trading.sol\":1286:1296  msg.sender */\n      caller\n        /* \"Trading.sol\":1280:1324  Order(msg.sender, quantity, block.timestamp) */\n      dup2\n      mstore\n      dup1\n      dup5\n      add\n      dup8\n      dup2\n      mstore\n        /* \"Trading.sol\":1308:1323  block.timestamp */\n      timestamp\n        /* \"Trading.sol\":1280:1324  Order(msg.sender, quantity, block.timestamp) */\n      swap4\n      dup3\n      add\n      swap4\n      dup5\n      mstore\n        /* \"Trading.sol\":1252:1325  buyOrderBuckets[price].push(Order(msg.sender, quantity, block.timestamp)) */\n      dup3\n      sload\n      0x01\n      dup1\n      dup3\n      add\n      dup6\n      sstore\n      swap4\n      dup8\n      mstore\n      swap5\n      swap1\n      swap6\n      keccak256\n      swap1\n      mload\n      0x03\n      swap1\n      swap5\n      mul\n      add\n      dup1\n      sload\n      not(sub(shl(0xa0, 0x01), 0x01))\n      and\n      sub(shl(0xa0, 0x01), 0x01)\n      swap1\n      swap5\n      and\n      swap4\n      swap1\n      swap4\n      or\n      dup4\n      sstore\n      swap3\n      mload\n      swap3\n      dup3\n      add\n      swap3\n      swap1\n      swap3\n      sstore\n      swap1\n      mload\n      0x02\n      swap1\n      swap2\n      add\n      sstore\n        /* \"Trading.sol\":1109:1649  if (isBuyOrder) {... */\n      jump(tag_83)\n    tag_78:\n        /* \"Trading.sol\":1375:1387  currentPrice */\n      sload(0x03)\n        /* \"Trading.sol\":1366:1371  price */\n      dup4\n        /* \"Trading.sol\":1366:1387  price <= currentPrice */\n      gt\n      iszero\n        /* \"Trading.sol\":1358:1453  require(price <= currentPrice, \"Sell price must be less than or equal to current market price\") */\n      tag_84\n      jumpi\n      mload(0x40)\n      shl(0xe5, 0x461bcd)\n      dup2\n      mstore\n        /* \"#utility.yul\":3864:3866   */\n      0x20\n        /* \"Trading.sol\":1358:1453  require(price <= currentPrice, \"Sell price must be less than or equal to current market price\") */\n      0x04\n      dup3\n      add\n        /* \"#utility.yul\":3846:3867   */\n      mstore\n        /* \"#utility.yul\":3903:3905   */\n      0x3d\n        /* \"#utility.yul\":3883:3901   */\n      0x24\n      dup3\n      add\n        /* \"#utility.yul\":3876:3906   */\n      mstore\n        /* \"#utility.yul\":3942:3976   */\n      0x53656c6c207072696365206d757374206265206c657373207468616e206f7220\n        /* \"#utility.yul\":3922:3940   */\n      0x44\n      dup3\n      add\n        /* \"#utility.yul\":3915:3977   */\n      mstore\n        /* \"#utility.yul\":4013:4044   */\n      0x657175616c20746f2063757272656e74206d61726b6574207072696365000000\n        /* \"#utility.yul\":3993:4011   */\n      0x64\n      dup3\n      add\n        /* \"#utility.yul\":3986:4045   */\n      mstore\n        /* \"#utility.yul\":4062:4081   */\n      0x84\n      add\n        /* \"Trading.sol\":1358:1453  require(price <= currentPrice, \"Sell price must be less than or equal to current market price\") */\n      tag_76\n        /* \"#utility.yul\":3662:4087   */\n      jump\n        /* \"Trading.sol\":1358:1453  require(price <= currentPrice, \"Sell price must be less than or equal to current market price\") */\n    tag_84:\n        /* \"Trading.sol\":1485:1495  msg.sender */\n      caller\n        /* \"Trading.sol\":1476:1496  balances[msg.sender] */\n      0x00\n      swap1\n      dup2\n      mstore\n        /* \"Trading.sol\":1476:1484  balances */\n      0x02\n        /* \"Trading.sol\":1476:1496  balances[msg.sender] */\n      0x20\n      mstore\n      0x40\n      swap1\n      keccak256\n      sload\n        /* \"Trading.sol\":1476:1508  balances[msg.sender] >= quantity */\n      dup3\n      gt\n      iszero\n        /* \"Trading.sol\":1468:1548  require(balances[msg.sender] >= quantity, \"Insufficient energy balance to sell\") */\n      tag_87\n      jumpi\n      mload(0x40)\n      shl(0xe5, 0x461bcd)\n      dup2\n      mstore\n        /* \"#utility.yul\":4294:4296   */\n      0x20\n        /* \"Trading.sol\":1468:1548  require(balances[msg.sender] >= quantity, \"Insufficient energy balance to sell\") */\n      0x04\n      dup3\n      add\n        /* \"#utility.yul\":4276:4297   */\n      mstore\n        /* \"#utility.yul\":4333:4335   */\n      0x23\n        /* \"#utility.yul\":4313:4331   */\n      0x24\n      dup3\n      add\n        /* \"#utility.yul\":4306:4336   */\n      mstore\n        /* \"#utility.yul\":4372:4406   */\n      0x496e73756666696369656e7420656e657267792062616c616e636520746f2073\n        /* \"#utility.yul\":4352:4370   */\n      0x44\n      dup3\n      add\n        /* \"#utility.yul\":4345:4407   */\n      mstore\n      shl(0xea, 0x195b1b)\n        /* \"#utility.yul\":4423:4441   */\n      0x64\n      dup3\n      add\n        /* \"#utility.yul\":4416:4449   */\n      mstore\n        /* \"#utility.yul\":4466:4485   */\n      0x84\n      add\n        /* \"Trading.sol\":1468:1548  require(balances[msg.sender] >= quantity, \"Insufficient energy balance to sell\") */\n      tag_76\n        /* \"#utility.yul\":4092:4491   */\n      jump\n        /* \"Trading.sol\":1468:1548  require(balances[msg.sender] >= quantity, \"Insufficient energy balance to sell\") */\n    tag_87:\n        /* \"Trading.sol\":1563:1586  sellOrderBuckets[price] */\n      0x00\n      dup4\n      dup2\n      mstore\n        /* \"Trading.sol\":1563:1579  sellOrderBuckets */\n      0x01\n        /* \"Trading.sol\":1563:1586  sellOrderBuckets[price] */\n      0x20\n      dup2\n      dup2\n      mstore\n      0x40\n      dup1\n      dup5\n      keccak256\n        /* \"Trading.sol\":1592:1636  Order(msg.sender, quantity, block.timestamp) */\n      dup2\n      mload\n      0x60\n      dup2\n      add\n      dup4\n      mstore\n        /* \"Trading.sol\":1598:1608  msg.sender */\n      caller\n        /* \"Trading.sol\":1592:1636  Order(msg.sender, quantity, block.timestamp) */\n      dup2\n      mstore\n      dup1\n      dup5\n      add\n      dup9\n      dup2\n      mstore\n        /* \"Trading.sol\":1620:1635  block.timestamp */\n      timestamp\n        /* \"Trading.sol\":1592:1636  Order(msg.sender, quantity, block.timestamp) */\n      swap4\n      dup3\n      add\n      swap4\n      dup5\n      mstore\n        /* \"Trading.sol\":1563:1637  sellOrderBuckets[price].push(Order(msg.sender, quantity, block.timestamp)) */\n      dup3\n      sload\n      dup1\n      dup8\n      add\n      dup5\n      sstore\n      swap3\n      dup8\n      mstore\n      swap4\n      swap1\n      swap6\n      keccak256\n      swap5\n      mload\n      0x03\n      swap1\n      swap2\n      mul\n      swap1\n      swap5\n      add\n      dup1\n      sload\n      not(sub(shl(0xa0, 0x01), 0x01))\n      and\n      sub(shl(0xa0, 0x01), 0x01)\n      swap1\n      swap6\n      and\n      swap5\n      swap1\n      swap5\n      or\n      dup5\n      sstore\n      swap1\n      mload\n      swap2\n      dup4\n      add\n      swap2\n      swap1\n      swap2\n      sstore\n      mload\n      0x02\n      swap1\n      swap2\n      add\n      sstore\n        /* \"Trading.sol\":1109:1649  if (isBuyOrder) {... */\n    tag_83:\n        /* \"Trading.sol\":1666:1718  OrderPlaced(msg.sender, price, quantity, isBuyOrder) */\n      0x40\n      dup1\n      mload\n        /* \"Trading.sol\":1678:1688  msg.sender */\n      caller\n        /* \"#utility.yul\":4721:4795   */\n      dup2\n      mstore\n        /* \"#utility.yul\":4826:4828   */\n      0x20\n        /* \"#utility.yul\":4811:4829   */\n      dup2\n      add\n        /* \"#utility.yul\":4804:4838   */\n      dup6\n      swap1\n      mstore\n        /* \"#utility.yul\":4854:4872   */\n      swap1\n      dup2\n      add\n        /* \"#utility.yul\":4847:4881   */\n      dup4\n      swap1\n      mstore\n        /* \"#utility.yul\":4924:4938   */\n      dup2\n      iszero\n        /* \"#utility.yul\":4917:4939   */\n      iszero\n        /* \"#utility.yul\":4912:4914   */\n      0x60\n        /* \"#utility.yul\":4897:4915   */\n      dup3\n      add\n        /* \"#utility.yul\":4890:4940   */\n      mstore\n        /* \"Trading.sol\":1666:1718  OrderPlaced(msg.sender, price, quantity, isBuyOrder) */\n      0x54d7076c6b62ef7bab70db425f9b28d36d90208e70beab9021424322acf373d4\n      swap1\n        /* \"#utility.yul\":4708:4711   */\n      0x80\n        /* \"#utility.yul\":4693:4712   */\n      add\n        /* \"Trading.sol\":1666:1718  OrderPlaced(msg.sender, price, quantity, isBuyOrder) */\n      mload(0x40)\n      dup1\n      swap2\n      sub\n      swap1\n      log1\n        /* \"Trading.sol\":1766:1784  matchOrders(price) */\n      tag_93\n        /* \"Trading.sol\":1778:1783  price */\n      dup4\n        /* \"Trading.sol\":1766:1777  matchOrders */\n      tag_94\n        /* \"Trading.sol\":1766:1784  matchOrders(price) */\n      jump\t// in\n    tag_93:\n        /* \"Trading.sol\":955:1792  function placeOrder(uint256 price, uint256 quantity, bool isBuyOrder) external {... */\n      pop\n      pop\n      pop\n      jump\t// out\n        /* \"Trading.sol\":3749:3921  function withdrawEnergy(uint256 amount) external {... */\n    tag_54:\n        /* \"Trading.sol\":3826:3836  msg.sender */\n      caller\n        /* \"Trading.sol\":3817:3837  balances[msg.sender] */\n      0x00\n      swap1\n      dup2\n      mstore\n        /* \"Trading.sol\":3817:3825  balances */\n      0x02\n        /* \"Trading.sol\":3817:3837  balances[msg.sender] */\n      0x20\n      mstore\n      0x40\n      swap1\n      keccak256\n      sload\n        /* \"Trading.sol\":3817:3847  balances[msg.sender] >= amount */\n      dup2\n      gt\n      iszero\n        /* \"Trading.sol\":3809:3872  require(balances[msg.sender] >= amount, \"Insufficient balance\") */\n      tag_96\n      jumpi\n      mload(0x40)\n      shl(0xe5, 0x461bcd)\n      dup2\n      mstore\n        /* \"#utility.yul\":5153:5155   */\n      0x20\n        /* \"Trading.sol\":3809:3872  require(balances[msg.sender] >= amount, \"Insufficient balance\") */\n      0x04\n      dup3\n      add\n        /* \"#utility.yul\":5135:5156   */\n      mstore\n        /* \"#utility.yul\":5192:5194   */\n      0x14\n        /* \"#utility.yul\":5172:5190   */\n      0x24\n      dup3\n      add\n        /* \"#utility.yul\":5165:5195   */\n      mstore\n        /* \"#utility.yul\":5231:5253   */\n      0x496e73756666696369656e742062616c616e6365000000000000000000000000\n        /* \"#utility.yul\":5211:5229   */\n      0x44\n      dup3\n      add\n        /* \"#utility.yul\":5204:5254   */\n      mstore\n        /* \"#utility.yul\":5271:5289   */\n      0x64\n      add\n        /* \"Trading.sol\":3809:3872  require(balances[msg.sender] >= amount, \"Insufficient balance\") */\n      tag_76\n        /* \"#utility.yul\":4951:5295   */\n      jump\n        /* \"Trading.sol\":3809:3872  require(balances[msg.sender] >= amount, \"Insufficient balance\") */\n    tag_96:\n        /* \"Trading.sol\":3892:3902  msg.sender */\n      caller\n        /* \"Trading.sol\":3883:3903  balances[msg.sender] */\n      0x00\n      swap1\n      dup2\n      mstore\n        /* \"Trading.sol\":3883:3891  balances */\n      0x02\n        /* \"Trading.sol\":3883:3903  balances[msg.sender] */\n      0x20\n      mstore\n      0x40\n      dup2\n      keccak256\n        /* \"Trading.sol\":3883:3913  balances[msg.sender] -= amount */\n      dup1\n      sload\n        /* \"Trading.sol\":3907:3913  amount */\n      dup4\n      swap3\n        /* \"Trading.sol\":3883:3903  balances[msg.sender] */\n      swap1\n        /* \"Trading.sol\":3883:3913  balances[msg.sender] -= amount */\n      tag_65\n      swap1\n        /* \"Trading.sol\":3907:3913  amount */\n      dup5\n      swap1\n        /* \"Trading.sol\":3883:3913  balances[msg.sender] -= amount */\n      tag_100\n      jump\t// in\n        /* \"Trading.sol\":1840:3312  function matchOrders(uint256 price) internal {... */\n    tag_94:\n        /* \"Trading.sol\":1896:1921  Order[] storage buyOrders */\n      0x00\n        /* \"Trading.sol\":1924:1946  buyOrderBuckets[price] */\n      dup2\n      dup2\n      mstore\n      0x20\n      dup2\n      dup2\n      mstore\n      0x40\n      dup1\n      dup4\n      keccak256\n        /* \"Trading.sol\":1986:2002  sellOrderBuckets */\n      0x01\n        /* \"Trading.sol\":1986:2009  sellOrderBuckets[price] */\n      swap1\n      swap3\n      mstore\n      swap1\n      swap2\n      keccak256\n        /* \"Trading.sol\":2022:3305  while (buyOrders.length > 0 && sellOrders.length > 0) {... */\n    tag_103:\n        /* \"Trading.sol\":2029:2045  buyOrders.length */\n      dup2\n      sload\n        /* \"Trading.sol\":2029:2049  buyOrders.length > 0 */\n      iszero\n      dup1\n      iszero\n      swap1\n        /* \"Trading.sol\":2029:2074  buyOrders.length > 0 && sellOrders.length > 0 */\n      tag_105\n      jumpi\n      pop\n        /* \"Trading.sol\":2053:2070  sellOrders.length */\n      dup1\n      sload\n        /* \"Trading.sol\":2053:2074  sellOrders.length > 0 */\n      iszero\n      iszero\n        /* \"Trading.sol\":2029:2074  buyOrders.length > 0 && sellOrders.length > 0 */\n    tag_105:\n        /* \"Trading.sol\":2022:3305  while (buyOrders.length > 0 && sellOrders.length > 0) {... */\n      iszero\n      tag_93\n      jumpi\n        /* \"Trading.sol\":2091:2113  Order storage buyOrder */\n      0x00\n        /* \"Trading.sol\":2116:2125  buyOrders */\n      dup3\n        /* \"Trading.sol\":2126:2127  0 */\n      0x00\n        /* \"Trading.sol\":2116:2128  buyOrders[0] */\n      dup2\n      sload\n      dup2\n      lt\n      tag_107\n      jumpi\n      tag_107\n      tag_108\n      jump\t// in\n    tag_107:\n      swap1\n      0x00\n      mstore\n      keccak256(0x00, 0x20)\n      swap1\n      0x03\n      mul\n      add\n        /* \"Trading.sol\":2091:2128  Order storage buyOrder = buyOrders[0] */\n      swap1\n      pop\n        /* \"Trading.sol\":2143:2166  Order storage sellOrder */\n      0x00\n        /* \"Trading.sol\":2169:2179  sellOrders */\n      dup3\n        /* \"Trading.sol\":2180:2181  0 */\n      0x00\n        /* \"Trading.sol\":2169:2182  sellOrders[0] */\n      dup2\n      sload\n      dup2\n      lt\n      tag_111\n      jumpi\n      tag_111\n      tag_108\n      jump\t// in\n    tag_111:\n      swap1\n      0x00\n      mstore\n      keccak256(0x00, 0x20)\n      swap1\n      0x03\n      mul\n      add\n        /* \"Trading.sol\":2143:2182  Order storage sellOrder = sellOrders[0] */\n      swap1\n      pop\n        /* \"Trading.sol\":2280:2301  uint256 tradeQuantity */\n      0x00\n        /* \"Trading.sol\":2326:2335  sellOrder */\n      dup2\n        /* \"Trading.sol\":2326:2344  sellOrder.quantity */\n      0x01\n      add\n      sload\n        /* \"Trading.sol\":2305:2313  buyOrder */\n      dup4\n        /* \"Trading.sol\":2305:2322  buyOrder.quantity */\n      0x01\n      add\n      sload\n        /* \"Trading.sol\":2305:2344  buyOrder.quantity <= sellOrder.quantity */\n      gt\n      iszero\n        /* \"Trading.sol\":2304:2386  (buyOrder.quantity <= sellOrder.quantity) ? buyOrder.quantity : sellOrder.quantity */\n      tag_113\n      jumpi\n        /* \"Trading.sol\":2368:2377  sellOrder */\n      dup2\n        /* \"Trading.sol\":2368:2386  sellOrder.quantity */\n      0x01\n      add\n      sload\n        /* \"Trading.sol\":2304:2386  (buyOrder.quantity <= sellOrder.quantity) ? buyOrder.quantity : sellOrder.quantity */\n      jump(tag_114)\n    tag_113:\n        /* \"Trading.sol\":2348:2356  buyOrder */\n      dup3\n        /* \"Trading.sol\":2348:2365  buyOrder.quantity */\n      0x01\n      add\n      sload\n        /* \"Trading.sol\":2304:2386  (buyOrder.quantity <= sellOrder.quantity) ? buyOrder.quantity : sellOrder.quantity */\n    tag_114:\n        /* \"Trading.sol\":2442:2455  buyOrder.user */\n      dup4\n      sload\n      sub(shl(0xa0, 0x01), 0x01)\n      and\n        /* \"Trading.sol\":2433:2456  balances[buyOrder.user] */\n      0x00\n      swap1\n      dup2\n      mstore\n        /* \"Trading.sol\":2433:2441  balances */\n      0x02\n        /* \"Trading.sol\":2433:2456  balances[buyOrder.user] */\n      0x20\n      mstore\n      0x40\n      dup2\n      keccak256\n        /* \"Trading.sol\":2433:2473  balances[buyOrder.user] += tradeQuantity */\n      dup1\n      sload\n        /* \"Trading.sol\":2280:2386  uint256 tradeQuantity = (buyOrder.quantity <= sellOrder.quantity) ? buyOrder.quantity : sellOrder.quantity */\n      swap3\n      swap4\n      pop\n      dup4\n      swap3\n        /* \"Trading.sol\":2433:2456  balances[buyOrder.user] */\n      swap1\n      swap2\n      swap1\n        /* \"Trading.sol\":2433:2473  balances[buyOrder.user] += tradeQuantity */\n      tag_115\n      swap1\n        /* \"Trading.sol\":2280:2386  uint256 tradeQuantity = (buyOrder.quantity <= sellOrder.quantity) ? buyOrder.quantity : sellOrder.quantity */\n      dup5\n      swap1\n        /* \"Trading.sol\":2433:2473  balances[buyOrder.user] += tradeQuantity */\n      tag_66\n      jump\t// in\n    tag_115:\n      swap1\n      swap2\n      sstore\n      pop\n      pop\n        /* \"Trading.sol\":2530:2544  sellOrder.user */\n      dup2\n      sload\n      sub(shl(0xa0, 0x01), 0x01)\n      and\n        /* \"Trading.sol\":2521:2545  balances[sellOrder.user] */\n      0x00\n      swap1\n      dup2\n      mstore\n        /* \"Trading.sol\":2521:2529  balances */\n      0x02\n        /* \"Trading.sol\":2521:2545  balances[sellOrder.user] */\n      0x20\n      mstore\n      0x40\n      dup2\n      keccak256\n        /* \"Trading.sol\":2521:2562  balances[sellOrder.user] -= tradeQuantity */\n      dup1\n      sload\n        /* \"Trading.sol\":2549:2562  tradeQuantity */\n      dup4\n      swap3\n        /* \"Trading.sol\":2521:2545  balances[sellOrder.user] */\n      swap1\n        /* \"Trading.sol\":2521:2562  balances[sellOrder.user] -= tradeQuantity */\n      tag_116\n      swap1\n        /* \"Trading.sol\":2549:2562  tradeQuantity */\n      dup5\n      swap1\n        /* \"Trading.sol\":2521:2562  balances[sellOrder.user] -= tradeQuantity */\n      tag_100\n      jump\t// in\n    tag_116:\n      swap1\n      swap2\n      sstore\n      pop\n      pop\n        /* \"Trading.sol\":2699:2711  currentPrice */\n      0x03\n        /* \"Trading.sol\":2699:2719  currentPrice = price */\n      dup7\n      swap1\n      sstore\n        /* \"Trading.sol\":2739:2772  CurrentPriceUpdated(currentPrice) */\n      mload(0x40)\n        /* \"#utility.yul\":1100:1125   */\n      dup7\n      dup2\n      mstore\n        /* \"Trading.sol\":2739:2772  CurrentPriceUpdated(currentPrice) */\n      0xcfebfed7291191489847e6abdd482d8816f6f32efecf69fc66c91631a2f217f9\n      swap1\n        /* \"#utility.yul\":1088:1090   */\n      0x20\n        /* \"#utility.yul\":1073:1091   */\n      add\n        /* \"Trading.sol\":2739:2772  CurrentPriceUpdated(currentPrice) */\n      mload(0x40)\n      dup1\n      swap2\n      sub\n      swap1\n      log1\n        /* \"Trading.sol\":2848:2861  buyOrder.user */\n      dup3\n      sload\n        /* \"Trading.sol\":2863:2877  sellOrder.user */\n      dup3\n      sload\n        /* \"Trading.sol\":2835:2900  OrderMatched(buyOrder.user, sellOrder.user, price, tradeQuantity) */\n      0x40\n      dup1\n      mload\n      sub(shl(0xa0, 0x01), 0x01)\n        /* \"Trading.sol\":2848:2861  buyOrder.user */\n      swap4\n      dup5\n      and\n        /* \"#utility.yul\":5857:5891   */\n      dup2\n      mstore\n        /* \"Trading.sol\":2863:2877  sellOrder.user */\n      swap3\n      swap1\n      swap2\n      and\n        /* \"#utility.yul\":5922:5924   */\n      0x20\n        /* \"#utility.yul\":5907:5925   */\n      dup4\n      add\n        /* \"#utility.yul\":5900:5943   */\n      mstore\n        /* \"#utility.yul\":5959:5977   */\n      dup2\n      add\n        /* \"#utility.yul\":5952:5986   */\n      dup8\n      swap1\n      mstore\n        /* \"#utility.yul\":6017:6019   */\n      0x60\n        /* \"#utility.yul\":6002:6020   */\n      dup2\n      add\n        /* \"#utility.yul\":5995:6029   */\n      dup3\n      swap1\n      mstore\n        /* \"Trading.sol\":2835:2900  OrderMatched(buyOrder.user, sellOrder.user, price, tradeQuantity) */\n      0x9e4e3f39380775c0cafb8e955d18b0522aa6649c0500b18fde8657ba3f7deab9\n      swap1\n        /* \"#utility.yul\":5783:5786   */\n      0x80\n        /* \"#utility.yul\":5768:5787   */\n      add\n        /* \"Trading.sol\":2835:2900  OrderMatched(buyOrder.user, sellOrder.user, price, tradeQuantity) */\n      mload(0x40)\n      dup1\n      swap2\n      sub\n      swap1\n      log1\n        /* \"Trading.sol\":2986:2999  tradeQuantity */\n      dup1\n        /* \"Trading.sol\":2965:2973  buyOrder */\n      dup4\n        /* \"Trading.sol\":2965:2982  buyOrder.quantity */\n      0x01\n      add\n      0x00\n        /* \"Trading.sol\":2965:2999  buyOrder.quantity -= tradeQuantity */\n      dup3\n      dup3\n      sload\n      tag_120\n      swap2\n      swap1\n      tag_100\n      jump\t// in\n    tag_120:\n      swap3\n      pop\n      pop\n      dup2\n      swap1\n      sstore\n      pop\n        /* \"Trading.sol\":3036:3049  tradeQuantity */\n      dup1\n        /* \"Trading.sol\":3014:3023  sellOrder */\n      dup3\n        /* \"Trading.sol\":3014:3032  sellOrder.quantity */\n      0x01\n      add\n      0x00\n        /* \"Trading.sol\":3014:3049  sellOrder.quantity -= tradeQuantity */\n      dup3\n      dup3\n      sload\n      tag_121\n      swap2\n      swap1\n      tag_100\n      jump\t// in\n    tag_121:\n      swap1\n      swap2\n      sstore\n      pop\n      pop\n        /* \"Trading.sol\":3106:3123  buyOrder.quantity */\n      0x01\n      dup4\n      add\n      sload\n        /* \"Trading.sol\":3127:3128  0 */\n      0x00\n        /* \"Trading.sol\":3106:3128  buyOrder.quantity == 0 */\n      sub\n        /* \"Trading.sol\":3102:3190  if (buyOrder.quantity == 0) {... */\n      tag_123\n      jumpi\n        /* \"Trading.sol\":3149:3174  removeOrder(buyOrders, 0) */\n      tag_123\n        /* \"Trading.sol\":3161:3170  buyOrders */\n      dup6\n        /* \"Trading.sol\":3172:3173  0 */\n      0x00\n        /* \"Trading.sol\":3149:3160  removeOrder */\n      tag_124\n        /* \"Trading.sol\":3149:3174  removeOrder(buyOrders, 0) */\n      jump\t// in\n    tag_123:\n        /* \"Trading.sol\":3208:3217  sellOrder */\n      dup2\n        /* \"Trading.sol\":3208:3226  sellOrder.quantity */\n      0x01\n      add\n      sload\n        /* \"Trading.sol\":3230:3231  0 */\n      0x00\n        /* \"Trading.sol\":3208:3231  sellOrder.quantity == 0 */\n      sub\n        /* \"Trading.sol\":3204:3294  if (sellOrder.quantity == 0) {... */\n      tag_126\n      jumpi\n        /* \"Trading.sol\":3252:3278  removeOrder(sellOrders, 0) */\n      tag_126\n        /* \"Trading.sol\":3264:3274  sellOrders */\n      dup5\n        /* \"Trading.sol\":3276:3277  0 */\n      0x00\n        /* \"Trading.sol\":3252:3263  removeOrder */\n      tag_124\n        /* \"Trading.sol\":3252:3278  removeOrder(sellOrders, 0) */\n      jump\t// in\n    tag_126:\n        /* \"Trading.sol\":2076:3305  {... */\n      pop\n      pop\n      pop\n        /* \"Trading.sol\":2022:3305  while (buyOrders.length > 0 && sellOrders.length > 0) {... */\n      jump(tag_103)\n        /* \"Trading.sol\":3377:3529  function removeOrder(Order[] storage orders, uint256 index) internal {... */\n    tag_124:\n        /* \"Trading.sol\":3480:3493  orders.length */\n      dup2\n      sload\n        /* \"Trading.sol\":3473:3479  orders */\n      dup3\n      swap1\n        /* \"Trading.sol\":3480:3497  orders.length - 1 */\n      tag_128\n      swap1\n        /* \"Trading.sol\":3496:3497  1 */\n      0x01\n      swap1\n        /* \"Trading.sol\":3480:3497  orders.length - 1 */\n      tag_100\n      jump\t// in\n    tag_128:\n        /* \"Trading.sol\":3473:3498  orders[orders.length - 1] */\n      dup2\n      sload\n      dup2\n      lt\n      tag_130\n      jumpi\n      tag_130\n      tag_108\n      jump\t// in\n    tag_130:\n      swap1\n      0x00\n      mstore\n      keccak256(0x00, 0x20)\n      swap1\n      0x03\n      mul\n      add\n        /* \"Trading.sol\":3457:3463  orders */\n      dup3\n        /* \"Trading.sol\":3464:3469  index */\n      dup3\n        /* \"Trading.sol\":3457:3470  orders[index] */\n      dup2\n      sload\n      dup2\n      lt\n      tag_133\n      jumpi\n      tag_133\n      tag_108\n      jump\t// in\n    tag_133:\n      0x00\n      swap2\n      dup3\n      mstore\n      0x20\n      swap1\n      swap2\n      keccak256\n        /* \"Trading.sol\":3457:3498  orders[index] = orders[orders.length - 1] */\n      dup3\n      sload\n        /* \"Trading.sol\":3457:3470  orders[index] */\n      0x03\n      swap1\n      swap3\n      mul\n      add\n        /* \"Trading.sol\":3457:3498  orders[index] = orders[orders.length - 1] */\n      dup1\n      sload\n      not(sub(shl(0xa0, 0x01), 0x01))\n      and\n      sub(shl(0xa0, 0x01), 0x01)\n      swap1\n      swap3\n      and\n      swap2\n      swap1\n      swap2\n      or\n      dup2\n      sstore\n      0x01\n      dup1\n      dup4\n      add\n      sload\n      swap1\n      dup3\n      add\n      sstore\n      0x02\n      swap2\n      dup3\n      add\n      sload\n      swap2\n      add\n      sstore\n        /* \"Trading.sol\":3509:3521  orders.pop() */\n      dup2\n      sload\n        /* \"Trading.sol\":3509:3515  orders */\n      dup3\n      swap1\n        /* \"Trading.sol\":3509:3521  orders.pop() */\n      dup1\n      tag_136\n      jumpi\n      tag_136\n      tag_137\n      jump\t// in\n    tag_136:\n      0x00\n      dup3\n      dup2\n      mstore\n      0x20\n      dup2\n      keccak256\n      0x03\n      not(0x00)\n      swap1\n      swap4\n      add\n      swap3\n      dup4\n      mul\n      add\n      dup1\n      sload\n      not(sub(shl(0xa0, 0x01), 0x01))\n      and\n      dup2\n      sstore\n      0x01\n      dup2\n      add\n      dup3\n      swap1\n      sstore\n      0x02\n      add\n      sstore\n      swap1\n      sstore\n      pop\n      pop\n        /* \"Trading.sol\":3377:3529  function removeOrder(Order[] storage orders, uint256 index) internal {... */\n      jump\t// out\n        /* \"#utility.yul\":14:262   */\n    tag_18:\n        /* \"#utility.yul\":82:88   */\n      0x00\n        /* \"#utility.yul\":90:96   */\n      dup1\n        /* \"#utility.yul\":143:145   */\n      0x40\n        /* \"#utility.yul\":131:140   */\n      dup4\n        /* \"#utility.yul\":122:129   */\n      dup6\n        /* \"#utility.yul\":118:141   */\n      sub\n        /* \"#utility.yul\":114:146   */\n      slt\n        /* \"#utility.yul\":111:163   */\n      iszero\n      tag_142\n      jumpi\n        /* \"#utility.yul\":159:160   */\n      0x00\n        /* \"#utility.yul\":156:157   */\n      dup1\n        /* \"#utility.yul\":149:161   */\n      revert\n        /* \"#utility.yul\":111:163   */\n    tag_142:\n      pop\n      pop\n        /* \"#utility.yul\":182:205   */\n      dup1\n      calldataload\n      swap3\n        /* \"#utility.yul\":252:254   */\n      0x20\n        /* \"#utility.yul\":237:255   */\n      swap1\n      swap2\n      add\n        /* \"#utility.yul\":224:256   */\n      calldataload\n      swap2\n      pop\n        /* \"#utility.yul\":14:262   */\n      jump\t// out\n        /* \"#utility.yul\":640:949   */\n    tag_24:\n        /* \"#utility.yul\":699:705   */\n      0x00\n        /* \"#utility.yul\":752:754   */\n      0x20\n        /* \"#utility.yul\":740:749   */\n      dup3\n        /* \"#utility.yul\":731:738   */\n      dup5\n        /* \"#utility.yul\":727:750   */\n      sub\n        /* \"#utility.yul\":723:755   */\n      slt\n        /* \"#utility.yul\":720:772   */\n      iszero\n      tag_145\n      jumpi\n        /* \"#utility.yul\":768:769   */\n      0x00\n        /* \"#utility.yul\":765:766   */\n      dup1\n        /* \"#utility.yul\":758:770   */\n      revert\n        /* \"#utility.yul\":720:772   */\n    tag_145:\n        /* \"#utility.yul\":807:816   */\n      dup2\n        /* \"#utility.yul\":794:817   */\n      calldataload\n      sub(shl(0xa0, 0x01), 0x01)\n        /* \"#utility.yul\":850:855   */\n      dup2\n        /* \"#utility.yul\":846:900   */\n      and\n        /* \"#utility.yul\":839:844   */\n      dup2\n        /* \"#utility.yul\":836:901   */\n      eq\n        /* \"#utility.yul\":826:919   */\n      tag_146\n      jumpi\n        /* \"#utility.yul\":915:916   */\n      0x00\n        /* \"#utility.yul\":912:913   */\n      dup1\n        /* \"#utility.yul\":905:917   */\n      revert\n        /* \"#utility.yul\":826:919   */\n    tag_146:\n        /* \"#utility.yul\":938:943   */\n      swap4\n        /* \"#utility.yul\":640:949   */\n      swap3\n      pop\n      pop\n      pop\n      jump\t// out\n        /* \"#utility.yul\":1136:1316   */\n    tag_30:\n        /* \"#utility.yul\":1195:1201   */\n      0x00\n        /* \"#utility.yul\":1248:1250   */\n      0x20\n        /* \"#utility.yul\":1236:1245   */\n      dup3\n        /* \"#utility.yul\":1227:1234   */\n      dup5\n        /* \"#utility.yul\":1223:1246   */\n      sub\n        /* \"#utility.yul\":1219:1251   */\n      slt\n        /* \"#utility.yul\":1216:1268   */\n      iszero\n      tag_149\n      jumpi\n        /* \"#utility.yul\":1264:1265   */\n      0x00\n        /* \"#utility.yul\":1261:1262   */\n      dup1\n        /* \"#utility.yul\":1254:1266   */\n      revert\n        /* \"#utility.yul\":1216:1268   */\n    tag_149:\n      pop\n        /* \"#utility.yul\":1287:1310   */\n      calldataload\n      swap2\n        /* \"#utility.yul\":1136:1316   */\n      swap1\n      pop\n      jump\t// out\n        /* \"#utility.yul\":1321:2207   */\n    tag_33:\n        /* \"#utility.yul\":1536:1538   */\n      0x20\n        /* \"#utility.yul\":1588:1609   */\n      dup1\n      dup3\n      mstore\n        /* \"#utility.yul\":1658:1671   */\n      dup3\n      mload\n        /* \"#utility.yul\":1561:1579   */\n      dup3\n      dup3\n      add\n        /* \"#utility.yul\":1680:1702   */\n      dup2\n      swap1\n      mstore\n        /* \"#utility.yul\":1507:1511   */\n      0x00\n      swap2\n        /* \"#utility.yul\":1536:1538   */\n      swap1\n        /* \"#utility.yul\":1721:1723   */\n      0x40\n      swap1\n        /* \"#utility.yul\":1739:1757   */\n      dup2\n      dup6\n      add\n      swap1\n        /* \"#utility.yul\":1780:1795   */\n      dup7\n      dup5\n      add\n        /* \"#utility.yul\":1507:1511   */\n      dup6\n        /* \"#utility.yul\":1823:2181   */\n    tag_151:\n        /* \"#utility.yul\":1837:1843   */\n      dup3\n        /* \"#utility.yul\":1834:1835   */\n      dup2\n        /* \"#utility.yul\":1831:1844   */\n      lt\n        /* \"#utility.yul\":1823:2181   */\n      iszero\n      tag_153\n      jumpi\n        /* \"#utility.yul\":1896:1909   */\n      dup2\n      mload\n        /* \"#utility.yul\":1938:1947   */\n      dup1\n      mload\n      sub(shl(0xa0, 0x01), 0x01)\n        /* \"#utility.yul\":1934:1992   */\n      and\n        /* \"#utility.yul\":1922:1993   */\n      dup6\n      mstore\n        /* \"#utility.yul\":2033:2044   */\n      dup7\n      dup2\n      add\n        /* \"#utility.yul\":2027:2045   */\n      mload\n        /* \"#utility.yul\":2013:2025   */\n      dup8\n      dup7\n      add\n        /* \"#utility.yul\":2006:2046   */\n      mstore\n        /* \"#utility.yul\":2086:2097   */\n      dup6\n      add\n        /* \"#utility.yul\":2080:2098   */\n      mload\n        /* \"#utility.yul\":2066:2078   */\n      dup6\n      dup6\n      add\n        /* \"#utility.yul\":2059:2099   */\n      mstore\n        /* \"#utility.yul\":2128:2132   */\n      0x60\n        /* \"#utility.yul\":2119:2133   */\n      swap1\n      swap4\n      add\n      swap3\n        /* \"#utility.yul\":2156:2171   */\n      swap1\n      dup6\n      add\n      swap1\n        /* \"#utility.yul\":1859:1860   */\n      0x01\n        /* \"#utility.yul\":1852:1861   */\n      add\n        /* \"#utility.yul\":1823:2181   */\n      jump(tag_151)\n    tag_153:\n      pop\n        /* \"#utility.yul\":2198:2201   */\n      swap2\n      swap8\n        /* \"#utility.yul\":1321:2207   */\n      swap7\n      pop\n      pop\n      pop\n      pop\n      pop\n      pop\n      pop\n      jump\t// out\n        /* \"#utility.yul\":2212:2621   */\n    tag_50:\n        /* \"#utility.yul\":2286:2292   */\n      0x00\n        /* \"#utility.yul\":2294:2300   */\n      dup1\n        /* \"#utility.yul\":2302:2308   */\n      0x00\n        /* \"#utility.yul\":2355:2357   */\n      0x60\n        /* \"#utility.yul\":2343:2352   */\n      dup5\n        /* \"#utility.yul\":2334:2341   */\n      dup7\n        /* \"#utility.yul\":2330:2353   */\n      sub\n        /* \"#utility.yul\":2326:2358   */\n      slt\n        /* \"#utility.yul\":2323:2375   */\n      iszero\n      tag_155\n      jumpi\n        /* \"#utility.yul\":2371:2372   */\n      0x00\n        /* \"#utility.yul\":2368:2369   */\n      dup1\n        /* \"#utility.yul\":2361:2373   */\n      revert\n        /* \"#utility.yul\":2323:2375   */\n    tag_155:\n        /* \"#utility.yul\":2407:2416   */\n      dup4\n        /* \"#utility.yul\":2394:2417   */\n      calldataload\n        /* \"#utility.yul\":2384:2417   */\n      swap3\n      pop\n        /* \"#utility.yul\":2464:2466   */\n      0x20\n        /* \"#utility.yul\":2453:2462   */\n      dup5\n        /* \"#utility.yul\":2449:2467   */\n      add\n        /* \"#utility.yul\":2436:2468   */\n      calldataload\n        /* \"#utility.yul\":2426:2468   */\n      swap2\n      pop\n        /* \"#utility.yul\":2518:2520   */\n      0x40\n        /* \"#utility.yul\":2507:2516   */\n      dup5\n        /* \"#utility.yul\":2503:2521   */\n      add\n        /* \"#utility.yul\":2490:2522   */\n      calldataload\n        /* \"#utility.yul\":2565:2570   */\n      dup1\n        /* \"#utility.yul\":2558:2571   */\n      iszero\n        /* \"#utility.yul\":2551:2572   */\n      iszero\n        /* \"#utility.yul\":2544:2549   */\n      dup2\n        /* \"#utility.yul\":2541:2573   */\n      eq\n        /* \"#utility.yul\":2531:2591   */\n      tag_156\n      jumpi\n        /* \"#utility.yul\":2587:2588   */\n      0x00\n        /* \"#utility.yul\":2584:2585   */\n      dup1\n        /* \"#utility.yul\":2577:2589   */\n      revert\n        /* \"#utility.yul\":2531:2591   */\n    tag_156:\n        /* \"#utility.yul\":2610:2615   */\n      dup1\n        /* \"#utility.yul\":2600:2615   */\n      swap2\n      pop\n      pop\n        /* \"#utility.yul\":2212:2621   */\n      swap3\n      pop\n      swap3\n      pop\n      swap3\n      jump\t// out\n        /* \"#utility.yul\":2626:2753   */\n    tag_139:\n        /* \"#utility.yul\":2687:2697   */\n      0x4e487b71\n        /* \"#utility.yul\":2682:2685   */\n      0xe0\n        /* \"#utility.yul\":2678:2698   */\n      shl\n        /* \"#utility.yul\":2675:2676   */\n      0x00\n        /* \"#utility.yul\":2668:2699   */\n      mstore\n        /* \"#utility.yul\":2718:2722   */\n      0x11\n        /* \"#utility.yul\":2715:2716   */\n      0x04\n        /* \"#utility.yul\":2708:2723   */\n      mstore\n        /* \"#utility.yul\":2742:2746   */\n      0x24\n        /* \"#utility.yul\":2739:2740   */\n      0x00\n        /* \"#utility.yul\":2732:2747   */\n      revert\n        /* \"#utility.yul\":2758:2883   */\n    tag_66:\n        /* \"#utility.yul\":2823:2832   */\n      dup1\n      dup3\n      add\n        /* \"#utility.yul\":2844:2854   */\n      dup1\n      dup3\n      gt\n        /* \"#utility.yul\":2841:2877   */\n      iszero\n      tag_160\n      jumpi\n        /* \"#utility.yul\":2857:2875   */\n      tag_160\n      tag_139\n      jump\t// in\n    tag_160:\n        /* \"#utility.yul\":2758:2883   */\n      swap3\n      swap2\n      pop\n      pop\n      jump\t// out\n        /* \"#utility.yul\":5300:5428   */\n    tag_100:\n        /* \"#utility.yul\":5367:5376   */\n      dup2\n      dup2\n      sub\n        /* \"#utility.yul\":5388:5399   */\n      dup2\n      dup2\n      gt\n        /* \"#utility.yul\":5385:5422   */\n      iszero\n      tag_160\n      jumpi\n        /* \"#utility.yul\":5402:5420   */\n      tag_160\n      tag_139\n      jump\t// in\n        /* \"#utility.yul\":5433:5560   */\n    tag_108:\n        /* \"#utility.yul\":5494:5504   */\n      0x4e487b71\n        /* \"#utility.yul\":5489:5492   */\n      0xe0\n        /* \"#utility.yul\":5485:5505   */\n      shl\n        /* \"#utility.yul\":5482:5483   */\n      0x00\n        /* \"#utility.yul\":5475:5506   */\n      mstore\n        /* \"#utility.yul\":5525:5529   */\n      0x32\n        /* \"#utility.yul\":5522:5523   */\n      0x04\n        /* \"#utility.yul\":5515:5530   */\n      mstore\n        /* \"#utility.yul\":5549:5553   */\n      0x24\n        /* \"#utility.yul\":5546:5547   */\n      0x00\n        /* \"#utility.yul\":5539:5554   */\n      revert\n        /* \"#utility.yul\":6040:6167   */\n    tag_137:\n        /* \"#utility.yul\":6101:6111   */\n      0x4e487b71\n        /* \"#utility.yul\":6096:6099   */\n      0xe0\n        /* \"#utility.yul\":6092:6112   */\n      shl\n        /* \"#utility.yul\":6089:6090   */\n      0x00\n        /* \"#utility.yul\":6082:6113   */\n      mstore\n        /* \"#utility.yul\":6132:6136   */\n      0x31\n        /* \"#utility.yul\":6129:6130   */\n      0x04\n        /* \"#utility.yul\":6122:6137   */\n      mstore\n        /* \"#utility.yul\":6156:6160   */\n      0x24\n        /* \"#utility.yul\":6153:6154   */\n      0x00\n        /* \"#utility.yul\":6146:6161   */\n      revert\n\n    auxdata: 0xa264697066735822122021c7db84a778540980b17beda77df73b6195ba76256e36c9df94a63315548fd564736f6c63430008190033\n}\n",
    "bytecode": {
      "linkReferences": {},
      "object": "6080604052348015600e575f80fd5b505f600355610afd806100205f395ff3fe608060405234801561000f575f80fd5b50600436106100b9575f3560e01c80639d1b464a11610072578063bd2d447d11610058578063bd2d447d1461018b578063cf48e4f71461019e578063eb91d37e146101b1575f80fd5b80639d1b464a1461016f578063aecdb7f314610178575f80fd5b8063338faaa6116100a2578063338faaa6146101275780635362fe7b1461014757806368564f531461015c575f80fd5b80631ba0e2ed146100bd57806327e235e3146100fa575b5f80fd5b6100d06100cb366004610960565b6101b9565b604080516001600160a01b0390941684526020840192909252908201526060015b60405180910390f35b610119610108366004610980565b60026020525f908152604090205481565b6040519081526020016100f1565b61013a6101353660046109ad565b610200565b6040516100f191906109c4565b61015a6101553660046109ad565b610291565b005b6100d061016a366004610960565b6102b7565b61011960035481565b61013a6101863660046109ad565b6102d0565b61015a610199366004610a25565b61034c565b61015a6101ac3660046109ad565b610641565b600354610119565b5f602052815f5260405f2081815481106101d1575f80fd5b5f9182526020909120600390910201805460018201546002909201546001600160a01b03909116935090915083565b606060015f8381526020019081526020015f20805480602002602001604051908101604052809291908181526020015f905b82821015610286575f848152602090819020604080516060810182526003860290920180546001600160a01b0316835260018082015484860152600290910154918301919091529083529092019101610232565b505050509050919050565b335f90815260026020526040812080548392906102af908490610a73565b909155505050565b6001602052815f5260405f2081815481106101d1575f80fd5b5f81815260208181526040808320805482518185028101850190935280835260609492939192909184018215610286575f848152602090819020604080516060810182526003860290920180546001600160a01b0316835260018082015484860152600290910154918301919091529083529092019101610232565b5f8311801561035a57505f82115b6103ab5760405162461bcd60e51b815260206004820152600d60248201527f496e76616c6964206f726465720000000000000000000000000000000000000060448201526064015b60405180910390fd5b801561049a576003548310156104295760405162461bcd60e51b815260206004820152603f60248201527f427579207072696365206d7573742062652067726561746572207468616e206f60448201527f7220657175616c20746f2063757272656e74206d61726b65742070726963650060648201526084016103a2565b5f8381526020818152604080832081516060810183523381528084018781524293820193845282546001808201855593875294909520905160039094020180546001600160a01b0319166001600160a01b0390941693909317835592519282019290925590516002909101556105ea565b6003548311156105125760405162461bcd60e51b815260206004820152603d60248201527f53656c6c207072696365206d757374206265206c657373207468616e206f722060448201527f657175616c20746f2063757272656e74206d61726b657420707269636500000060648201526084016103a2565b335f9081526002602052604090205482111561057c5760405162461bcd60e51b815260206004820152602360248201527f496e73756666696369656e7420656e657267792062616c616e636520746f2073604482015262195b1b60ea1b60648201526084016103a2565b5f83815260016020818152604080842081516060810183523381528084018881524293820193845282548087018455928752939095209451600390910290940180546001600160a01b0319166001600160a01b03909516949094178455905191830191909155516002909101555b604080513381526020810185905290810183905281151560608201527f54d7076c6b62ef7bab70db425f9b28d36d90208e70beab9021424322acf373d49060800160405180910390a161063c836106bd565b505050565b335f9081526002602052604090205481111561069f5760405162461bcd60e51b815260206004820152601460248201527f496e73756666696369656e742062616c616e636500000000000000000000000060448201526064016103a2565b335f90815260026020526040812080548392906102af908490610a8c565b5f8181526020818152604080832060019092529091205b8154158015906106e45750805415155b1561063c575f825f815481106106fc576106fc610a9f565b905f5260205f20906003020190505f825f8154811061071d5761071d610a9f565b905f5260205f20906003020190505f81600101548360010154111561074657816001015461074c565b82600101545b83546001600160a01b03165f90815260026020526040812080549293508392909190610779908490610a73565b909155505081546001600160a01b03165f90815260026020526040812080548392906107a6908490610a8c565b909155505060038690556040518681527fcfebfed7291191489847e6abdd482d8816f6f32efecf69fc66c91631a2f217f99060200160405180910390a182548254604080516001600160a01b0393841681529290911660208301528101879052606081018290527f9e4e3f39380775c0cafb8e955d18b0522aa6649c0500b18fde8657ba3f7deab99060800160405180910390a180836001015f82825461084d9190610a8c565b9250508190555080826001015f8282546108679190610a8c565b909155505060018301545f0361088157610881855f61089e565b81600101545f0361089657610896845f61089e565b5050506106d4565b815482906108ae90600190610a8c565b815481106108be576108be610a9f565b905f5260205f2090600302018282815481106108dc576108dc610a9f565b5f9182526020909120825460039092020180546001600160a01b0319166001600160a01b0390921691909117815560018083015490820155600291820154910155815482908061092e5761092e610ab3565b5f8281526020812060035f199093019283020180546001600160a01b0319168155600181018290556002015590555050565b5f8060408385031215610971575f80fd5b50508035926020909101359150565b5f60208284031215610990575f80fd5b81356001600160a01b03811681146109a6575f80fd5b9392505050565b5f602082840312156109bd575f80fd5b5035919050565b602080825282518282018190525f919060409081850190868401855b82811015610a1857815180516001600160a01b03168552868101518786015285015185850152606090930192908501906001016109e0565b5091979650505050505050565b5f805f60608486031215610a37575f80fd5b833592506020840135915060408401358015158114610a54575f80fd5b809150509250925092565b634e487b7160e01b5f52601160045260245ffd5b80820180821115610a8657610a86610a5f565b92915050565b81810381811115610a8657610a86610a5f565b634e487b7160e01b5f52603260045260245ffd5b634e487b7160e01b5f52603160045260245ffdfea264697066735822122021c7db84a778540980b17beda77df73b6195ba76256e36c9df94a63315548fd564736f6c63430008190033",
      "opcodes": "PUSH1 0x80 PUSH1 0x40 MSTORE CALLVALUE DUP1 ISZERO PUSH1 0xE JUMPI PUSH0 DUP1 REVERT JUMPDEST POP PUSH0 PUSH1 0x3 SSTORE PUSH2 0xAFD DUP1 PUSH2 0x20 PUSH0 CODECOPY PUSH0 RETURN INVALID PUSH1 0x80 PUSH1 0x40 MSTORE CALLVALUE DUP1 ISZERO PUSH2 0xF JUMPI PUSH0 DUP1 REVERT JUMPDEST POP PUSH1 0x4 CALLDATASIZE LT PUSH2 0xB9 JUMPI PUSH0 CALLDATALOAD PUSH1 0xE0 SHR DUP1 PUSH4 0x9D1B464A GT PUSH2 0x72 JUMPI DUP1 PUSH4 0xBD2D447D GT PUSH2 0x58 JUMPI DUP1 PUSH4 0xBD2D447D EQ PUSH2 0x18B JUMPI DUP1 PUSH4 0xCF48E4F7 EQ PUSH2 0x19E JUMPI DUP1 PUSH4 0xEB91D37E EQ PUSH2 0x1B1 JUMPI PUSH0 DUP1 REVERT JUMPDEST DUP1 PUSH4 0x9D1B464A EQ PUSH2 0x16F JUMPI DUP1 PUSH4 0xAECDB7F3 EQ PUSH2 0x178 JUMPI PUSH0 DUP1 REVERT JUMPDEST DUP1 PUSH4 0x338FAAA6 GT PUSH2 0xA2 JUMPI DUP1 PUSH4 0x338FAAA6 EQ PUSH2 0x127 JUMPI DUP1 PUSH4 0x5362FE7B EQ PUSH2 0x147 JUMPI DUP1 PUSH4 0x68564F53 EQ PUSH2 0x15C JUMPI PUSH0 DUP1 REVERT JUMPDEST DUP1 PUSH4 0x1BA0E2ED EQ PUSH2 0xBD JUMPI DUP1 PUSH4 0x27E235E3 EQ PUSH2 0xFA JUMPI JUMPDEST PUSH0 DUP1 REVERT JUMPDEST PUSH2 0xD0 PUSH2 0xCB CALLDATASIZE PUSH1 0x4 PUSH2 0x960 JUMP JUMPDEST PUSH2 0x1B9 JUMP JUMPDEST PUSH1 0x40 DUP1 MLOAD PUSH1 0x1 PUSH1 0x1 PUSH1 0xA0 SHL SUB SWAP1 SWAP5 AND DUP5 MSTORE PUSH1 0x20 DUP5 ADD SWAP3 SWAP1 SWAP3 MSTORE SWAP1 DUP3 ADD MSTORE PUSH1 0x60 ADD JUMPDEST PUSH1 0x40 MLOAD DUP1 SWAP2 SUB SWAP1 RETURN JUMPDEST PUSH2 0x119 PUSH2 0x108 CALLDATASIZE PUSH1 0x4 PUSH2 0x980 JUMP JUMPDEST PUSH1 0x2 PUSH1 0x20 MSTORE PUSH0 SWAP1 DUP2 MSTORE PUSH1 0x40 SWAP1 KECCAK256 SLOAD DUP2 JUMP JUMPDEST PUSH1 0x40 MLOAD SWAP1 DUP2 MSTORE PUSH1 0x20 ADD PUSH2 0xF1 JUMP JUMPDEST PUSH2 0x13A PUSH2 0x135 CALLDATASIZE PUSH1 0x4 PUSH2 0x9AD JUMP JUMPDEST PUSH2 0x200 JUMP JUMPDEST PUSH1 0x40 MLOAD PUSH2 0xF1 SWAP2 SWAP1 PUSH2 0x9C4 JUMP JUMPDEST PUSH2 0x15A PUSH2 0x155 CALLDATASIZE PUSH1 0x4 PUSH2 0x9AD JUMP JUMPDEST PUSH2 0x291 JUMP JUMPDEST STOP JUMPDEST PUSH2 0xD0 PUSH2 0x16A CALLDATASIZE PUSH1 0x4 PUSH2 0x960 JUMP JUMPDEST PUSH2 0x2B7 JUMP JUMPDEST PUSH2 0x119 PUSH1 0x3 SLOAD DUP2 JUMP JUMPDEST PUSH2 0x13A PUSH2 0x186 CALLDATASIZE PUSH1 0x4 PUSH2 0x9AD JUMP JUMPDEST PUSH2 0x2D0 JUMP JUMPDEST PUSH2 0x15A PUSH2 0x199 CALLDATASIZE PUSH1 0x4 PUSH2 0xA25 JUMP JUMPDEST PUSH2 0x34C JUMP JUMPDEST PUSH2 0x15A PUSH2 0x1AC CALLDATASIZE PUSH1 0x4 PUSH2 0x9AD JUMP JUMPDEST PUSH2 0x641 JUMP JUMPDEST PUSH1 0x3 SLOAD PUSH2 0x119 JUMP JUMPDEST PUSH0 PUSH1 0x20 MSTORE DUP2 PUSH0 MSTORE PUSH1 0x40 PUSH0 KECCAK256 DUP2 DUP2 SLOAD DUP2 LT PUSH2 0x1D1 JUMPI PUSH0 DUP1 REVERT JUMPDEST PUSH0 SWAP2 DUP3 MSTORE PUSH1 0x20 SWAP1 SWAP2 KECCAK256 PUSH1 0x3 SWAP1 SWAP2 MUL ADD DUP1 SLOAD PUSH1 0x1 DUP3 ADD SLOAD PUSH1 0x2 SWAP1 SWAP3 ADD SLOAD PUSH1 0x1 PUSH1 0x1 PUSH1 0xA0 SHL SUB SWAP1 SWAP2 AND SWAP4 POP SWAP1 SWAP2 POP DUP4 JUMP JUMPDEST PUSH1 0x60 PUSH1 0x1 PUSH0 DUP4 DUP2 MSTORE PUSH1 0x20 ADD SWAP1 DUP2 MSTORE PUSH1 0x20 ADD PUSH0 KECCAK256 DUP1 SLOAD DUP1 PUSH1 0x20 MUL PUSH1 0x20 ADD PUSH1 0x40 MLOAD SWAP1 DUP2 ADD PUSH1 0x40 MSTORE DUP1 SWAP3 SWAP2 SWAP1 DUP2 DUP2 MSTORE PUSH1 0x20 ADD PUSH0 SWAP1 JUMPDEST DUP3 DUP3 LT ISZERO PUSH2 0x286 JUMPI PUSH0 DUP5 DUP2 MSTORE PUSH1 0x20 SWAP1 DUP2 SWAP1 KECCAK256 PUSH1 0x40 DUP1 MLOAD PUSH1 0x60 DUP2 ADD DUP3 MSTORE PUSH1 0x3 DUP7 MUL SWAP1 SWAP3 ADD DUP1 SLOAD PUSH1 0x1 PUSH1 0x1 PUSH1 0xA0 SHL SUB AND DUP4 MSTORE PUSH1 0x1 DUP1 DUP3 ADD SLOAD DUP5 DUP7 ADD MSTORE PUSH1 0x2 SWAP1 SWAP2 ADD SLOAD SWAP2 DUP4 ADD SWAP2 SWAP1 SWAP2 MSTORE SWAP1 DUP4 MSTORE SWAP1 SWAP3 ADD SWAP2 ADD PUSH2 0x232 JUMP JUMPDEST POP POP POP POP SWAP1 POP SWAP2 SWAP1 POP JUMP JUMPDEST CALLER PUSH0 SWAP1 DUP2 MSTORE PUSH1 0x2 PUSH1 0x20 MSTORE PUSH1 0x40 DUP2 KECCAK256 DUP1 SLOAD DUP4 SWAP3 SWAP1 PUSH2 0x2AF SWAP1 DUP5 SWAP1 PUSH2 0xA73 JUMP JUMPDEST SWAP1 SWAP2 SSTORE POP POP POP JUMP JUMPDEST PUSH1 0x1 PUSH1 0x20 MSTORE DUP2 PUSH0 MSTORE PUSH1 0x40 PUSH0 KECCAK256 DUP2 DUP2 SLOAD DUP2 LT PUSH2 0x1D1 JUMPI PUSH0 DUP1 REVERT JUMPDEST PUSH0 DUP2 DUP2 MSTORE PUSH1 0x20 DUP2 DUP2 MSTORE PUSH1 0x40 DUP1 DUP4 KECCAK256 DUP1 SLOAD DUP3 MLOAD DUP2 DUP6 MUL DUP2 ADD DUP6 ADD SWAP1 SWAP4 MSTORE DUP1 DUP4 MSTORE PUSH1 0x60 SWAP5 SWAP3 SWAP4 SWAP2 SWAP3 SWAP1 SWAP2 DUP5 ADD DUP3 ISZERO PUSH2 0x286 JUMPI PUSH0 DUP5 DUP2 MSTORE PUSH1 0x20 SWAP1 DUP2 SWAP1 KECCAK256 PUSH1 0x40 DUP1 MLOAD PUSH1 0x60 DUP2 ADD DUP3 MSTORE PUSH1 0x3 DUP7 MUL SWAP1 SWAP3 ADD DUP1 SLOAD PUSH1 0x1 PUSH1 0x1 PUSH1 0xA0 SHL SUB AND DUP4 MSTORE PUSH1 0x1 DUP1 DUP3 ADD SLOAD DUP5 DUP7 ADD MSTORE PUSH1 0x2 SWAP1 SWAP2 ADD SLOAD SWAP2 DUP4 ADD SWAP2 SWAP1 SWAP2 MSTORE SWAP1 DUP4 MSTORE SWAP1 SWAP3 ADD SWAP2 ADD PUSH2 0x232 JUMP JUMPDEST PUSH0 DUP4 GT DUP1 ISZERO PUSH2 0x35A JUMPI POP PUSH0 DUP3 GT JUMPDEST PUSH2 0x3AB JUMPI PUSH1 0x40 MLOAD PUSH3 0x461BCD PUSH1 0xE5 SHL DUP2 MSTORE PUSH1 0x20 PUSH1 0x4 DUP3 ADD MSTORE PUSH1 0xD PUSH1 0x24 DUP3 ADD MSTORE PUSH32 0x496E76616C6964206F7264657200000000000000000000000000000000000000 PUSH1 0x44 DUP3 ADD MSTORE PUSH1 0x64 ADD JUMPDEST PUSH1 0x40 MLOAD DUP1 SWAP2 SUB SWAP1 REVERT JUMPDEST DUP1 ISZERO PUSH2 0x49A JUMPI PUSH1 0x3 SLOAD DUP4 LT ISZERO PUSH2 0x429 JUMPI PUSH1 0x40 MLOAD PUSH3 0x461BCD PUSH1 0xE5 SHL DUP2 MSTORE PUSH1 0x20 PUSH1 0x4 DUP3 ADD MSTORE PUSH1 0x3F PUSH1 0x24 DUP3 ADD MSTORE PUSH32 0x427579207072696365206D7573742062652067726561746572207468616E206F PUSH1 0x44 DUP3 ADD MSTORE PUSH32 0x7220657175616C20746F2063757272656E74206D61726B657420707269636500 PUSH1 0x64 DUP3 ADD MSTORE PUSH1 0x84 ADD PUSH2 0x3A2 JUMP JUMPDEST PUSH0 DUP4 DUP2 MSTORE PUSH1 0x20 DUP2 DUP2 MSTORE PUSH1 0x40 DUP1 DUP4 KECCAK256 DUP2 MLOAD PUSH1 0x60 DUP2 ADD DUP4 MSTORE CALLER DUP2 MSTORE DUP1 DUP5 ADD DUP8 DUP2 MSTORE TIMESTAMP SWAP4 DUP3 ADD SWAP4 DUP5 MSTORE DUP3 SLOAD PUSH1 0x1 DUP1 DUP3 ADD DUP6 SSTORE SWAP4 DUP8 MSTORE SWAP5 SWAP1 SWAP6 KECCAK256 SWAP1 MLOAD PUSH1 0x3 SWAP1 SWAP5 MUL ADD DUP1 SLOAD PUSH1 0x1 PUSH1 0x1 PUSH1 0xA0 SHL SUB NOT AND PUSH1 0x1 PUSH1 0x1 PUSH1 0xA0 SHL SUB SWAP1 SWAP5 AND SWAP4 SWAP1 SWAP4 OR DUP4 SSTORE SWAP3 MLOAD SWAP3 DUP3 ADD SWAP3 SWAP1 SWAP3 SSTORE SWAP1 MLOAD PUSH1 0x2 SWAP1 SWAP2 ADD SSTORE PUSH2 0x5EA JUMP JUMPDEST PUSH1 0x3 SLOAD DUP4 GT ISZERO PUSH2 0x512 JUMPI PUSH1 0x40 MLOAD PUSH3 0x461BCD PUSH1 0xE5 SHL DUP2 MSTORE PUSH1 0x20 PUSH1 0x4 DUP3 ADD MSTORE PUSH1 0x3D PUSH1 0x24 DUP3 ADD MSTORE PUSH32 0x53656C6C207072696365206D757374206265206C657373207468616E206F7220 PUSH1 0x44 DUP3 ADD MSTORE PUSH32 0x657175616C20746F2063757272656E74206D61726B6574207072696365000000 PUSH1 0x64 DUP3 ADD MSTORE PUSH1 0x84 ADD PUSH2 0x3A2 JUMP JUMPDEST CALLER PUSH0 SWAP1 DUP2 MSTORE PUSH1 0x2 PUSH1 0x20 MSTORE PUSH1 0x40 SWAP1 KECCAK256 SLOAD DUP3 GT ISZERO PUSH2 0x57C JUMPI PUSH1 0x40 MLOAD PUSH3 0x461BCD PUSH1 0xE5 SHL DUP2 MSTORE PUSH1 0x20 PUSH1 0x4 DUP3 ADD MSTORE PUSH1 0x23 PUSH1 0x24 DUP3 ADD MSTORE PUSH32 0x496E73756666696369656E7420656E657267792062616C616E636520746F2073 PUSH1 0x44 DUP3 ADD MSTORE PUSH3 0x195B1B PUSH1 0xEA SHL PUSH1 0x64 DUP3 ADD MSTORE PUSH1 0x84 ADD PUSH2 0x3A2 JUMP JUMPDEST PUSH0 DUP4 DUP2 MSTORE PUSH1 0x1 PUSH1 0x20 DUP2 DUP2 MSTORE PUSH1 0x40 DUP1 DUP5 KECCAK256 DUP2 MLOAD PUSH1 0x60 DUP2 ADD DUP4 MSTORE CALLER DUP2 MSTORE DUP1 DUP5 ADD DUP9 DUP2 MSTORE TIMESTAMP SWAP4 DUP3 ADD SWAP4 DUP5 MSTORE DUP3 SLOAD DUP1 DUP8 ADD DUP5 SSTORE SWAP3 DUP8 MSTORE SWAP4 SWAP1 SWAP6 KECCAK256 SWAP5 MLOAD PUSH1 0x3 SWAP1 SWAP2 MUL SWAP1 SWAP5 ADD DUP1 SLOAD PUSH1 0x1 PUSH1 0x1 PUSH1 0xA0 SHL SUB NOT AND PUSH1 0x1 PUSH1 0x1 PUSH1 0xA0 SHL SUB SWAP1 SWAP6 AND SWAP5 SWAP1 SWAP5 OR DUP5 SSTORE SWAP1 MLOAD SWAP2 DUP4 ADD SWAP2 SWAP1 SWAP2 SSTORE MLOAD PUSH1 0x2 SWAP1 SWAP2 ADD SSTORE JUMPDEST PUSH1 0x40 DUP1 MLOAD CALLER DUP2 MSTORE PUSH1 0x20 DUP2 ADD DUP6 SWAP1 MSTORE SWAP1 DUP2 ADD DUP4 SWAP1 MSTORE DUP2 ISZERO ISZERO PUSH1 0x60 DUP3 ADD MSTORE PUSH32 0x54D7076C6B62EF7BAB70DB425F9B28D36D90208E70BEAB9021424322ACF373D4 SWAP1 PUSH1 0x80 ADD PUSH1 0x40 MLOAD DUP1 SWAP2 SUB SWAP1 LOG1 PUSH2 0x63C DUP4 PUSH2 0x6BD JUMP JUMPDEST POP POP POP JUMP JUMPDEST CALLER PUSH0 SWAP1 DUP2 MSTORE PUSH1 0x2 PUSH1 0x20 MSTORE PUSH1 0x40 SWAP1 KECCAK256 SLOAD DUP2 GT ISZERO PUSH2 0x69F JUMPI PUSH1 0x40 MLOAD PUSH3 0x461BCD PUSH1 0xE5 SHL DUP2 MSTORE PUSH1 0x20 PUSH1 0x4 DUP3 ADD MSTORE PUSH1 0x14 PUSH1 0x24 DUP3 ADD MSTORE PUSH32 0x496E73756666696369656E742062616C616E6365000000000000000000000000 PUSH1 0x44 DUP3 ADD MSTORE PUSH1 0x64 ADD PUSH2 0x3A2 JUMP JUMPDEST CALLER PUSH0 SWAP1 DUP2 MSTORE PUSH1 0x2 PUSH1 0x20 MSTORE PUSH1 0x40 DUP2 KECCAK256 DUP1 SLOAD DUP4 SWAP3 SWAP1 PUSH2 0x2AF SWAP1 DUP5 SWAP1 PUSH2 0xA8C JUMP JUMPDEST PUSH0 DUP2 DUP2 MSTORE PUSH1 0x20 DUP2 DUP2 MSTORE PUSH1 0x40 DUP1 DUP4 KECCAK256 PUSH1 0x1 SWAP1 SWAP3 MSTORE SWAP1 SWAP2 KECCAK256 JUMPDEST DUP2 SLOAD ISZERO DUP1 ISZERO SWAP1 PUSH2 0x6E4 JUMPI POP DUP1 SLOAD ISZERO ISZERO JUMPDEST ISZERO PUSH2 0x63C JUMPI PUSH0 DUP3 PUSH0 DUP2 SLOAD DUP2 LT PUSH2 0x6FC JUMPI PUSH2 0x6FC PUSH2 0xA9F JUMP JUMPDEST SWAP1 PUSH0 MSTORE PUSH1 0x20 PUSH0 KECCAK256 SWAP1 PUSH1 0x3 MUL ADD SWAP1 POP PUSH0 DUP3 PUSH0 DUP2 SLOAD DUP2 LT PUSH2 0x71D JUMPI PUSH2 0x71D PUSH2 0xA9F JUMP JUMPDEST SWAP1 PUSH0 MSTORE PUSH1 0x20 PUSH0 KECCAK256 SWAP1 PUSH1 0x3 MUL ADD SWAP1 POP PUSH0 DUP2 PUSH1 0x1 ADD SLOAD DUP4 PUSH1 0x1 ADD SLOAD GT ISZERO PUSH2 0x746 JUMPI DUP2 PUSH1 0x1 ADD SLOAD PUSH2 0x74C JUMP JUMPDEST DUP3 PUSH1 0x1 ADD SLOAD JUMPDEST DUP4 SLOAD PUSH1 0x1 PUSH1 0x1 PUSH1 0xA0 SHL SUB AND PUSH0 SWAP1 DUP2 MSTORE PUSH1 0x2 PUSH1 0x20 MSTORE PUSH1 0x40 DUP2 KECCAK256 DUP1 SLOAD SWAP3 SWAP4 POP DUP4 SWAP3 SWAP1 SWAP2 SWAP1 PUSH2 0x779 SWAP1 DUP5 SWAP1 PUSH2 0xA73 JUMP JUMPDEST SWAP1 SWAP2 SSTORE POP POP DUP2 SLOAD PUSH1 0x1 PUSH1 0x1 PUSH1 0xA0 SHL SUB AND PUSH0 SWAP1 DUP2 MSTORE PUSH1 0x2 PUSH1 0x20 MSTORE PUSH1 0x40 DUP2 KECCAK256 DUP1 SLOAD DUP4 SWAP3 SWAP1 PUSH2 0x7A6 SWAP1 DUP5 SWAP1 PUSH2 0xA8C JUMP JUMPDEST SWAP1 SWAP2 SSTORE POP POP PUSH1 0x3 DUP7 SWAP1 SSTORE PUSH1 0x40 MLOAD DUP7 DUP2 MSTORE PUSH32 0xCFEBFED7291191489847E6ABDD482D8816F6F32EFECF69FC66C91631A2F217F9 SWAP1 PUSH1 0x20 ADD PUSH1 0x40 MLOAD DUP1 SWAP2 SUB SWAP1 LOG1 DUP3 SLOAD DUP3 SLOAD PUSH1 0x40 DUP1 MLOAD PUSH1 0x1 PUSH1 0x1 PUSH1 0xA0 SHL SUB SWAP4 DUP5 AND DUP2 MSTORE SWAP3 SWAP1 SWAP2 AND PUSH1 0x20 DUP4 ADD MSTORE DUP2 ADD DUP8 SWAP1 MSTORE PUSH1 0x60 DUP2 ADD DUP3 SWAP1 MSTORE PUSH32 0x9E4E3F39380775C0CAFB8E955D18B0522AA6649C0500B18FDE8657BA3F7DEAB9 SWAP1 PUSH1 0x80 ADD PUSH1 0x40 MLOAD DUP1 SWAP2 SUB SWAP1 LOG1 DUP1 DUP4 PUSH1 0x1 ADD PUSH0 DUP3 DUP3 SLOAD PUSH2 0x84D SWAP2 SWAP1 PUSH2 0xA8C JUMP JUMPDEST SWAP3 POP POP DUP2 SWAP1 SSTORE POP DUP1 DUP3 PUSH1 0x1 ADD PUSH0 DUP3 DUP3 SLOAD PUSH2 0x867 SWAP2 SWAP1 PUSH2 0xA8C JUMP JUMPDEST SWAP1 SWAP2 SSTORE POP POP PUSH1 0x1 DUP4 ADD SLOAD PUSH0 SUB PUSH2 0x881 JUMPI PUSH2 0x881 DUP6 PUSH0 PUSH2 0x89E JUMP JUMPDEST DUP2 PUSH1 0x1 ADD SLOAD PUSH0 SUB PUSH2 0x896 JUMPI PUSH2 0x896 DUP5 PUSH0 PUSH2 0x89E JUMP JUMPDEST POP POP POP PUSH2 0x6D4 JUMP JUMPDEST DUP2 SLOAD DUP3 SWAP1 PUSH2 0x8AE SWAP1 PUSH1 0x1 SWAP1 PUSH2 0xA8C JUMP JUMPDEST DUP2 SLOAD DUP2 LT PUSH2 0x8BE JUMPI PUSH2 0x8BE PUSH2 0xA9F JUMP JUMPDEST SWAP1 PUSH0 MSTORE PUSH1 0x20 PUSH0 KECCAK256 SWAP1 PUSH1 0x3 MUL ADD DUP3 DUP3 DUP2 SLOAD DUP2 LT PUSH2 0x8DC JUMPI PUSH2 0x8DC PUSH2 0xA9F JUMP JUMPDEST PUSH0 SWAP2 DUP3 MSTORE PUSH1 0x20 SWAP1 SWAP2 KECCAK256 DUP3 SLOAD PUSH1 0x3 SWAP1 SWAP3 MUL ADD DUP1 SLOAD PUSH1 0x1 PUSH1 0x1 PUSH1 0xA0 SHL SUB NOT AND PUSH1 0x1 PUSH1 0x1 PUSH1 0xA0 SHL SUB SWAP1 SWAP3 AND SWAP2 SWAP1 SWAP2 OR DUP2 SSTORE PUSH1 0x1 DUP1 DUP4 ADD SLOAD SWAP1 DUP3 ADD SSTORE PUSH1 0x2 SWAP2 DUP3 ADD SLOAD SWAP2 ADD SSTORE DUP2 SLOAD DUP3 SWAP1 DUP1 PUSH2 0x92E JUMPI PUSH2 0x92E PUSH2 0xAB3 JUMP JUMPDEST PUSH0 DUP3 DUP2 MSTORE PUSH1 0x20 DUP2 KECCAK256 PUSH1 0x3 PUSH0 NOT SWAP1 SWAP4 ADD SWAP3 DUP4 MUL ADD DUP1 SLOAD PUSH1 0x1 PUSH1 0x1 PUSH1 0xA0 SHL SUB NOT AND DUP2 SSTORE PUSH1 0x1 DUP2 ADD DUP3 SWAP1 SSTORE PUSH1 0x2 ADD SSTORE SWAP1 SSTORE POP POP JUMP JUMPDEST PUSH0 DUP1 PUSH1 0x40 DUP4 DUP6 SUB SLT ISZERO PUSH2 0x971 JUMPI PUSH0 DUP1 REVERT JUMPDEST POP POP DUP1 CALLDATALOAD SWAP3 PUSH1 0x20 SWAP1 SWAP2 ADD CALLDATALOAD SWAP2 POP JUMP JUMPDEST PUSH0 PUSH1 0x20 DUP3 DUP5 SUB SLT ISZERO PUSH2 0x990 JUMPI PUSH0 DUP1 REVERT JUMPDEST DUP2 CALLDATALOAD PUSH1 0x1 PUSH1 0x1 PUSH1 0xA0 SHL SUB DUP2 AND DUP2 EQ PUSH2 0x9A6 JUMPI PUSH0 DUP1 REVERT JUMPDEST SWAP4 SWAP3 POP POP POP JUMP JUMPDEST PUSH0 PUSH1 0x20 DUP3 DUP5 SUB SLT ISZERO PUSH2 0x9BD JUMPI PUSH0 DUP1 REVERT JUMPDEST POP CALLDATALOAD SWAP2 SWAP1 POP JUMP JUMPDEST PUSH1 0x20 DUP1 DUP3 MSTORE DUP3 MLOAD DUP3 DUP3 ADD DUP2 SWAP1 MSTORE PUSH0 SWAP2 SWAP1 PUSH1 0x40 SWAP1 DUP2 DUP6 ADD SWAP1 DUP7 DUP5 ADD DUP6 JUMPDEST DUP3 DUP2 LT ISZERO PUSH2 0xA18 JUMPI DUP2 MLOAD DUP1 MLOAD PUSH1 0x1 PUSH1 0x1 PUSH1 0xA0 SHL SUB AND DUP6 MSTORE DUP7 DUP2 ADD MLOAD DUP8 DUP7 ADD MSTORE DUP6 ADD MLOAD DUP6 DUP6 ADD MSTORE PUSH1 0x60 SWAP1 SWAP4 ADD SWAP3 SWAP1 DUP6 ADD SWAP1 PUSH1 0x1 ADD PUSH2 0x9E0 JUMP JUMPDEST POP SWAP2 SWAP8 SWAP7 POP POP POP POP POP POP POP JUMP JUMPDEST PUSH0 DUP1 PUSH0 PUSH1 0x60 DUP5 DUP7 SUB SLT ISZERO PUSH2 0xA37 JUMPI PUSH0 DUP1 REVERT JUMPDEST DUP4 CALLDATALOAD SWAP3 POP PUSH1 0x20 DUP5 ADD CALLDATALOAD SWAP2 POP PUSH1 0x40 DUP5 ADD CALLDATALOAD DUP1 ISZERO ISZERO DUP2 EQ PUSH2 0xA54 JUMPI PUSH0 DUP1 REVERT JUMPDEST DUP1 SWAP2 POP POP SWAP3 POP SWAP3 POP SWAP3 JUMP JUMPDEST PUSH4 0x4E487B71 PUSH1 0xE0 SHL PUSH0 MSTORE PUSH1 0x11 PUSH1 0x4 MSTORE PUSH1 0x24 PUSH0 REVERT JUMPDEST DUP1 DUP3 ADD DUP1 DUP3 GT ISZERO PUSH2 0xA86 JUMPI PUSH2 0xA86 PUSH2 0xA5F JUMP JUMPDEST SWAP3 SWAP2 POP POP JUMP JUMPDEST DUP2 DUP2 SUB DUP2 DUP2 GT ISZERO PUSH2 0xA86 JUMPI PUSH2 0xA86 PUSH2 0xA5F JUMP JUMPDEST PUSH4 0x4E487B71 PUSH1 0xE0 SHL PUSH0 MSTORE PUSH1 0x32 PUSH1 0x4 MSTORE PUSH1 0x24 PUSH0 REVERT JUMPDEST PUSH4 0x4E487B71 PUSH1 0xE0 SHL PUSH0 MSTORE PUSH1 0x31 PUSH1 0x4 MSTORE PUSH1 0x24 PUSH0 REVERT INVALID LOG2 PUSH5 0x6970667358 0x22 SLT KECCAK256 0x21 0xC7 0xDB DUP5 0xA7 PUSH25 0x540980B17BEDA77DF73B6195BA76256E36C9DF94A63315548F 0xD5 PUSH5 0x736F6C6343 STOP ADDMOD NOT STOP CALLER "
    },
    "gasEstimates": {
      "creation": {
        "codeDepositCost": "562600",
        "executionCost": "5597",
        "totalCost": "568197"
      },
      "external": {
        "balances(address)": "2527",
        "buyOrderBuckets(uint256,uint256)": "9001",
        "currentPrice()": "2317",
        "depositEnergy(uint256)": "24636",
        "getBuyOrders(uint256)": "infinite",
        "getCurrentPrice()": "2357",
        "getSellOrders(uint256)": "infinite",
        "placeOrder(uint256,uint256,bool)": "infinite",
        "sellOrderBuckets(uint256,uint256)": "9045",
        "withdrawEnergy(uint256)": "26828"
      },
      "internal": {
        "matchOrders(uint256)": "infinite",
        "removeOrder(struct EnergyTrading.Order storage ref[] storage pointer,uint256)": "139957"
      }
    },
    "methodIdentifiers": {
      "balances(address)": "27e235e3",
      "buyOrderBuckets(uint256,uint256)": "1ba0e2ed",
      "currentPrice()": "9d1b464a",
      "depositEnergy(uint256)": "5362fe7b",
      "getBuyOrders(uint256)": "aecdb7f3",
      "getCurrentPrice()": "eb91d37e",
      "getSellOrders(uint256)": "338faaa6",
      "placeOrder(uint256,uint256,bool)": "bd2d447d",
      "sellOrderBuckets(uint256,uint256)": "68564f53",
      "withdrawEnergy(uint256)": "cf48e4f7"
    }
  },
  "storageLayout": {
    "storage": [
      {
        "astId": 420,
        "contract": "Trading.sol:EnergyTrading",
        "label": "buyOrderBuckets",
        "offset": 0,
        "slot": "0",
        "type": "t_mapping(t_uint256,t_array(t_struct(Order)414_storage)dyn_storage)"
      },
      {
        "astId": 426,
        "contract": "Trading.sol:EnergyTrading",
        "label": "sellOrderBuckets",
        "offset": 0,
        "slot": "1",
        "type": "t_mapping(t_uint256,t_array(t_struct(Order)414_storage)dyn_storage)"
      },
      {
        "astId": 430,
        "contract": "Trading.sol:EnergyTrading",
        "label": "balances",
        "offset": 0,
        "slot": "2",
        "type": "t_mapping(t_address,t_uint256)"
      },
      {
        "astId": 432,
        "contract": "Trading.sol:EnergyTrading",
        "label": "currentPrice",
        "offset": 0,
        "slot": "3",
        "type": "t_uint256"
      }
    ],
    "types": {
      "t_address": {
        "encoding": "inplace",
        "label": "address",
        "numberOfBytes": "20"
      },
      "t_array(t_struct(Order)414_storage)dyn_storage": {
        "base": "t_struct(Order)414_storage",
        "encoding": "dynamic_array",
        "label": "struct EnergyTrading.Order[]",
        "numberOfBytes": "32"
      },
      "t_mapping(t_address,t_uint256)": {
        "encoding": "mapping",
        "key": "t_address",
        "label": "mapping(address => uint256)",
        "numberOfBytes": "32",
        "value": "t_uint256"
      },
      "t_mapping(t_uint256,t_array(t_struct(Order)414_storage)dyn_storage)": {
        "encoding": "mapping",
        "key": "t_uint256",
        "label": "mapping(uint256 => struct EnergyTrading.Order[])",
        "numberOfBytes": "32",
        "value": "t_array(t_struct(Order)414_storage)dyn_storage"
      },
      "t_struct(Order)414_storage": {
        "encoding": "inplace",
        "label": "struct EnergyTrading.Order",
        "members": [
          {
            "astId": 409,
            "contract": "Trading.sol:EnergyTrading",
            "label": "user",
            "offset": 0,
            "slot": "0",
            "type": "t_address"
          },
          {
            "astId": 411,
            "contract": "Trading.sol:EnergyTrading",
            "label": "quantity",
            "offset": 0,
            "slot": "1",
            "type": "t_uint256"
          },
          {
            "astId": 413,
            "contract": "Trading.sol:EnergyTrading",
            "label": "timestamp",
            "offset": 0,
            "slot": "2",
            "type": "t_uint256"
          }
        ],
        "numberOfBytes": "96"
      },
      "t_uint256": {
        "encoding": "inplace",
        "label": "uint256",
        "numberOfBytes": "32"
      }
    }
  },
  "userdoc": {
    "kind": "user",
    "methods": {},
    "version": 1
  }
}